{
	"contracts/SmartPayPaymaster.sol": {
		"SmartPayPaymaster": {
			"abi": [
				{
					"inputs": [
						{
							"internalType": "contract IEntryPoint",
							"name": "_entryPoint",
							"type": "address"
						},
						{
							"internalType": "address",
							"name": "initialOwner",
							"type": "address"
						}
					],
					"stateMutability": "nonpayable",
					"type": "constructor"
				},
				{
					"inputs": [
						{
							"internalType": "address",
							"name": "owner",
							"type": "address"
						}
					],
					"name": "OwnableInvalidOwner",
					"type": "error"
				},
				{
					"inputs": [
						{
							"internalType": "address",
							"name": "account",
							"type": "address"
						}
					],
					"name": "OwnableUnauthorizedAccount",
					"type": "error"
				},
				{
					"anonymous": false,
					"inputs": [
						{
							"indexed": true,
							"internalType": "address",
							"name": "sender",
							"type": "address"
						},
						{
							"indexed": false,
							"internalType": "uint256",
							"name": "gasUsed",
							"type": "uint256"
						},
						{
							"indexed": false,
							"internalType": "uint256",
							"name": "timestamp",
							"type": "uint256"
						}
					],
					"name": "GasSponsored",
					"type": "event"
				},
				{
					"anonymous": false,
					"inputs": [
						{
							"indexed": true,
							"internalType": "address",
							"name": "previousOwner",
							"type": "address"
						},
						{
							"indexed": true,
							"internalType": "address",
							"name": "newOwner",
							"type": "address"
						}
					],
					"name": "OwnershipTransferred",
					"type": "event"
				},
				{
					"inputs": [],
					"name": "entryPoint",
					"outputs": [
						{
							"internalType": "contract IEntryPoint",
							"name": "",
							"type": "address"
						}
					],
					"stateMutability": "view",
					"type": "function"
				},
				{
					"inputs": [],
					"name": "owner",
					"outputs": [
						{
							"internalType": "address",
							"name": "",
							"type": "address"
						}
					],
					"stateMutability": "view",
					"type": "function"
				},
				{
					"inputs": [
						{
							"internalType": "enum IPaymaster.PostOpMode",
							"name": "mode",
							"type": "uint8"
						},
						{
							"internalType": "bytes",
							"name": "context",
							"type": "bytes"
						},
						{
							"internalType": "uint256",
							"name": "actualGasCost",
							"type": "uint256"
						}
					],
					"name": "postOp",
					"outputs": [],
					"stateMutability": "nonpayable",
					"type": "function"
				},
				{
					"inputs": [],
					"name": "renounceOwnership",
					"outputs": [],
					"stateMutability": "nonpayable",
					"type": "function"
				},
				{
					"inputs": [
						{
							"internalType": "address",
							"name": "newOwner",
							"type": "address"
						}
					],
					"name": "transferOwnership",
					"outputs": [],
					"stateMutability": "nonpayable",
					"type": "function"
				},
				{
					"inputs": [
						{
							"components": [
								{
									"internalType": "address",
									"name": "sender",
									"type": "address"
								},
								{
									"internalType": "uint256",
									"name": "nonce",
									"type": "uint256"
								},
								{
									"internalType": "bytes",
									"name": "initCode",
									"type": "bytes"
								},
								{
									"internalType": "bytes",
									"name": "callData",
									"type": "bytes"
								},
								{
									"internalType": "uint256",
									"name": "callGasLimit",
									"type": "uint256"
								},
								{
									"internalType": "uint256",
									"name": "verificationGasLimit",
									"type": "uint256"
								},
								{
									"internalType": "uint256",
									"name": "preVerificationGas",
									"type": "uint256"
								},
								{
									"internalType": "uint256",
									"name": "maxFeePerGas",
									"type": "uint256"
								},
								{
									"internalType": "uint256",
									"name": "maxPriorityFeePerGas",
									"type": "uint256"
								},
								{
									"internalType": "bytes",
									"name": "paymasterAndData",
									"type": "bytes"
								},
								{
									"internalType": "bytes",
									"name": "signature",
									"type": "bytes"
								}
							],
							"internalType": "struct UserOperation",
							"name": "userOp",
							"type": "tuple"
						},
						{
							"internalType": "bytes32",
							"name": "userOpHash",
							"type": "bytes32"
						},
						{
							"internalType": "uint256",
							"name": "maxCost",
							"type": "uint256"
						}
					],
					"name": "validatePaymasterUserOp",
					"outputs": [
						{
							"internalType": "bytes",
							"name": "context",
							"type": "bytes"
						},
						{
							"internalType": "uint256",
							"name": "validationData",
							"type": "uint256"
						}
					],
					"stateMutability": "nonpayable",
					"type": "function"
				},
				{
					"inputs": [
						{
							"internalType": "address payable",
							"name": "to",
							"type": "address"
						},
						{
							"internalType": "uint256",
							"name": "amount",
							"type": "uint256"
						}
					],
					"name": "withdrawTo",
					"outputs": [],
					"stateMutability": "nonpayable",
					"type": "function"
				},
				{
					"stateMutability": "payable",
					"type": "receive"
				}
			],
			"devdoc": {
				"errors": {
					"OwnableInvalidOwner(address)": [
						{
							"details": "The owner is not a valid owner account. (eg. `address(0)`)"
						}
					],
					"OwnableUnauthorizedAccount(address)": [
						{
							"details": "The caller account is not authorized to perform an operation."
						}
					]
				},
				"kind": "dev",
				"methods": {
					"owner()": {
						"details": "Returns the address of the current owner."
					},
					"postOp(uint8,bytes,uint256)": {
						"params": {
							"actualGasCost": "- actual gas used so far (without this postOp call).",
							"context": "- the context value returned by validatePaymasterUserOp",
							"mode": "enum with the following options:      opSucceeded - user operation succeeded.      opReverted  - user op reverted. still has to pay for gas.      postOpReverted - user op succeeded, but caused postOp (in mode=opSucceeded) to revert.                       Now this is the 2nd call, after user's op was deliberately reverted."
						}
					},
					"renounceOwnership()": {
						"details": "Leaves the contract without owner. It will not be possible to call `onlyOwner` functions. Can only be called by the current owner. NOTE: Renouncing ownership will leave the contract without an owner, thereby disabling any functionality that is only available to the owner."
					},
					"transferOwnership(address)": {
						"details": "Transfers ownership of the contract to a new account (`newOwner`). Can only be called by the current owner."
					},
					"validatePaymasterUserOp((address,uint256,bytes,bytes,uint256,uint256,uint256,uint256,uint256,bytes,bytes),bytes32,uint256)": {
						"params": {
							"maxCost": "the maximum cost of this transaction (based on maximum gas and gas price from userOp)",
							"userOp": "the user operation",
							"userOpHash": "hash of the user's request data."
						},
						"returns": {
							"context": "value to send to a postOp      zero length to signify postOp is not required.",
							"validationData": "signature and time-range of this operation, encoded the same as the return value of validateUserOperation      <20-byte> sigAuthorizer - 0 for valid signature, 1 to mark signature failure,         otherwise, an address of an \"authorizer\" contract.      <6-byte> validUntil - last timestamp this operation is valid. 0 for \"indefinite\"      <6-byte> validAfter - first timestamp this operation is valid      Note that the validation code cannot use block.timestamp (or block.number) directly."
						}
					}
				},
				"version": 1
			},
			"evm": {
				"assembly": "    /* \"contracts/SmartPayPaymaster.sol\":153:1259  contract SmartPayPaymaster is CustomBasePaymaster, Ownable {... */\n  mstore(0x40, 0xa0)\n    /* \"contracts/SmartPayPaymaster.sol\":303:431  constructor(IEntryPoint _entryPoint, address initialOwner)... */\n  callvalue\n  dup1\n  iszero\n  tag_1\n  jumpi\n  revert(0x00, 0x00)\ntag_1:\n  pop\n  mload(0x40)\n  sub(codesize, bytecodeSize)\n  dup1\n  bytecodeSize\n  dup4\n  codecopy\n  dup2\n  dup2\n  add\n  0x40\n  mstore\n  dup2\n  add\n  swap1\n  tag_2\n  swap2\n  swap1\n  tag_3\n  jump\t// in\ntag_2:\n    /* \"contracts/SmartPayPaymaster.sol\":411:423  initialOwner */\n  dup1\n    /* \"contracts/SmartPayPaymaster.sol\":386:397  _entryPoint */\n  dup3\n    /* \"contracts/base/CustomBasePaymaster.sol\":428:439  _entryPoint */\n  dup1\n    /* \"contracts/base/CustomBasePaymaster.sol\":415:439  entryPoint = _entryPoint */\n  0xffffffffffffffffffffffffffffffffffffffff\n  and\n  0x80\n  dup2\n  0xffffffffffffffffffffffffffffffffffffffff\n  and\n  dup2\n  mstore\n  pop\n  pop\n    /* \"contracts/base/CustomBasePaymaster.sol\":368:446  constructor(IEntryPoint _entryPoint) {... */\n  pop\n    /* \"@openzeppelin/contracts/access/Ownable.sol\":1297:1298  0 */\n  0x00\n    /* \"@openzeppelin/contracts/access/Ownable.sol\":1273:1299  initialOwner == address(0) */\n  0xffffffffffffffffffffffffffffffffffffffff\n  and\n    /* \"@openzeppelin/contracts/access/Ownable.sol\":1273:1285  initialOwner */\n  dup2\n    /* \"@openzeppelin/contracts/access/Ownable.sol\":1273:1299  initialOwner == address(0) */\n  0xffffffffffffffffffffffffffffffffffffffff\n  and\n  sub\n    /* \"@openzeppelin/contracts/access/Ownable.sol\":1269:1364  if (initialOwner == address(0)) {... */\n  tag_9\n  jumpi\n    /* \"@openzeppelin/contracts/access/Ownable.sol\":1350:1351  0 */\n  0x00\n    /* \"@openzeppelin/contracts/access/Ownable.sol\":1322:1353  OwnableInvalidOwner(address(0)) */\n  mload(0x40)\n  0x1e4fbdf700000000000000000000000000000000000000000000000000000000\n  dup2\n  mstore\n  0x04\n  add\n  tag_10\n  swap2\n  swap1\n  tag_11\n  jump\t// in\ntag_10:\n  mload(0x40)\n  dup1\n  swap2\n  sub\n  swap1\n  revert\n    /* \"@openzeppelin/contracts/access/Ownable.sol\":1269:1364  if (initialOwner == address(0)) {... */\ntag_9:\n    /* \"@openzeppelin/contracts/access/Ownable.sol\":1373:1405  _transferOwnership(initialOwner) */\n  tag_12\n    /* \"@openzeppelin/contracts/access/Ownable.sol\":1392:1404  initialOwner */\n  dup2\n    /* \"@openzeppelin/contracts/access/Ownable.sol\":1373:1391  _transferOwnership */\n  shl(0x20, tag_13)\n    /* \"@openzeppelin/contracts/access/Ownable.sol\":1373:1405  _transferOwnership(initialOwner) */\n  0x20\n  shr\n  jump\t// in\ntag_12:\n    /* \"@openzeppelin/contracts/access/Ownable.sol\":1225:1412  constructor(address initialOwner) {... */\n  pop\n    /* \"contracts/SmartPayPaymaster.sol\":303:431  constructor(IEntryPoint _entryPoint, address initialOwner)... */\n  pop\n  pop\n    /* \"contracts/SmartPayPaymaster.sol\":153:1259  contract SmartPayPaymaster is CustomBasePaymaster, Ownable {... */\n  jump(tag_15)\n    /* \"@openzeppelin/contracts/access/Ownable.sol\":2912:3099  function _transferOwnership(address newOwner) internal virtual {... */\ntag_13:\n    /* \"@openzeppelin/contracts/access/Ownable.sol\":2985:3001  address oldOwner */\n  0x00\n    /* \"@openzeppelin/contracts/access/Ownable.sol\":3004:3010  _owner */\n  0x00\n  0x00\n  swap1\n  sload\n  swap1\n  0x0100\n  exp\n  swap1\n  div\n  0xffffffffffffffffffffffffffffffffffffffff\n  and\n    /* \"@openzeppelin/contracts/access/Ownable.sol\":2985:3010  address oldOwner = _owner */\n  swap1\n  pop\n    /* \"@openzeppelin/contracts/access/Ownable.sol\":3029:3037  newOwner */\n  dup2\n    /* \"@openzeppelin/contracts/access/Ownable.sol\":3020:3026  _owner */\n  0x00\n  0x00\n    /* \"@openzeppelin/contracts/access/Ownable.sol\":3020:3037  _owner = newOwner */\n  0x0100\n  exp\n  dup2\n  sload\n  dup2\n  0xffffffffffffffffffffffffffffffffffffffff\n  mul\n  not\n  and\n  swap1\n  dup4\n  0xffffffffffffffffffffffffffffffffffffffff\n  and\n  mul\n  or\n  swap1\n  sstore\n  pop\n    /* \"@openzeppelin/contracts/access/Ownable.sol\":3083:3091  newOwner */\n  dup2\n    /* \"@openzeppelin/contracts/access/Ownable.sol\":3052:3092  OwnershipTransferred(oldOwner, newOwner) */\n  0xffffffffffffffffffffffffffffffffffffffff\n  and\n    /* \"@openzeppelin/contracts/access/Ownable.sol\":3073:3081  oldOwner */\n  dup2\n    /* \"@openzeppelin/contracts/access/Ownable.sol\":3052:3092  OwnershipTransferred(oldOwner, newOwner) */\n  0xffffffffffffffffffffffffffffffffffffffff\n  and\n  0x8be0079c531659141344cd1fd0a4f28419497f9722a3daafe3b4186f6b6457e0\n  mload(0x40)\n  mload(0x40)\n  dup1\n  swap2\n  sub\n  swap1\n  log3\n    /* \"@openzeppelin/contracts/access/Ownable.sol\":2975:3099  {... */\n  pop\n    /* \"@openzeppelin/contracts/access/Ownable.sol\":2912:3099  function _transferOwnership(address newOwner) internal virtual {... */\n  pop\n  jump\t// out\n    /* \"#utility.yul\":88:205   */\ntag_18:\n    /* \"#utility.yul\":197:198   */\n  0x00\n    /* \"#utility.yul\":194:195   */\n  0x00\n    /* \"#utility.yul\":187:199   */\n  revert\n    /* \"#utility.yul\":334:460   */\ntag_20:\n    /* \"#utility.yul\":371:378   */\n  0x00\n    /* \"#utility.yul\":411:453   */\n  0xffffffffffffffffffffffffffffffffffffffff\n    /* \"#utility.yul\":404:409   */\n  dup3\n    /* \"#utility.yul\":400:454   */\n  and\n    /* \"#utility.yul\":389:454   */\n  swap1\n  pop\n    /* \"#utility.yul\":334:460   */\n  swap2\n  swap1\n  pop\n  jump\t// out\n    /* \"#utility.yul\":466:562   */\ntag_21:\n    /* \"#utility.yul\":503:510   */\n  0x00\n    /* \"#utility.yul\":532:556   */\n  tag_34\n    /* \"#utility.yul\":550:555   */\n  dup3\n    /* \"#utility.yul\":532:556   */\n  tag_20\n  jump\t// in\ntag_34:\n    /* \"#utility.yul\":521:556   */\n  swap1\n  pop\n    /* \"#utility.yul\":466:562   */\n  swap2\n  swap1\n  pop\n  jump\t// out\n    /* \"#utility.yul\":568:683   */\ntag_22:\n    /* \"#utility.yul\":624:631   */\n  0x00\n    /* \"#utility.yul\":653:677   */\n  tag_36\n    /* \"#utility.yul\":671:676   */\n  dup3\n    /* \"#utility.yul\":653:677   */\n  tag_21\n  jump\t// in\ntag_36:\n    /* \"#utility.yul\":642:677   */\n  swap1\n  pop\n    /* \"#utility.yul\":568:683   */\n  swap2\n  swap1\n  pop\n  jump\t// out\n    /* \"#utility.yul\":689:849   */\ntag_23:\n    /* \"#utility.yul\":781:824   */\n  tag_38\n    /* \"#utility.yul\":818:823   */\n  dup2\n    /* \"#utility.yul\":781:824   */\n  tag_22\n  jump\t// in\ntag_38:\n    /* \"#utility.yul\":774:779   */\n  dup2\n    /* \"#utility.yul\":771:825   */\n  eq\n    /* \"#utility.yul\":761:843   */\n  tag_39\n  jumpi\n    /* \"#utility.yul\":839:840   */\n  0x00\n    /* \"#utility.yul\":836:837   */\n  0x00\n    /* \"#utility.yul\":829:841   */\n  revert\n    /* \"#utility.yul\":761:843   */\ntag_39:\n    /* \"#utility.yul\":689:849   */\n  pop\n  jump\t// out\n    /* \"#utility.yul\":855:1036   */\ntag_24:\n    /* \"#utility.yul\":931:936   */\n  0x00\n    /* \"#utility.yul\":962:968   */\n  dup2\n    /* \"#utility.yul\":956:969   */\n  mload\n    /* \"#utility.yul\":947:969   */\n  swap1\n  pop\n    /* \"#utility.yul\":978:1030   */\n  tag_41\n    /* \"#utility.yul\":1024:1029   */\n  dup2\n    /* \"#utility.yul\":978:1030   */\n  tag_23\n  jump\t// in\ntag_41:\n    /* \"#utility.yul\":855:1036   */\n  swap3\n  swap2\n  pop\n  pop\n  jump\t// out\n    /* \"#utility.yul\":1042:1164   */\ntag_25:\n    /* \"#utility.yul\":1115:1139   */\n  tag_43\n    /* \"#utility.yul\":1133:1138   */\n  dup2\n    /* \"#utility.yul\":1115:1139   */\n  tag_21\n  jump\t// in\ntag_43:\n    /* \"#utility.yul\":1108:1113   */\n  dup2\n    /* \"#utility.yul\":1105:1140   */\n  eq\n    /* \"#utility.yul\":1095:1158   */\n  tag_44\n  jumpi\n    /* \"#utility.yul\":1154:1155   */\n  0x00\n    /* \"#utility.yul\":1151:1152   */\n  0x00\n    /* \"#utility.yul\":1144:1156   */\n  revert\n    /* \"#utility.yul\":1095:1158   */\ntag_44:\n    /* \"#utility.yul\":1042:1164   */\n  pop\n  jump\t// out\n    /* \"#utility.yul\":1170:1313   */\ntag_26:\n    /* \"#utility.yul\":1227:1232   */\n  0x00\n    /* \"#utility.yul\":1258:1264   */\n  dup2\n    /* \"#utility.yul\":1252:1265   */\n  mload\n    /* \"#utility.yul\":1243:1265   */\n  swap1\n  pop\n    /* \"#utility.yul\":1274:1307   */\n  tag_46\n    /* \"#utility.yul\":1301:1306   */\n  dup2\n    /* \"#utility.yul\":1274:1307   */\n  tag_25\n  jump\t// in\ntag_46:\n    /* \"#utility.yul\":1170:1313   */\n  swap3\n  swap2\n  pop\n  pop\n  jump\t// out\n    /* \"#utility.yul\":1319:1864   */\ntag_3:\n    /* \"#utility.yul\":1417:1423   */\n  0x00\n    /* \"#utility.yul\":1425:1431   */\n  0x00\n    /* \"#utility.yul\":1474:1476   */\n  0x40\n    /* \"#utility.yul\":1462:1471   */\n  dup4\n    /* \"#utility.yul\":1453:1460   */\n  dup6\n    /* \"#utility.yul\":1449:1472   */\n  sub\n    /* \"#utility.yul\":1445:1477   */\n  slt\n    /* \"#utility.yul\":1442:1561   */\n  iszero\n  tag_48\n  jumpi\n    /* \"#utility.yul\":1480:1559   */\n  tag_49\n  tag_18\n  jump\t// in\ntag_49:\n    /* \"#utility.yul\":1442:1561   */\ntag_48:\n    /* \"#utility.yul\":1600:1601   */\n  0x00\n    /* \"#utility.yul\":1625:1708   */\n  tag_50\n    /* \"#utility.yul\":1700:1707   */\n  dup6\n    /* \"#utility.yul\":1691:1697   */\n  dup3\n    /* \"#utility.yul\":1680:1689   */\n  dup7\n    /* \"#utility.yul\":1676:1698   */\n  add\n    /* \"#utility.yul\":1625:1708   */\n  tag_24\n  jump\t// in\ntag_50:\n    /* \"#utility.yul\":1615:1708   */\n  swap3\n  pop\n    /* \"#utility.yul\":1571:1718   */\n  pop\n    /* \"#utility.yul\":1757:1759   */\n  0x20\n    /* \"#utility.yul\":1783:1847   */\n  tag_51\n    /* \"#utility.yul\":1839:1846   */\n  dup6\n    /* \"#utility.yul\":1830:1836   */\n  dup3\n    /* \"#utility.yul\":1819:1828   */\n  dup7\n    /* \"#utility.yul\":1815:1837   */\n  add\n    /* \"#utility.yul\":1783:1847   */\n  tag_26\n  jump\t// in\ntag_51:\n    /* \"#utility.yul\":1773:1847   */\n  swap2\n  pop\n    /* \"#utility.yul\":1728:1857   */\n  pop\n    /* \"#utility.yul\":1319:1864   */\n  swap3\n  pop\n  swap3\n  swap1\n  pop\n  jump\t// out\n    /* \"#utility.yul\":1870:1988   */\ntag_27:\n    /* \"#utility.yul\":1957:1981   */\n  tag_53\n    /* \"#utility.yul\":1975:1980   */\n  dup2\n    /* \"#utility.yul\":1957:1981   */\n  tag_21\n  jump\t// in\ntag_53:\n    /* \"#utility.yul\":1952:1955   */\n  dup3\n    /* \"#utility.yul\":1945:1982   */\n  mstore\n    /* \"#utility.yul\":1870:1988   */\n  pop\n  pop\n  jump\t// out\n    /* \"#utility.yul\":1994:2216   */\ntag_11:\n    /* \"#utility.yul\":2087:2091   */\n  0x00\n    /* \"#utility.yul\":2125:2127   */\n  0x20\n    /* \"#utility.yul\":2114:2123   */\n  dup3\n    /* \"#utility.yul\":2110:2128   */\n  add\n    /* \"#utility.yul\":2102:2128   */\n  swap1\n  pop\n    /* \"#utility.yul\":2138:2209   */\n  tag_55\n    /* \"#utility.yul\":2206:2207   */\n  0x00\n    /* \"#utility.yul\":2195:2204   */\n  dup4\n    /* \"#utility.yul\":2191:2208   */\n  add\n    /* \"#utility.yul\":2182:2188   */\n  dup5\n    /* \"#utility.yul\":2138:2209   */\n  tag_27\n  jump\t// in\ntag_55:\n    /* \"#utility.yul\":1994:2216   */\n  swap3\n  swap2\n  pop\n  pop\n  jump\t// out\n    /* \"contracts/SmartPayPaymaster.sol\":153:1259  contract SmartPayPaymaster is CustomBasePaymaster, Ownable {... */\ntag_15:\n  mload(0x80)\n  codecopy(0x00, dataOffset(sub_0), dataSize(sub_0))\n  0x00\n  assignImmutable(\"0x3162021e9b05ce40d88cdbc2e7ffcbde44bff3377e4655bd30398eb60600692d\")\n  return(0x00, dataSize(sub_0))\nstop\n\nsub_0: assembly {\n        /* \"contracts/SmartPayPaymaster.sol\":153:1259  contract SmartPayPaymaster is CustomBasePaymaster, Ownable {... */\n      mstore(0x40, 0x80)\n      jumpi(tag_1, lt(calldatasize, 0x04))\n      shr(0xe0, calldataload(0x00))\n      dup1\n      0xa9a23409\n      gt\n      tag_10\n      jumpi\n      dup1\n      0xa9a23409\n      eq\n      tag_6\n      jumpi\n      dup1\n      0xb0d691fe\n      eq\n      tag_7\n      jumpi\n      dup1\n      0xf2fde38b\n      eq\n      tag_8\n      jumpi\n      dup1\n      0xf465c77e\n      eq\n      tag_9\n      jumpi\n      jump(tag_2)\n    tag_10:\n      dup1\n      0x205c2878\n      eq\n      tag_3\n      jumpi\n      dup1\n      0x715018a6\n      eq\n      tag_4\n      jumpi\n      dup1\n      0x8da5cb5b\n      eq\n      tag_5\n      jumpi\n      jump(tag_2)\n    tag_1:\n      jumpi(tag_2, calldatasize)\n      stop\n    tag_2:\n      revert(0x00, 0x00)\n        /* \"contracts/SmartPayPaymaster.sol\":1076:1257  function withdrawTo(address payable to, uint256 amount) external onlyOwner {... */\n    tag_3:\n      callvalue\n      dup1\n      iszero\n      tag_13\n      jumpi\n      revert(0x00, 0x00)\n    tag_13:\n      pop\n      tag_14\n      0x04\n      dup1\n      calldatasize\n      sub\n      dup2\n      add\n      swap1\n      tag_15\n      swap2\n      swap1\n      tag_16\n      jump\t// in\n    tag_15:\n      tag_17\n      jump\t// in\n    tag_14:\n      stop\n        /* \"@openzeppelin/contracts/access/Ownable.sol\":2293:2394  function renounceOwnership() public virtual onlyOwner {... */\n    tag_4:\n      callvalue\n      dup1\n      iszero\n      tag_18\n      jumpi\n      revert(0x00, 0x00)\n    tag_18:\n      pop\n      tag_19\n      tag_20\n      jump\t// in\n    tag_19:\n      stop\n        /* \"@openzeppelin/contracts/access/Ownable.sol\":1638:1723  function owner() public view virtual returns (address) {... */\n    tag_5:\n      callvalue\n      dup1\n      iszero\n      tag_21\n      jumpi\n      revert(0x00, 0x00)\n    tag_21:\n      pop\n      tag_22\n      tag_23\n      jump\t// in\n    tag_22:\n      mload(0x40)\n      tag_24\n      swap2\n      swap1\n      tag_25\n      jump\t// in\n    tag_24:\n      mload(0x40)\n      dup1\n      swap2\n      sub\n      swap1\n      return\n        /* \"contracts/base/CustomBasePaymaster.sol\":875:1080  function postOp(... */\n    tag_6:\n      callvalue\n      dup1\n      iszero\n      tag_26\n      jumpi\n      revert(0x00, 0x00)\n    tag_26:\n      pop\n      tag_27\n      0x04\n      dup1\n      calldatasize\n      sub\n      dup2\n      add\n      swap1\n      tag_28\n      swap2\n      swap1\n      tag_29\n      jump\t// in\n    tag_28:\n      tag_30\n      jump\t// in\n    tag_27:\n      stop\n        /* \"contracts/base/CustomBasePaymaster.sol\":322:361  IEntryPoint public immutable entryPoint */\n    tag_7:\n      callvalue\n      dup1\n      iszero\n      tag_31\n      jumpi\n      revert(0x00, 0x00)\n    tag_31:\n      pop\n      tag_32\n      tag_33\n      jump\t// in\n    tag_32:\n      mload(0x40)\n      tag_34\n      swap2\n      swap1\n      tag_35\n      jump\t// in\n    tag_34:\n      mload(0x40)\n      dup1\n      swap2\n      sub\n      swap1\n      return\n        /* \"@openzeppelin/contracts/access/Ownable.sol\":2543:2758  function transferOwnership(address newOwner) public virtual onlyOwner {... */\n    tag_8:\n      callvalue\n      dup1\n      iszero\n      tag_36\n      jumpi\n      revert(0x00, 0x00)\n    tag_36:\n      pop\n      tag_37\n      0x04\n      dup1\n      calldatasize\n      sub\n      dup2\n      add\n      swap1\n      tag_38\n      swap2\n      swap1\n      tag_39\n      jump\t// in\n    tag_38:\n      tag_40\n      jump\t// in\n    tag_37:\n      stop\n        /* \"contracts/base/CustomBasePaymaster.sol\":573:869  function validatePaymasterUserOp(... */\n    tag_9:\n      callvalue\n      dup1\n      iszero\n      tag_41\n      jumpi\n      revert(0x00, 0x00)\n    tag_41:\n      pop\n      tag_42\n      0x04\n      dup1\n      calldatasize\n      sub\n      dup2\n      add\n      swap1\n      tag_43\n      swap2\n      swap1\n      tag_44\n      jump\t// in\n    tag_43:\n      tag_45\n      jump\t// in\n    tag_42:\n      mload(0x40)\n      tag_46\n      swap3\n      swap2\n      swap1\n      tag_47\n      jump\t// in\n    tag_46:\n      mload(0x40)\n      dup1\n      swap2\n      sub\n      swap1\n      return\n        /* \"contracts/SmartPayPaymaster.sol\":1076:1257  function withdrawTo(address payable to, uint256 amount) external onlyOwner {... */\n    tag_17:\n        /* \"@openzeppelin/contracts/access/Ownable.sol\":1531:1544  _checkOwner() */\n      tag_49\n        /* \"@openzeppelin/contracts/access/Ownable.sol\":1531:1542  _checkOwner */\n      tag_50\n        /* \"@openzeppelin/contracts/access/Ownable.sol\":1531:1544  _checkOwner() */\n      jump\t// in\n    tag_49:\n        /* \"contracts/SmartPayPaymaster.sol\":1162:1174  bool success */\n      0x00\n        /* \"contracts/SmartPayPaymaster.sol\":1179:1181  to */\n      dup3\n        /* \"contracts/SmartPayPaymaster.sol\":1179:1186  to.call */\n      0xffffffffffffffffffffffffffffffffffffffff\n      and\n        /* \"contracts/SmartPayPaymaster.sol\":1194:1200  amount */\n      dup3\n        /* \"contracts/SmartPayPaymaster.sol\":1179:1205  to.call{value: amount}(\"\") */\n      mload(0x40)\n      tag_52\n      swap1\n      tag_53\n      jump\t// in\n    tag_52:\n      0x00\n      mload(0x40)\n      dup1\n      dup4\n      sub\n      dup2\n      dup6\n      dup8\n      gas\n      call\n      swap3\n      pop\n      pop\n      pop\n      returndatasize\n      dup1\n      0x00\n      dup2\n      eq\n      tag_56\n      jumpi\n      mload(0x40)\n      swap2\n      pop\n      and(add(returndatasize, 0x3f), not(0x1f))\n      dup3\n      add\n      0x40\n      mstore\n      returndatasize\n      dup3\n      mstore\n      returndatasize\n      0x00\n      0x20\n      dup5\n      add\n      returndatacopy\n      jump(tag_55)\n    tag_56:\n      0x60\n      swap2\n      pop\n    tag_55:\n      pop\n        /* \"contracts/SmartPayPaymaster.sol\":1161:1205  (bool success,) = to.call{value: amount}(\"\") */\n      pop\n      swap1\n      pop\n        /* \"contracts/SmartPayPaymaster.sol\":1223:1230  success */\n      dup1\n        /* \"contracts/SmartPayPaymaster.sol\":1215:1250  require(success, \"Withdraw failed\") */\n      tag_57\n      jumpi\n      mload(0x40)\n      0x08c379a000000000000000000000000000000000000000000000000000000000\n      dup2\n      mstore\n      0x04\n      add\n      tag_58\n      swap1\n      tag_59\n      jump\t// in\n    tag_58:\n      mload(0x40)\n      dup1\n      swap2\n      sub\n      swap1\n      revert\n    tag_57:\n        /* \"contracts/SmartPayPaymaster.sol\":1151:1257  {... */\n      pop\n        /* \"contracts/SmartPayPaymaster.sol\":1076:1257  function withdrawTo(address payable to, uint256 amount) external onlyOwner {... */\n      pop\n      pop\n      jump\t// out\n        /* \"@openzeppelin/contracts/access/Ownable.sol\":2293:2394  function renounceOwnership() public virtual onlyOwner {... */\n    tag_20:\n        /* \"@openzeppelin/contracts/access/Ownable.sol\":1531:1544  _checkOwner() */\n      tag_61\n        /* \"@openzeppelin/contracts/access/Ownable.sol\":1531:1542  _checkOwner */\n      tag_50\n        /* \"@openzeppelin/contracts/access/Ownable.sol\":1531:1544  _checkOwner() */\n      jump\t// in\n    tag_61:\n        /* \"@openzeppelin/contracts/access/Ownable.sol\":2357:2387  _transferOwnership(address(0)) */\n      tag_63\n        /* \"@openzeppelin/contracts/access/Ownable.sol\":2384:2385  0 */\n      0x00\n        /* \"@openzeppelin/contracts/access/Ownable.sol\":2357:2375  _transferOwnership */\n      tag_64\n        /* \"@openzeppelin/contracts/access/Ownable.sol\":2357:2387  _transferOwnership(address(0)) */\n      jump\t// in\n    tag_63:\n        /* \"@openzeppelin/contracts/access/Ownable.sol\":2293:2394  function renounceOwnership() public virtual onlyOwner {... */\n      jump\t// out\n        /* \"@openzeppelin/contracts/access/Ownable.sol\":1638:1723  function owner() public view virtual returns (address) {... */\n    tag_23:\n        /* \"@openzeppelin/contracts/access/Ownable.sol\":1684:1691  address */\n      0x00\n        /* \"@openzeppelin/contracts/access/Ownable.sol\":1710:1716  _owner */\n      0x00\n      0x00\n      swap1\n      sload\n      swap1\n      0x0100\n      exp\n      swap1\n      div\n      0xffffffffffffffffffffffffffffffffffffffff\n      and\n        /* \"@openzeppelin/contracts/access/Ownable.sol\":1703:1716  return _owner */\n      swap1\n      pop\n        /* \"@openzeppelin/contracts/access/Ownable.sol\":1638:1723  function owner() public view virtual returns (address) {... */\n      swap1\n      jump\t// out\n        /* \"contracts/base/CustomBasePaymaster.sol\":875:1080  function postOp(... */\n    tag_30:\n        /* \"contracts/base/CustomBasePaymaster.sol\":518:528  entryPoint */\n      immutable(\"0x3162021e9b05ce40d88cdbc2e7ffcbde44bff3377e4655bd30398eb60600692d\")\n        /* \"contracts/base/CustomBasePaymaster.sol\":496:529  msg.sender == address(entryPoint) */\n      0xffffffffffffffffffffffffffffffffffffffff\n      and\n        /* \"contracts/base/CustomBasePaymaster.sol\":496:506  msg.sender */\n      caller\n        /* \"contracts/base/CustomBasePaymaster.sol\":496:529  msg.sender == address(entryPoint) */\n      0xffffffffffffffffffffffffffffffffffffffff\n      and\n      eq\n        /* \"contracts/base/CustomBasePaymaster.sol\":488:549  require(msg.sender == address(entryPoint), \"Only EntryPoint\") */\n      tag_67\n      jumpi\n      mload(0x40)\n      0x08c379a000000000000000000000000000000000000000000000000000000000\n      dup2\n      mstore\n      0x04\n      add\n      tag_68\n      swap1\n      tag_69\n      jump\t// in\n    tag_68:\n      mload(0x40)\n      dup1\n      swap2\n      sub\n      swap1\n      revert\n    tag_67:\n        /* \"contracts/base/CustomBasePaymaster.sol\":1036:1073  _postOp(mode, context, actualGasCost) */\n      tag_71\n        /* \"contracts/base/CustomBasePaymaster.sol\":1044:1048  mode */\n      dup5\n        /* \"contracts/base/CustomBasePaymaster.sol\":1050:1057  context */\n      dup5\n      dup5\n        /* \"contracts/base/CustomBasePaymaster.sol\":1059:1072  actualGasCost */\n      dup5\n        /* \"contracts/base/CustomBasePaymaster.sol\":1036:1043  _postOp */\n      tag_72\n        /* \"contracts/base/CustomBasePaymaster.sol\":1036:1073  _postOp(mode, context, actualGasCost) */\n      jump\t// in\n    tag_71:\n        /* \"contracts/base/CustomBasePaymaster.sol\":875:1080  function postOp(... */\n      pop\n      pop\n      pop\n      pop\n      jump\t// out\n        /* \"contracts/base/CustomBasePaymaster.sol\":322:361  IEntryPoint public immutable entryPoint */\n    tag_33:\n      immutable(\"0x3162021e9b05ce40d88cdbc2e7ffcbde44bff3377e4655bd30398eb60600692d\")\n      dup2\n      jump\t// out\n        /* \"@openzeppelin/contracts/access/Ownable.sol\":2543:2758  function transferOwnership(address newOwner) public virtual onlyOwner {... */\n    tag_40:\n        /* \"@openzeppelin/contracts/access/Ownable.sol\":1531:1544  _checkOwner() */\n      tag_74\n        /* \"@openzeppelin/contracts/access/Ownable.sol\":1531:1542  _checkOwner */\n      tag_50\n        /* \"@openzeppelin/contracts/access/Ownable.sol\":1531:1544  _checkOwner() */\n      jump\t// in\n    tag_74:\n        /* \"@openzeppelin/contracts/access/Ownable.sol\":2647:2648  0 */\n      0x00\n        /* \"@openzeppelin/contracts/access/Ownable.sol\":2627:2649  newOwner == address(0) */\n      0xffffffffffffffffffffffffffffffffffffffff\n      and\n        /* \"@openzeppelin/contracts/access/Ownable.sol\":2627:2635  newOwner */\n      dup2\n        /* \"@openzeppelin/contracts/access/Ownable.sol\":2627:2649  newOwner == address(0) */\n      0xffffffffffffffffffffffffffffffffffffffff\n      and\n      sub\n        /* \"@openzeppelin/contracts/access/Ownable.sol\":2623:2714  if (newOwner == address(0)) {... */\n      tag_76\n      jumpi\n        /* \"@openzeppelin/contracts/access/Ownable.sol\":2700:2701  0 */\n      0x00\n        /* \"@openzeppelin/contracts/access/Ownable.sol\":2672:2703  OwnableInvalidOwner(address(0)) */\n      mload(0x40)\n      0x1e4fbdf700000000000000000000000000000000000000000000000000000000\n      dup2\n      mstore\n      0x04\n      add\n      tag_77\n      swap2\n      swap1\n      tag_25\n      jump\t// in\n    tag_77:\n      mload(0x40)\n      dup1\n      swap2\n      sub\n      swap1\n      revert\n        /* \"@openzeppelin/contracts/access/Ownable.sol\":2623:2714  if (newOwner == address(0)) {... */\n    tag_76:\n        /* \"@openzeppelin/contracts/access/Ownable.sol\":2723:2751  _transferOwnership(newOwner) */\n      tag_78\n        /* \"@openzeppelin/contracts/access/Ownable.sol\":2742:2750  newOwner */\n      dup2\n        /* \"@openzeppelin/contracts/access/Ownable.sol\":2723:2741  _transferOwnership */\n      tag_64\n        /* \"@openzeppelin/contracts/access/Ownable.sol\":2723:2751  _transferOwnership(newOwner) */\n      jump\t// in\n    tag_78:\n        /* \"@openzeppelin/contracts/access/Ownable.sol\":2543:2758  function transferOwnership(address newOwner) public virtual onlyOwner {... */\n      pop\n      jump\t// out\n        /* \"contracts/base/CustomBasePaymaster.sol\":573:869  function validatePaymasterUserOp(... */\n    tag_45:\n        /* \"contracts/base/CustomBasePaymaster.sol\":746:766  bytes memory context */\n      0x60\n        /* \"contracts/base/CustomBasePaymaster.sol\":768:790  uint256 validationData */\n      0x00\n        /* \"contracts/base/CustomBasePaymaster.sol\":518:528  entryPoint */\n      immutable(\"0x3162021e9b05ce40d88cdbc2e7ffcbde44bff3377e4655bd30398eb60600692d\")\n        /* \"contracts/base/CustomBasePaymaster.sol\":496:529  msg.sender == address(entryPoint) */\n      0xffffffffffffffffffffffffffffffffffffffff\n      and\n        /* \"contracts/base/CustomBasePaymaster.sol\":496:506  msg.sender */\n      caller\n        /* \"contracts/base/CustomBasePaymaster.sol\":496:529  msg.sender == address(entryPoint) */\n      0xffffffffffffffffffffffffffffffffffffffff\n      and\n      eq\n        /* \"contracts/base/CustomBasePaymaster.sol\":488:549  require(msg.sender == address(entryPoint), \"Only EntryPoint\") */\n      tag_80\n      jumpi\n      mload(0x40)\n      0x08c379a000000000000000000000000000000000000000000000000000000000\n      dup2\n      mstore\n      0x04\n      add\n      tag_81\n      swap1\n      tag_69\n      jump\t// in\n    tag_81:\n      mload(0x40)\n      dup1\n      swap2\n      sub\n      swap1\n      revert\n    tag_80:\n        /* \"contracts/base/CustomBasePaymaster.sol\":809:862  _validatePaymasterUserOp(userOp, userOpHash, maxCost) */\n      tag_83\n        /* \"contracts/base/CustomBasePaymaster.sol\":834:840  userOp */\n      dup6\n        /* \"contracts/base/CustomBasePaymaster.sol\":842:852  userOpHash */\n      dup6\n        /* \"contracts/base/CustomBasePaymaster.sol\":854:861  maxCost */\n      dup6\n        /* \"contracts/base/CustomBasePaymaster.sol\":809:833  _validatePaymasterUserOp */\n      tag_84\n        /* \"contracts/base/CustomBasePaymaster.sol\":809:862  _validatePaymasterUserOp(userOp, userOpHash, maxCost) */\n      jump\t// in\n    tag_83:\n        /* \"contracts/base/CustomBasePaymaster.sol\":802:862  return _validatePaymasterUserOp(userOp, userOpHash, maxCost) */\n      swap2\n      pop\n      swap2\n      pop\n        /* \"contracts/base/CustomBasePaymaster.sol\":573:869  function validatePaymasterUserOp(... */\n      swap4\n      pop\n      swap4\n      swap2\n      pop\n      pop\n      jump\t// out\n        /* \"@openzeppelin/contracts/access/Ownable.sol\":1796:1958  function _checkOwner() internal view virtual {... */\n    tag_50:\n        /* \"@openzeppelin/contracts/access/Ownable.sol\":1866:1878  _msgSender() */\n      tag_86\n        /* \"@openzeppelin/contracts/access/Ownable.sol\":1866:1876  _msgSender */\n      tag_87\n        /* \"@openzeppelin/contracts/access/Ownable.sol\":1866:1878  _msgSender() */\n      jump\t// in\n    tag_86:\n        /* \"@openzeppelin/contracts/access/Ownable.sol\":1855:1878  owner() != _msgSender() */\n      0xffffffffffffffffffffffffffffffffffffffff\n      and\n        /* \"@openzeppelin/contracts/access/Ownable.sol\":1855:1862  owner() */\n      tag_88\n        /* \"@openzeppelin/contracts/access/Ownable.sol\":1855:1860  owner */\n      tag_23\n        /* \"@openzeppelin/contracts/access/Ownable.sol\":1855:1862  owner() */\n      jump\t// in\n    tag_88:\n        /* \"@openzeppelin/contracts/access/Ownable.sol\":1855:1878  owner() != _msgSender() */\n      0xffffffffffffffffffffffffffffffffffffffff\n      and\n      eq\n        /* \"@openzeppelin/contracts/access/Ownable.sol\":1851:1952  if (owner() != _msgSender()) {... */\n      tag_89\n      jumpi\n        /* \"@openzeppelin/contracts/access/Ownable.sol\":1928:1940  _msgSender() */\n      tag_90\n        /* \"@openzeppelin/contracts/access/Ownable.sol\":1928:1938  _msgSender */\n      tag_87\n        /* \"@openzeppelin/contracts/access/Ownable.sol\":1928:1940  _msgSender() */\n      jump\t// in\n    tag_90:\n        /* \"@openzeppelin/contracts/access/Ownable.sol\":1901:1941  OwnableUnauthorizedAccount(_msgSender()) */\n      mload(0x40)\n      0x118cdaa700000000000000000000000000000000000000000000000000000000\n      dup2\n      mstore\n      0x04\n      add\n      tag_91\n      swap2\n      swap1\n      tag_25\n      jump\t// in\n    tag_91:\n      mload(0x40)\n      dup1\n      swap2\n      sub\n      swap1\n      revert\n        /* \"@openzeppelin/contracts/access/Ownable.sol\":1851:1952  if (owner() != _msgSender()) {... */\n    tag_89:\n        /* \"@openzeppelin/contracts/access/Ownable.sol\":1796:1958  function _checkOwner() internal view virtual {... */\n      jump\t// out\n        /* \"@openzeppelin/contracts/access/Ownable.sol\":2912:3099  function _transferOwnership(address newOwner) internal virtual {... */\n    tag_64:\n        /* \"@openzeppelin/contracts/access/Ownable.sol\":2985:3001  address oldOwner */\n      0x00\n        /* \"@openzeppelin/contracts/access/Ownable.sol\":3004:3010  _owner */\n      0x00\n      0x00\n      swap1\n      sload\n      swap1\n      0x0100\n      exp\n      swap1\n      div\n      0xffffffffffffffffffffffffffffffffffffffff\n      and\n        /* \"@openzeppelin/contracts/access/Ownable.sol\":2985:3010  address oldOwner = _owner */\n      swap1\n      pop\n        /* \"@openzeppelin/contracts/access/Ownable.sol\":3029:3037  newOwner */\n      dup2\n        /* \"@openzeppelin/contracts/access/Ownable.sol\":3020:3026  _owner */\n      0x00\n      0x00\n        /* \"@openzeppelin/contracts/access/Ownable.sol\":3020:3037  _owner = newOwner */\n      0x0100\n      exp\n      dup2\n      sload\n      dup2\n      0xffffffffffffffffffffffffffffffffffffffff\n      mul\n      not\n      and\n      swap1\n      dup4\n      0xffffffffffffffffffffffffffffffffffffffff\n      and\n      mul\n      or\n      swap1\n      sstore\n      pop\n        /* \"@openzeppelin/contracts/access/Ownable.sol\":3083:3091  newOwner */\n      dup2\n        /* \"@openzeppelin/contracts/access/Ownable.sol\":3052:3092  OwnershipTransferred(oldOwner, newOwner) */\n      0xffffffffffffffffffffffffffffffffffffffff\n      and\n        /* \"@openzeppelin/contracts/access/Ownable.sol\":3073:3081  oldOwner */\n      dup2\n        /* \"@openzeppelin/contracts/access/Ownable.sol\":3052:3092  OwnershipTransferred(oldOwner, newOwner) */\n      0xffffffffffffffffffffffffffffffffffffffff\n      and\n      0x8be0079c531659141344cd1fd0a4f28419497f9722a3daafe3b4186f6b6457e0\n      mload(0x40)\n      mload(0x40)\n      dup1\n      swap2\n      sub\n      swap1\n      log3\n        /* \"@openzeppelin/contracts/access/Ownable.sol\":2975:3099  {... */\n      pop\n        /* \"@openzeppelin/contracts/access/Ownable.sol\":2912:3099  function _transferOwnership(address newOwner) internal virtual {... */\n      pop\n      jump\t// out\n        /* \"contracts/SmartPayPaymaster.sol\":815:1070  function _postOp(... */\n    tag_72:\n        /* \"contracts/SmartPayPaymaster.sol\":949:963  address sender */\n      0x00\n        /* \"contracts/SmartPayPaymaster.sol\":977:984  context */\n      dup4\n      dup4\n        /* \"contracts/SmartPayPaymaster.sol\":966:996  abi.decode(context, (address)) */\n      dup2\n      add\n      swap1\n      tag_94\n      swap2\n      swap1\n      tag_95\n      jump\t// in\n    tag_94:\n        /* \"contracts/SmartPayPaymaster.sol\":949:996  address sender = abi.decode(context, (address)) */\n      swap1\n      pop\n        /* \"contracts/SmartPayPaymaster.sol\":1024:1030  sender */\n      dup1\n        /* \"contracts/SmartPayPaymaster.sol\":1011:1063  GasSponsored(sender, actualGasCost, block.timestamp) */\n      0xffffffffffffffffffffffffffffffffffffffff\n      and\n      0xb3d8da13e2eec10930982ae94cc39cd56a1e686b864a50f632765647bdfe622b\n        /* \"contracts/SmartPayPaymaster.sol\":1032:1045  actualGasCost */\n      dup4\n        /* \"contracts/SmartPayPaymaster.sol\":1047:1062  block.timestamp */\n      timestamp\n        /* \"contracts/SmartPayPaymaster.sol\":1011:1063  GasSponsored(sender, actualGasCost, block.timestamp) */\n      mload(0x40)\n      tag_96\n      swap3\n      swap2\n      swap1\n      tag_97\n      jump\t// in\n    tag_96:\n      mload(0x40)\n      dup1\n      swap2\n      sub\n      swap1\n      log2\n        /* \"contracts/SmartPayPaymaster.sol\":939:1070  {... */\n      pop\n        /* \"contracts/SmartPayPaymaster.sol\":815:1070  function _postOp(... */\n      pop\n      pop\n      pop\n      pop\n      jump\t// out\n        /* \"contracts/SmartPayPaymaster.sol\":472:809  function _validatePaymasterUserOp(... */\n    tag_84:\n        /* \"contracts/SmartPayPaymaster.sol\":617:637  bytes memory context */\n      0x60\n        /* \"contracts/SmartPayPaymaster.sol\":639:661  uint256 validationData */\n      0x00\n        /* \"contracts/SmartPayPaymaster.sol\":784:790  userOp */\n      dup5\n        /* \"contracts/SmartPayPaymaster.sol\":784:797  userOp.sender */\n      0x00\n      add\n      0x20\n      dup2\n      add\n      swap1\n      tag_99\n      swap2\n      swap1\n      tag_39\n      jump\t// in\n    tag_99:\n        /* \"contracts/SmartPayPaymaster.sol\":773:798  abi.encode(userOp.sender) */\n      add(0x20, mload(0x40))\n      tag_100\n      swap2\n      swap1\n      tag_25\n      jump\t// in\n    tag_100:\n      mload(0x40)\n      0x20\n      dup2\n      dup4\n      sub\n      sub\n      dup2\n      mstore\n      swap1\n      0x40\n      mstore\n        /* \"contracts/SmartPayPaymaster.sol\":800:801  0 */\n      0x00\n        /* \"contracts/SmartPayPaymaster.sol\":765:802  return (abi.encode(userOp.sender), 0) */\n      swap2\n      pop\n      swap2\n      pop\n        /* \"contracts/SmartPayPaymaster.sol\":472:809  function _validatePaymasterUserOp(... */\n      swap4\n      pop\n      swap4\n      swap2\n      pop\n      pop\n      jump\t// out\n        /* \"@openzeppelin/contracts/utils/Context.sol\":656:752  function _msgSender() internal view virtual returns (address) {... */\n    tag_87:\n        /* \"@openzeppelin/contracts/utils/Context.sol\":709:716  address */\n      0x00\n        /* \"@openzeppelin/contracts/utils/Context.sol\":735:745  msg.sender */\n      caller\n        /* \"@openzeppelin/contracts/utils/Context.sol\":728:745  return msg.sender */\n      swap1\n      pop\n        /* \"@openzeppelin/contracts/utils/Context.sol\":656:752  function _msgSender() internal view virtual returns (address) {... */\n      swap1\n      jump\t// out\n        /* \"#utility.yul\":88:205   */\n    tag_103:\n        /* \"#utility.yul\":197:198   */\n      0x00\n        /* \"#utility.yul\":194:195   */\n      0x00\n        /* \"#utility.yul\":187:199   */\n      revert\n        /* \"#utility.yul\":211:328   */\n    tag_104:\n        /* \"#utility.yul\":320:321   */\n      0x00\n        /* \"#utility.yul\":317:318   */\n      0x00\n        /* \"#utility.yul\":310:322   */\n      revert\n        /* \"#utility.yul\":334:460   */\n    tag_105:\n        /* \"#utility.yul\":371:378   */\n      0x00\n        /* \"#utility.yul\":411:453   */\n      0xffffffffffffffffffffffffffffffffffffffff\n        /* \"#utility.yul\":404:409   */\n      dup3\n        /* \"#utility.yul\":400:454   */\n      and\n        /* \"#utility.yul\":389:454   */\n      swap1\n      pop\n        /* \"#utility.yul\":334:460   */\n      swap2\n      swap1\n      pop\n      jump\t// out\n        /* \"#utility.yul\":466:570   */\n    tag_106:\n        /* \"#utility.yul\":511:518   */\n      0x00\n        /* \"#utility.yul\":540:564   */\n      tag_152\n        /* \"#utility.yul\":558:563   */\n      dup3\n        /* \"#utility.yul\":540:564   */\n      tag_105\n      jump\t// in\n    tag_152:\n        /* \"#utility.yul\":529:564   */\n      swap1\n      pop\n        /* \"#utility.yul\":466:570   */\n      swap2\n      swap1\n      pop\n      jump\t// out\n        /* \"#utility.yul\":576:714   */\n    tag_107:\n        /* \"#utility.yul\":657:689   */\n      tag_154\n        /* \"#utility.yul\":683:688   */\n      dup2\n        /* \"#utility.yul\":657:689   */\n      tag_106\n      jump\t// in\n    tag_154:\n        /* \"#utility.yul\":650:655   */\n      dup2\n        /* \"#utility.yul\":647:690   */\n      eq\n        /* \"#utility.yul\":637:708   */\n      tag_155\n      jumpi\n        /* \"#utility.yul\":704:705   */\n      0x00\n        /* \"#utility.yul\":701:702   */\n      0x00\n        /* \"#utility.yul\":694:706   */\n      revert\n        /* \"#utility.yul\":637:708   */\n    tag_155:\n        /* \"#utility.yul\":576:714   */\n      pop\n      jump\t// out\n        /* \"#utility.yul\":720:875   */\n    tag_108:\n        /* \"#utility.yul\":774:779   */\n      0x00\n        /* \"#utility.yul\":812:818   */\n      dup2\n        /* \"#utility.yul\":799:819   */\n      calldataload\n        /* \"#utility.yul\":790:819   */\n      swap1\n      pop\n        /* \"#utility.yul\":828:869   */\n      tag_157\n        /* \"#utility.yul\":863:868   */\n      dup2\n        /* \"#utility.yul\":828:869   */\n      tag_107\n      jump\t// in\n    tag_157:\n        /* \"#utility.yul\":720:875   */\n      swap3\n      swap2\n      pop\n      pop\n      jump\t// out\n        /* \"#utility.yul\":881:958   */\n    tag_109:\n        /* \"#utility.yul\":918:925   */\n      0x00\n        /* \"#utility.yul\":947:952   */\n      dup2\n        /* \"#utility.yul\":936:952   */\n      swap1\n      pop\n        /* \"#utility.yul\":881:958   */\n      swap2\n      swap1\n      pop\n      jump\t// out\n        /* \"#utility.yul\":964:1086   */\n    tag_110:\n        /* \"#utility.yul\":1037:1061   */\n      tag_160\n        /* \"#utility.yul\":1055:1060   */\n      dup2\n        /* \"#utility.yul\":1037:1061   */\n      tag_109\n      jump\t// in\n    tag_160:\n        /* \"#utility.yul\":1030:1035   */\n      dup2\n        /* \"#utility.yul\":1027:1062   */\n      eq\n        /* \"#utility.yul\":1017:1080   */\n      tag_161\n      jumpi\n        /* \"#utility.yul\":1076:1077   */\n      0x00\n        /* \"#utility.yul\":1073:1074   */\n      0x00\n        /* \"#utility.yul\":1066:1078   */\n      revert\n        /* \"#utility.yul\":1017:1080   */\n    tag_161:\n        /* \"#utility.yul\":964:1086   */\n      pop\n      jump\t// out\n        /* \"#utility.yul\":1092:1231   */\n    tag_111:\n        /* \"#utility.yul\":1138:1143   */\n      0x00\n        /* \"#utility.yul\":1176:1182   */\n      dup2\n        /* \"#utility.yul\":1163:1183   */\n      calldataload\n        /* \"#utility.yul\":1154:1183   */\n      swap1\n      pop\n        /* \"#utility.yul\":1192:1225   */\n      tag_163\n        /* \"#utility.yul\":1219:1224   */\n      dup2\n        /* \"#utility.yul\":1192:1225   */\n      tag_110\n      jump\t// in\n    tag_163:\n        /* \"#utility.yul\":1092:1231   */\n      swap3\n      swap2\n      pop\n      pop\n      jump\t// out\n        /* \"#utility.yul\":1237:1727   */\n    tag_16:\n        /* \"#utility.yul\":1313:1319   */\n      0x00\n        /* \"#utility.yul\":1321:1327   */\n      0x00\n        /* \"#utility.yul\":1370:1372   */\n      0x40\n        /* \"#utility.yul\":1358:1367   */\n      dup4\n        /* \"#utility.yul\":1349:1356   */\n      dup6\n        /* \"#utility.yul\":1345:1368   */\n      sub\n        /* \"#utility.yul\":1341:1373   */\n      slt\n        /* \"#utility.yul\":1338:1457   */\n      iszero\n      tag_165\n      jumpi\n        /* \"#utility.yul\":1376:1455   */\n      tag_166\n      tag_103\n      jump\t// in\n    tag_166:\n        /* \"#utility.yul\":1338:1457   */\n    tag_165:\n        /* \"#utility.yul\":1496:1497   */\n      0x00\n        /* \"#utility.yul\":1521:1582   */\n      tag_167\n        /* \"#utility.yul\":1574:1581   */\n      dup6\n        /* \"#utility.yul\":1565:1571   */\n      dup3\n        /* \"#utility.yul\":1554:1563   */\n      dup7\n        /* \"#utility.yul\":1550:1572   */\n      add\n        /* \"#utility.yul\":1521:1582   */\n      tag_108\n      jump\t// in\n    tag_167:\n        /* \"#utility.yul\":1511:1582   */\n      swap3\n      pop\n        /* \"#utility.yul\":1467:1592   */\n      pop\n        /* \"#utility.yul\":1631:1633   */\n      0x20\n        /* \"#utility.yul\":1657:1710   */\n      tag_168\n        /* \"#utility.yul\":1702:1709   */\n      dup6\n        /* \"#utility.yul\":1693:1699   */\n      dup3\n        /* \"#utility.yul\":1682:1691   */\n      dup7\n        /* \"#utility.yul\":1678:1700   */\n      add\n        /* \"#utility.yul\":1657:1710   */\n      tag_111\n      jump\t// in\n    tag_168:\n        /* \"#utility.yul\":1647:1710   */\n      swap2\n      pop\n        /* \"#utility.yul\":1602:1720   */\n      pop\n        /* \"#utility.yul\":1237:1727   */\n      swap3\n      pop\n      swap3\n      swap1\n      pop\n      jump\t// out\n        /* \"#utility.yul\":1733:1829   */\n    tag_112:\n        /* \"#utility.yul\":1770:1777   */\n      0x00\n        /* \"#utility.yul\":1799:1823   */\n      tag_170\n        /* \"#utility.yul\":1817:1822   */\n      dup3\n        /* \"#utility.yul\":1799:1823   */\n      tag_105\n      jump\t// in\n    tag_170:\n        /* \"#utility.yul\":1788:1823   */\n      swap1\n      pop\n        /* \"#utility.yul\":1733:1829   */\n      swap2\n      swap1\n      pop\n      jump\t// out\n        /* \"#utility.yul\":1835:1953   */\n    tag_113:\n        /* \"#utility.yul\":1922:1946   */\n      tag_172\n        /* \"#utility.yul\":1940:1945   */\n      dup2\n        /* \"#utility.yul\":1922:1946   */\n      tag_112\n      jump\t// in\n    tag_172:\n        /* \"#utility.yul\":1917:1920   */\n      dup3\n        /* \"#utility.yul\":1910:1947   */\n      mstore\n        /* \"#utility.yul\":1835:1953   */\n      pop\n      pop\n      jump\t// out\n        /* \"#utility.yul\":1959:2181   */\n    tag_25:\n        /* \"#utility.yul\":2052:2056   */\n      0x00\n        /* \"#utility.yul\":2090:2092   */\n      0x20\n        /* \"#utility.yul\":2079:2088   */\n      dup3\n        /* \"#utility.yul\":2075:2093   */\n      add\n        /* \"#utility.yul\":2067:2093   */\n      swap1\n      pop\n        /* \"#utility.yul\":2103:2174   */\n      tag_174\n        /* \"#utility.yul\":2171:2172   */\n      0x00\n        /* \"#utility.yul\":2160:2169   */\n      dup4\n        /* \"#utility.yul\":2156:2173   */\n      add\n        /* \"#utility.yul\":2147:2153   */\n      dup5\n        /* \"#utility.yul\":2103:2174   */\n      tag_113\n      jump\t// in\n    tag_174:\n        /* \"#utility.yul\":1959:2181   */\n      swap3\n      swap2\n      pop\n      pop\n      jump\t// out\n        /* \"#utility.yul\":2187:2300   */\n    tag_114:\n        /* \"#utility.yul\":2274:2275   */\n      0x03\n        /* \"#utility.yul\":2267:2272   */\n      dup2\n        /* \"#utility.yul\":2264:2276   */\n      lt\n        /* \"#utility.yul\":2254:2294   */\n      tag_176\n      jumpi\n        /* \"#utility.yul\":2290:2291   */\n      0x00\n        /* \"#utility.yul\":2287:2288   */\n      0x00\n        /* \"#utility.yul\":2280:2292   */\n      revert\n        /* \"#utility.yul\":2254:2294   */\n    tag_176:\n        /* \"#utility.yul\":2187:2300   */\n      pop\n      jump\t// out\n        /* \"#utility.yul\":2306:2473   */\n    tag_115:\n        /* \"#utility.yul\":2366:2371   */\n      0x00\n        /* \"#utility.yul\":2404:2410   */\n      dup2\n        /* \"#utility.yul\":2391:2411   */\n      calldataload\n        /* \"#utility.yul\":2382:2411   */\n      swap1\n      pop\n        /* \"#utility.yul\":2420:2467   */\n      tag_178\n        /* \"#utility.yul\":2461:2466   */\n      dup2\n        /* \"#utility.yul\":2420:2467   */\n      tag_114\n      jump\t// in\n    tag_178:\n        /* \"#utility.yul\":2306:2473   */\n      swap3\n      swap2\n      pop\n      pop\n      jump\t// out\n        /* \"#utility.yul\":2479:2596   */\n    tag_116:\n        /* \"#utility.yul\":2588:2589   */\n      0x00\n        /* \"#utility.yul\":2585:2586   */\n      0x00\n        /* \"#utility.yul\":2578:2590   */\n      revert\n        /* \"#utility.yul\":2602:2719   */\n    tag_117:\n        /* \"#utility.yul\":2711:2712   */\n      0x00\n        /* \"#utility.yul\":2708:2709   */\n      0x00\n        /* \"#utility.yul\":2701:2713   */\n      revert\n        /* \"#utility.yul\":2725:2842   */\n    tag_118:\n        /* \"#utility.yul\":2834:2835   */\n      0x00\n        /* \"#utility.yul\":2831:2832   */\n      0x00\n        /* \"#utility.yul\":2824:2836   */\n      revert\n        /* \"#utility.yul\":2861:3413   */\n    tag_119:\n        /* \"#utility.yul\":2918:2926   */\n      0x00\n        /* \"#utility.yul\":2928:2934   */\n      0x00\n        /* \"#utility.yul\":2978:2981   */\n      dup4\n        /* \"#utility.yul\":2971:2975   */\n      0x1f\n        /* \"#utility.yul\":2963:2969   */\n      dup5\n        /* \"#utility.yul\":2959:2976   */\n      add\n        /* \"#utility.yul\":2955:2982   */\n      slt\n        /* \"#utility.yul\":2945:3067   */\n      tag_183\n      jumpi\n        /* \"#utility.yul\":2986:3065   */\n      tag_184\n      tag_116\n      jump\t// in\n    tag_184:\n        /* \"#utility.yul\":2945:3067   */\n    tag_183:\n        /* \"#utility.yul\":3099:3105   */\n      dup3\n        /* \"#utility.yul\":3086:3106   */\n      calldataload\n        /* \"#utility.yul\":3076:3106   */\n      swap1\n      pop\n        /* \"#utility.yul\":3129:3147   */\n      0xffffffffffffffff\n        /* \"#utility.yul\":3121:3127   */\n      dup2\n        /* \"#utility.yul\":3118:3148   */\n      gt\n        /* \"#utility.yul\":3115:3232   */\n      iszero\n      tag_185\n      jumpi\n        /* \"#utility.yul\":3151:3230   */\n      tag_186\n      tag_117\n      jump\t// in\n    tag_186:\n        /* \"#utility.yul\":3115:3232   */\n    tag_185:\n        /* \"#utility.yul\":3265:3269   */\n      0x20\n        /* \"#utility.yul\":3257:3263   */\n      dup4\n        /* \"#utility.yul\":3253:3270   */\n      add\n        /* \"#utility.yul\":3241:3270   */\n      swap2\n      pop\n        /* \"#utility.yul\":3319:3322   */\n      dup4\n        /* \"#utility.yul\":3311:3315   */\n      0x01\n        /* \"#utility.yul\":3303:3309   */\n      dup3\n        /* \"#utility.yul\":3299:3316   */\n      mul\n        /* \"#utility.yul\":3289:3297   */\n      dup4\n        /* \"#utility.yul\":3285:3317   */\n      add\n        /* \"#utility.yul\":3282:3323   */\n      gt\n        /* \"#utility.yul\":3279:3407   */\n      iszero\n      tag_187\n      jumpi\n        /* \"#utility.yul\":3326:3405   */\n      tag_188\n      tag_118\n      jump\t// in\n    tag_188:\n        /* \"#utility.yul\":3279:3407   */\n    tag_187:\n        /* \"#utility.yul\":2861:3413   */\n      swap3\n      pop\n      swap3\n      swap1\n      pop\n      jump\t// out\n        /* \"#utility.yul\":3419:4264   */\n    tag_29:\n        /* \"#utility.yul\":3521:3527   */\n      0x00\n        /* \"#utility.yul\":3529:3535   */\n      0x00\n        /* \"#utility.yul\":3537:3543   */\n      0x00\n        /* \"#utility.yul\":3545:3551   */\n      0x00\n        /* \"#utility.yul\":3594:3596   */\n      0x60\n        /* \"#utility.yul\":3582:3591   */\n      dup6\n        /* \"#utility.yul\":3573:3580   */\n      dup8\n        /* \"#utility.yul\":3569:3592   */\n      sub\n        /* \"#utility.yul\":3565:3597   */\n      slt\n        /* \"#utility.yul\":3562:3681   */\n      iszero\n      tag_190\n      jumpi\n        /* \"#utility.yul\":3600:3679   */\n      tag_191\n      tag_103\n      jump\t// in\n    tag_191:\n        /* \"#utility.yul\":3562:3681   */\n    tag_190:\n        /* \"#utility.yul\":3720:3721   */\n      0x00\n        /* \"#utility.yul\":3745:3812   */\n      tag_192\n        /* \"#utility.yul\":3804:3811   */\n      dup8\n        /* \"#utility.yul\":3795:3801   */\n      dup3\n        /* \"#utility.yul\":3784:3793   */\n      dup9\n        /* \"#utility.yul\":3780:3802   */\n      add\n        /* \"#utility.yul\":3745:3812   */\n      tag_115\n      jump\t// in\n    tag_192:\n        /* \"#utility.yul\":3735:3812   */\n      swap5\n      pop\n        /* \"#utility.yul\":3691:3822   */\n      pop\n        /* \"#utility.yul\":3889:3891   */\n      0x20\n        /* \"#utility.yul\":3878:3887   */\n      dup6\n        /* \"#utility.yul\":3874:3892   */\n      add\n        /* \"#utility.yul\":3861:3893   */\n      calldataload\n        /* \"#utility.yul\":3920:3938   */\n      0xffffffffffffffff\n        /* \"#utility.yul\":3912:3918   */\n      dup2\n        /* \"#utility.yul\":3909:3939   */\n      gt\n        /* \"#utility.yul\":3906:4023   */\n      iszero\n      tag_193\n      jumpi\n        /* \"#utility.yul\":3942:4021   */\n      tag_194\n      tag_104\n      jump\t// in\n    tag_194:\n        /* \"#utility.yul\":3906:4023   */\n    tag_193:\n        /* \"#utility.yul\":4055:4119   */\n      tag_195\n        /* \"#utility.yul\":4111:4118   */\n      dup8\n        /* \"#utility.yul\":4102:4108   */\n      dup3\n        /* \"#utility.yul\":4091:4100   */\n      dup9\n        /* \"#utility.yul\":4087:4109   */\n      add\n        /* \"#utility.yul\":4055:4119   */\n      tag_119\n      jump\t// in\n    tag_195:\n        /* \"#utility.yul\":4037:4119   */\n      swap4\n      pop\n      swap4\n      pop\n        /* \"#utility.yul\":3832:4129   */\n      pop\n        /* \"#utility.yul\":4168:4170   */\n      0x40\n        /* \"#utility.yul\":4194:4247   */\n      tag_196\n        /* \"#utility.yul\":4239:4246   */\n      dup8\n        /* \"#utility.yul\":4230:4236   */\n      dup3\n        /* \"#utility.yul\":4219:4228   */\n      dup9\n        /* \"#utility.yul\":4215:4237   */\n      add\n        /* \"#utility.yul\":4194:4247   */\n      tag_111\n      jump\t// in\n    tag_196:\n        /* \"#utility.yul\":4184:4247   */\n      swap2\n      pop\n        /* \"#utility.yul\":4139:4257   */\n      pop\n        /* \"#utility.yul\":3419:4264   */\n      swap3\n      swap6\n      swap2\n      swap5\n      pop\n      swap3\n      pop\n      jump\t// out\n        /* \"#utility.yul\":4270:4330   */\n    tag_120:\n        /* \"#utility.yul\":4298:4301   */\n      0x00\n        /* \"#utility.yul\":4319:4324   */\n      dup2\n        /* \"#utility.yul\":4312:4324   */\n      swap1\n      pop\n        /* \"#utility.yul\":4270:4330   */\n      swap2\n      swap1\n      pop\n      jump\t// out\n        /* \"#utility.yul\":4336:4478   */\n    tag_121:\n        /* \"#utility.yul\":4386:4395   */\n      0x00\n        /* \"#utility.yul\":4419:4472   */\n      tag_199\n        /* \"#utility.yul\":4437:4471   */\n      tag_200\n        /* \"#utility.yul\":4446:4470   */\n      tag_201\n        /* \"#utility.yul\":4464:4469   */\n      dup5\n        /* \"#utility.yul\":4446:4470   */\n      tag_105\n      jump\t// in\n    tag_201:\n        /* \"#utility.yul\":4437:4471   */\n      tag_120\n      jump\t// in\n    tag_200:\n        /* \"#utility.yul\":4419:4472   */\n      tag_105\n      jump\t// in\n    tag_199:\n        /* \"#utility.yul\":4406:4472   */\n      swap1\n      pop\n        /* \"#utility.yul\":4336:4478   */\n      swap2\n      swap1\n      pop\n      jump\t// out\n        /* \"#utility.yul\":4484:4610   */\n    tag_122:\n        /* \"#utility.yul\":4534:4543   */\n      0x00\n        /* \"#utility.yul\":4567:4604   */\n      tag_203\n        /* \"#utility.yul\":4598:4603   */\n      dup3\n        /* \"#utility.yul\":4567:4604   */\n      tag_121\n      jump\t// in\n    tag_203:\n        /* \"#utility.yul\":4554:4604   */\n      swap1\n      pop\n        /* \"#utility.yul\":4484:4610   */\n      swap2\n      swap1\n      pop\n      jump\t// out\n        /* \"#utility.yul\":4616:4761   */\n    tag_123:\n        /* \"#utility.yul\":4685:4694   */\n      0x00\n        /* \"#utility.yul\":4718:4755   */\n      tag_205\n        /* \"#utility.yul\":4749:4754   */\n      dup3\n        /* \"#utility.yul\":4718:4755   */\n      tag_122\n      jump\t// in\n    tag_205:\n        /* \"#utility.yul\":4705:4755   */\n      swap1\n      pop\n        /* \"#utility.yul\":4616:4761   */\n      swap2\n      swap1\n      pop\n      jump\t// out\n        /* \"#utility.yul\":4767:4936   */\n    tag_124:\n        /* \"#utility.yul\":4873:4929   */\n      tag_207\n        /* \"#utility.yul\":4923:4928   */\n      dup2\n        /* \"#utility.yul\":4873:4929   */\n      tag_123\n      jump\t// in\n    tag_207:\n        /* \"#utility.yul\":4868:4871   */\n      dup3\n        /* \"#utility.yul\":4861:4930   */\n      mstore\n        /* \"#utility.yul\":4767:4936   */\n      pop\n      pop\n      jump\t// out\n        /* \"#utility.yul\":4942:5202   */\n    tag_35:\n        /* \"#utility.yul\":5054:5058   */\n      0x00\n        /* \"#utility.yul\":5092:5094   */\n      0x20\n        /* \"#utility.yul\":5081:5090   */\n      dup3\n        /* \"#utility.yul\":5077:5095   */\n      add\n        /* \"#utility.yul\":5069:5095   */\n      swap1\n      pop\n        /* \"#utility.yul\":5105:5195   */\n      tag_209\n        /* \"#utility.yul\":5192:5193   */\n      0x00\n        /* \"#utility.yul\":5181:5190   */\n      dup4\n        /* \"#utility.yul\":5177:5194   */\n      add\n        /* \"#utility.yul\":5168:5174   */\n      dup5\n        /* \"#utility.yul\":5105:5195   */\n      tag_124\n      jump\t// in\n    tag_209:\n        /* \"#utility.yul\":4942:5202   */\n      swap3\n      swap2\n      pop\n      pop\n      jump\t// out\n        /* \"#utility.yul\":5208:5330   */\n    tag_125:\n        /* \"#utility.yul\":5281:5305   */\n      tag_211\n        /* \"#utility.yul\":5299:5304   */\n      dup2\n        /* \"#utility.yul\":5281:5305   */\n      tag_112\n      jump\t// in\n    tag_211:\n        /* \"#utility.yul\":5274:5279   */\n      dup2\n        /* \"#utility.yul\":5271:5306   */\n      eq\n        /* \"#utility.yul\":5261:5324   */\n      tag_212\n      jumpi\n        /* \"#utility.yul\":5320:5321   */\n      0x00\n        /* \"#utility.yul\":5317:5318   */\n      0x00\n        /* \"#utility.yul\":5310:5322   */\n      revert\n        /* \"#utility.yul\":5261:5324   */\n    tag_212:\n        /* \"#utility.yul\":5208:5330   */\n      pop\n      jump\t// out\n        /* \"#utility.yul\":5336:5475   */\n    tag_126:\n        /* \"#utility.yul\":5382:5387   */\n      0x00\n        /* \"#utility.yul\":5420:5426   */\n      dup2\n        /* \"#utility.yul\":5407:5427   */\n      calldataload\n        /* \"#utility.yul\":5398:5427   */\n      swap1\n      pop\n        /* \"#utility.yul\":5436:5469   */\n      tag_214\n        /* \"#utility.yul\":5463:5468   */\n      dup2\n        /* \"#utility.yul\":5436:5469   */\n      tag_125\n      jump\t// in\n    tag_214:\n        /* \"#utility.yul\":5336:5475   */\n      swap3\n      swap2\n      pop\n      pop\n      jump\t// out\n        /* \"#utility.yul\":5481:5810   */\n    tag_39:\n        /* \"#utility.yul\":5540:5546   */\n      0x00\n        /* \"#utility.yul\":5589:5591   */\n      0x20\n        /* \"#utility.yul\":5577:5586   */\n      dup3\n        /* \"#utility.yul\":5568:5575   */\n      dup5\n        /* \"#utility.yul\":5564:5587   */\n      sub\n        /* \"#utility.yul\":5560:5592   */\n      slt\n        /* \"#utility.yul\":5557:5676   */\n      iszero\n      tag_216\n      jumpi\n        /* \"#utility.yul\":5595:5674   */\n      tag_217\n      tag_103\n      jump\t// in\n    tag_217:\n        /* \"#utility.yul\":5557:5676   */\n    tag_216:\n        /* \"#utility.yul\":5715:5716   */\n      0x00\n        /* \"#utility.yul\":5740:5793   */\n      tag_218\n        /* \"#utility.yul\":5785:5792   */\n      dup5\n        /* \"#utility.yul\":5776:5782   */\n      dup3\n        /* \"#utility.yul\":5765:5774   */\n      dup6\n        /* \"#utility.yul\":5761:5783   */\n      add\n        /* \"#utility.yul\":5740:5793   */\n      tag_126\n      jump\t// in\n    tag_218:\n        /* \"#utility.yul\":5730:5793   */\n      swap2\n      pop\n        /* \"#utility.yul\":5686:5803   */\n      pop\n        /* \"#utility.yul\":5481:5810   */\n      swap3\n      swap2\n      pop\n      pop\n      jump\t// out\n        /* \"#utility.yul\":5816:5933   */\n    tag_127:\n        /* \"#utility.yul\":5925:5926   */\n      0x00\n        /* \"#utility.yul\":5922:5923   */\n      0x00\n        /* \"#utility.yul\":5915:5927   */\n      revert\n        /* \"#utility.yul\":5967:6204   */\n    tag_128:\n        /* \"#utility.yul\":6045:6050   */\n      0x00\n        /* \"#utility.yul\":6086:6089   */\n      0x0160\n        /* \"#utility.yul\":6077:6083   */\n      dup3\n        /* \"#utility.yul\":6072:6075   */\n      dup5\n        /* \"#utility.yul\":6068:6084   */\n      sub\n        /* \"#utility.yul\":6064:6090   */\n      slt\n        /* \"#utility.yul\":6061:6174   */\n      iszero\n      tag_221\n      jumpi\n        /* \"#utility.yul\":6093:6172   */\n      tag_222\n      tag_127\n      jump\t// in\n    tag_222:\n        /* \"#utility.yul\":6061:6174   */\n    tag_221:\n        /* \"#utility.yul\":6192:6198   */\n      dup2\n        /* \"#utility.yul\":6183:6198   */\n      swap1\n      pop\n        /* \"#utility.yul\":5967:6204   */\n      swap3\n      swap2\n      pop\n      pop\n      jump\t// out\n        /* \"#utility.yul\":6210:6287   */\n    tag_129:\n        /* \"#utility.yul\":6247:6254   */\n      0x00\n        /* \"#utility.yul\":6276:6281   */\n      dup2\n        /* \"#utility.yul\":6265:6281   */\n      swap1\n      pop\n        /* \"#utility.yul\":6210:6287   */\n      swap2\n      swap1\n      pop\n      jump\t// out\n        /* \"#utility.yul\":6293:6415   */\n    tag_130:\n        /* \"#utility.yul\":6366:6390   */\n      tag_225\n        /* \"#utility.yul\":6384:6389   */\n      dup2\n        /* \"#utility.yul\":6366:6390   */\n      tag_129\n      jump\t// in\n    tag_225:\n        /* \"#utility.yul\":6359:6364   */\n      dup2\n        /* \"#utility.yul\":6356:6391   */\n      eq\n        /* \"#utility.yul\":6346:6409   */\n      tag_226\n      jumpi\n        /* \"#utility.yul\":6405:6406   */\n      0x00\n        /* \"#utility.yul\":6402:6403   */\n      0x00\n        /* \"#utility.yul\":6395:6407   */\n      revert\n        /* \"#utility.yul\":6346:6409   */\n    tag_226:\n        /* \"#utility.yul\":6293:6415   */\n      pop\n      jump\t// out\n        /* \"#utility.yul\":6421:6560   */\n    tag_131:\n        /* \"#utility.yul\":6467:6472   */\n      0x00\n        /* \"#utility.yul\":6505:6511   */\n      dup2\n        /* \"#utility.yul\":6492:6512   */\n      calldataload\n        /* \"#utility.yul\":6483:6512   */\n      swap1\n      pop\n        /* \"#utility.yul\":6521:6554   */\n      tag_228\n        /* \"#utility.yul\":6548:6553   */\n      dup2\n        /* \"#utility.yul\":6521:6554   */\n      tag_130\n      jump\t// in\n    tag_228:\n        /* \"#utility.yul\":6421:6560   */\n      swap3\n      swap2\n      pop\n      pop\n      jump\t// out\n        /* \"#utility.yul\":6566:7409   */\n    tag_44:\n        /* \"#utility.yul\":6675:6681   */\n      0x00\n        /* \"#utility.yul\":6683:6689   */\n      0x00\n        /* \"#utility.yul\":6691:6697   */\n      0x00\n        /* \"#utility.yul\":6740:6742   */\n      0x60\n        /* \"#utility.yul\":6728:6737   */\n      dup5\n        /* \"#utility.yul\":6719:6726   */\n      dup7\n        /* \"#utility.yul\":6715:6738   */\n      sub\n        /* \"#utility.yul\":6711:6743   */\n      slt\n        /* \"#utility.yul\":6708:6827   */\n      iszero\n      tag_230\n      jumpi\n        /* \"#utility.yul\":6746:6825   */\n      tag_231\n      tag_103\n      jump\t// in\n    tag_231:\n        /* \"#utility.yul\":6708:6827   */\n    tag_230:\n        /* \"#utility.yul\":6894:6895   */\n      0x00\n        /* \"#utility.yul\":6883:6892   */\n      dup5\n        /* \"#utility.yul\":6879:6896   */\n      add\n        /* \"#utility.yul\":6866:6897   */\n      calldataload\n        /* \"#utility.yul\":6924:6942   */\n      0xffffffffffffffff\n        /* \"#utility.yul\":6916:6922   */\n      dup2\n        /* \"#utility.yul\":6913:6943   */\n      gt\n        /* \"#utility.yul\":6910:7027   */\n      iszero\n      tag_232\n      jumpi\n        /* \"#utility.yul\":6946:7025   */\n      tag_233\n      tag_104\n      jump\t// in\n    tag_233:\n        /* \"#utility.yul\":6910:7027   */\n    tag_232:\n        /* \"#utility.yul\":7051:7136   */\n      tag_234\n        /* \"#utility.yul\":7128:7135   */\n      dup7\n        /* \"#utility.yul\":7119:7125   */\n      dup3\n        /* \"#utility.yul\":7108:7117   */\n      dup8\n        /* \"#utility.yul\":7104:7126   */\n      add\n        /* \"#utility.yul\":7051:7136   */\n      tag_128\n      jump\t// in\n    tag_234:\n        /* \"#utility.yul\":7041:7136   */\n      swap4\n      pop\n        /* \"#utility.yul\":6837:7146   */\n      pop\n        /* \"#utility.yul\":7185:7187   */\n      0x20\n        /* \"#utility.yul\":7211:7264   */\n      tag_235\n        /* \"#utility.yul\":7256:7263   */\n      dup7\n        /* \"#utility.yul\":7247:7253   */\n      dup3\n        /* \"#utility.yul\":7236:7245   */\n      dup8\n        /* \"#utility.yul\":7232:7254   */\n      add\n        /* \"#utility.yul\":7211:7264   */\n      tag_131\n      jump\t// in\n    tag_235:\n        /* \"#utility.yul\":7201:7264   */\n      swap3\n      pop\n        /* \"#utility.yul\":7156:7274   */\n      pop\n        /* \"#utility.yul\":7313:7315   */\n      0x40\n        /* \"#utility.yul\":7339:7392   */\n      tag_236\n        /* \"#utility.yul\":7384:7391   */\n      dup7\n        /* \"#utility.yul\":7375:7381   */\n      dup3\n        /* \"#utility.yul\":7364:7373   */\n      dup8\n        /* \"#utility.yul\":7360:7382   */\n      add\n        /* \"#utility.yul\":7339:7392   */\n      tag_111\n      jump\t// in\n    tag_236:\n        /* \"#utility.yul\":7329:7392   */\n      swap2\n      pop\n        /* \"#utility.yul\":7284:7402   */\n      pop\n        /* \"#utility.yul\":6566:7409   */\n      swap3\n      pop\n      swap3\n      pop\n      swap3\n      jump\t// out\n        /* \"#utility.yul\":7415:7513   */\n    tag_132:\n        /* \"#utility.yul\":7466:7472   */\n      0x00\n        /* \"#utility.yul\":7500:7505   */\n      dup2\n        /* \"#utility.yul\":7494:7506   */\n      mload\n        /* \"#utility.yul\":7484:7506   */\n      swap1\n      pop\n        /* \"#utility.yul\":7415:7513   */\n      swap2\n      swap1\n      pop\n      jump\t// out\n        /* \"#utility.yul\":7519:7687   */\n    tag_133:\n        /* \"#utility.yul\":7602:7613   */\n      0x00\n        /* \"#utility.yul\":7636:7642   */\n      dup3\n        /* \"#utility.yul\":7631:7634   */\n      dup3\n        /* \"#utility.yul\":7624:7643   */\n      mstore\n        /* \"#utility.yul\":7676:7680   */\n      0x20\n        /* \"#utility.yul\":7671:7674   */\n      dup3\n        /* \"#utility.yul\":7667:7681   */\n      add\n        /* \"#utility.yul\":7652:7681   */\n      swap1\n      pop\n        /* \"#utility.yul\":7519:7687   */\n      swap3\n      swap2\n      pop\n      pop\n      jump\t// out\n        /* \"#utility.yul\":7693:7832   */\n    tag_134:\n        /* \"#utility.yul\":7782:7788   */\n      dup3\n        /* \"#utility.yul\":7777:7780   */\n      dup2\n        /* \"#utility.yul\":7772:7775   */\n      dup4\n        /* \"#utility.yul\":7766:7789   */\n      mcopy\n        /* \"#utility.yul\":7823:7824   */\n      0x00\n        /* \"#utility.yul\":7814:7820   */\n      dup4\n        /* \"#utility.yul\":7809:7812   */\n      dup4\n        /* \"#utility.yul\":7805:7821   */\n      add\n        /* \"#utility.yul\":7798:7825   */\n      mstore\n        /* \"#utility.yul\":7693:7832   */\n      pop\n      pop\n      pop\n      jump\t// out\n        /* \"#utility.yul\":7838:7940   */\n    tag_135:\n        /* \"#utility.yul\":7879:7885   */\n      0x00\n        /* \"#utility.yul\":7930:7932   */\n      0x1f\n        /* \"#utility.yul\":7926:7933   */\n      not\n        /* \"#utility.yul\":7921:7923   */\n      0x1f\n        /* \"#utility.yul\":7914:7919   */\n      dup4\n        /* \"#utility.yul\":7910:7924   */\n      add\n        /* \"#utility.yul\":7906:7934   */\n      and\n        /* \"#utility.yul\":7896:7934   */\n      swap1\n      pop\n        /* \"#utility.yul\":7838:7940   */\n      swap2\n      swap1\n      pop\n      jump\t// out\n        /* \"#utility.yul\":7946:8319   */\n    tag_136:\n        /* \"#utility.yul\":8032:8035   */\n      0x00\n        /* \"#utility.yul\":8060:8098   */\n      tag_242\n        /* \"#utility.yul\":8092:8097   */\n      dup3\n        /* \"#utility.yul\":8060:8098   */\n      tag_132\n      jump\t// in\n    tag_242:\n        /* \"#utility.yul\":8114:8184   */\n      tag_243\n        /* \"#utility.yul\":8177:8183   */\n      dup2\n        /* \"#utility.yul\":8172:8175   */\n      dup6\n        /* \"#utility.yul\":8114:8184   */\n      tag_133\n      jump\t// in\n    tag_243:\n        /* \"#utility.yul\":8107:8184   */\n      swap4\n      pop\n        /* \"#utility.yul\":8193:8258   */\n      tag_244\n        /* \"#utility.yul\":8251:8257   */\n      dup2\n        /* \"#utility.yul\":8246:8249   */\n      dup6\n        /* \"#utility.yul\":8239:8243   */\n      0x20\n        /* \"#utility.yul\":8232:8237   */\n      dup7\n        /* \"#utility.yul\":8228:8244   */\n      add\n        /* \"#utility.yul\":8193:8258   */\n      tag_134\n      jump\t// in\n    tag_244:\n        /* \"#utility.yul\":8283:8312   */\n      tag_245\n        /* \"#utility.yul\":8305:8311   */\n      dup2\n        /* \"#utility.yul\":8283:8312   */\n      tag_135\n      jump\t// in\n    tag_245:\n        /* \"#utility.yul\":8278:8281   */\n      dup5\n        /* \"#utility.yul\":8274:8313   */\n      add\n        /* \"#utility.yul\":8267:8313   */\n      swap2\n      pop\n        /* \"#utility.yul\":8036:8319   */\n      pop\n        /* \"#utility.yul\":7946:8319   */\n      swap3\n      swap2\n      pop\n      pop\n      jump\t// out\n        /* \"#utility.yul\":8325:8443   */\n    tag_137:\n        /* \"#utility.yul\":8412:8436   */\n      tag_247\n        /* \"#utility.yul\":8430:8435   */\n      dup2\n        /* \"#utility.yul\":8412:8436   */\n      tag_109\n      jump\t// in\n    tag_247:\n        /* \"#utility.yul\":8407:8410   */\n      dup3\n        /* \"#utility.yul\":8400:8437   */\n      mstore\n        /* \"#utility.yul\":8325:8443   */\n      pop\n      pop\n      jump\t// out\n        /* \"#utility.yul\":8449:8868   */\n    tag_47:\n        /* \"#utility.yul\":8588:8592   */\n      0x00\n        /* \"#utility.yul\":8626:8628   */\n      0x40\n        /* \"#utility.yul\":8615:8624   */\n      dup3\n        /* \"#utility.yul\":8611:8629   */\n      add\n        /* \"#utility.yul\":8603:8629   */\n      swap1\n      pop\n        /* \"#utility.yul\":8675:8684   */\n      dup2\n        /* \"#utility.yul\":8669:8673   */\n      dup2\n        /* \"#utility.yul\":8665:8685   */\n      sub\n        /* \"#utility.yul\":8661:8662   */\n      0x00\n        /* \"#utility.yul\":8650:8659   */\n      dup4\n        /* \"#utility.yul\":8646:8663   */\n      add\n        /* \"#utility.yul\":8639:8686   */\n      mstore\n        /* \"#utility.yul\":8703:8779   */\n      tag_249\n        /* \"#utility.yul\":8774:8778   */\n      dup2\n        /* \"#utility.yul\":8765:8771   */\n      dup6\n        /* \"#utility.yul\":8703:8779   */\n      tag_136\n      jump\t// in\n    tag_249:\n        /* \"#utility.yul\":8695:8779   */\n      swap1\n      pop\n        /* \"#utility.yul\":8789:8861   */\n      tag_250\n        /* \"#utility.yul\":8857:8859   */\n      0x20\n        /* \"#utility.yul\":8846:8855   */\n      dup4\n        /* \"#utility.yul\":8842:8860   */\n      add\n        /* \"#utility.yul\":8833:8839   */\n      dup5\n        /* \"#utility.yul\":8789:8861   */\n      tag_137\n      jump\t// in\n    tag_250:\n        /* \"#utility.yul\":8449:8868   */\n      swap4\n      swap3\n      pop\n      pop\n      pop\n      jump\t// out\n        /* \"#utility.yul\":8874:9021   */\n    tag_138:\n        /* \"#utility.yul\":8975:8986   */\n      0x00\n        /* \"#utility.yul\":9012:9015   */\n      dup2\n        /* \"#utility.yul\":8997:9015   */\n      swap1\n      pop\n        /* \"#utility.yul\":8874:9021   */\n      swap3\n      swap2\n      pop\n      pop\n      jump\t// out\n        /* \"#utility.yul\":9027:9141   */\n    tag_139:\n      pop\n      jump\t// out\n        /* \"#utility.yul\":9147:9545   */\n    tag_140:\n        /* \"#utility.yul\":9306:9309   */\n      0x00\n        /* \"#utility.yul\":9327:9410   */\n      tag_254\n        /* \"#utility.yul\":9408:9409   */\n      0x00\n        /* \"#utility.yul\":9403:9406   */\n      dup4\n        /* \"#utility.yul\":9327:9410   */\n      tag_138\n      jump\t// in\n    tag_254:\n        /* \"#utility.yul\":9320:9410   */\n      swap2\n      pop\n        /* \"#utility.yul\":9419:9512   */\n      tag_255\n        /* \"#utility.yul\":9508:9511   */\n      dup3\n        /* \"#utility.yul\":9419:9512   */\n      tag_139\n      jump\t// in\n    tag_255:\n        /* \"#utility.yul\":9537:9538   */\n      0x00\n        /* \"#utility.yul\":9532:9535   */\n      dup3\n        /* \"#utility.yul\":9528:9539   */\n      add\n        /* \"#utility.yul\":9521:9539   */\n      swap1\n      pop\n        /* \"#utility.yul\":9147:9545   */\n      swap2\n      swap1\n      pop\n      jump\t// out\n        /* \"#utility.yul\":9551:9930   */\n    tag_53:\n        /* \"#utility.yul\":9735:9738   */\n      0x00\n        /* \"#utility.yul\":9757:9904   */\n      tag_257\n        /* \"#utility.yul\":9900:9903   */\n      dup3\n        /* \"#utility.yul\":9757:9904   */\n      tag_140\n      jump\t// in\n    tag_257:\n        /* \"#utility.yul\":9750:9904   */\n      swap2\n      pop\n        /* \"#utility.yul\":9921:9924   */\n      dup2\n        /* \"#utility.yul\":9914:9924   */\n      swap1\n      pop\n        /* \"#utility.yul\":9551:9930   */\n      swap2\n      swap1\n      pop\n      jump\t// out\n        /* \"#utility.yul\":9936:10105   */\n    tag_141:\n        /* \"#utility.yul\":10020:10031   */\n      0x00\n        /* \"#utility.yul\":10054:10060   */\n      dup3\n        /* \"#utility.yul\":10049:10052   */\n      dup3\n        /* \"#utility.yul\":10042:10061   */\n      mstore\n        /* \"#utility.yul\":10094:10098   */\n      0x20\n        /* \"#utility.yul\":10089:10092   */\n      dup3\n        /* \"#utility.yul\":10085:10099   */\n      add\n        /* \"#utility.yul\":10070:10099   */\n      swap1\n      pop\n        /* \"#utility.yul\":9936:10105   */\n      swap3\n      swap2\n      pop\n      pop\n      jump\t// out\n        /* \"#utility.yul\":10111:10276   */\n    tag_142:\n        /* \"#utility.yul\":10251:10268   */\n      0x5769746864726177206661696c65640000000000000000000000000000000000\n        /* \"#utility.yul\":10247:10248   */\n      0x00\n        /* \"#utility.yul\":10239:10245   */\n      dup3\n        /* \"#utility.yul\":10235:10249   */\n      add\n        /* \"#utility.yul\":10228:10269   */\n      mstore\n        /* \"#utility.yul\":10111:10276   */\n      pop\n      jump\t// out\n        /* \"#utility.yul\":10282:10648   */\n    tag_143:\n        /* \"#utility.yul\":10424:10427   */\n      0x00\n        /* \"#utility.yul\":10445:10512   */\n      tag_261\n        /* \"#utility.yul\":10509:10511   */\n      0x0f\n        /* \"#utility.yul\":10504:10507   */\n      dup4\n        /* \"#utility.yul\":10445:10512   */\n      tag_141\n      jump\t// in\n    tag_261:\n        /* \"#utility.yul\":10438:10512   */\n      swap2\n      pop\n        /* \"#utility.yul\":10521:10614   */\n      tag_262\n        /* \"#utility.yul\":10610:10613   */\n      dup3\n        /* \"#utility.yul\":10521:10614   */\n      tag_142\n      jump\t// in\n    tag_262:\n        /* \"#utility.yul\":10639:10641   */\n      0x20\n        /* \"#utility.yul\":10634:10637   */\n      dup3\n        /* \"#utility.yul\":10630:10642   */\n      add\n        /* \"#utility.yul\":10623:10642   */\n      swap1\n      pop\n        /* \"#utility.yul\":10282:10648   */\n      swap2\n      swap1\n      pop\n      jump\t// out\n        /* \"#utility.yul\":10654:11073   */\n    tag_59:\n        /* \"#utility.yul\":10820:10824   */\n      0x00\n        /* \"#utility.yul\":10858:10860   */\n      0x20\n        /* \"#utility.yul\":10847:10856   */\n      dup3\n        /* \"#utility.yul\":10843:10861   */\n      add\n        /* \"#utility.yul\":10835:10861   */\n      swap1\n      pop\n        /* \"#utility.yul\":10907:10916   */\n      dup2\n        /* \"#utility.yul\":10901:10905   */\n      dup2\n        /* \"#utility.yul\":10897:10917   */\n      sub\n        /* \"#utility.yul\":10893:10894   */\n      0x00\n        /* \"#utility.yul\":10882:10891   */\n      dup4\n        /* \"#utility.yul\":10878:10895   */\n      add\n        /* \"#utility.yul\":10871:10918   */\n      mstore\n        /* \"#utility.yul\":10935:11066   */\n      tag_264\n        /* \"#utility.yul\":11061:11065   */\n      dup2\n        /* \"#utility.yul\":10935:11066   */\n      tag_143\n      jump\t// in\n    tag_264:\n        /* \"#utility.yul\":10927:11066   */\n      swap1\n      pop\n        /* \"#utility.yul\":10654:11073   */\n      swap2\n      swap1\n      pop\n      jump\t// out\n        /* \"#utility.yul\":11079:11244   */\n    tag_144:\n        /* \"#utility.yul\":11219:11236   */\n      0x4f6e6c7920456e747279506f696e740000000000000000000000000000000000\n        /* \"#utility.yul\":11215:11216   */\n      0x00\n        /* \"#utility.yul\":11207:11213   */\n      dup3\n        /* \"#utility.yul\":11203:11217   */\n      add\n        /* \"#utility.yul\":11196:11237   */\n      mstore\n        /* \"#utility.yul\":11079:11244   */\n      pop\n      jump\t// out\n        /* \"#utility.yul\":11250:11616   */\n    tag_145:\n        /* \"#utility.yul\":11392:11395   */\n      0x00\n        /* \"#utility.yul\":11413:11480   */\n      tag_267\n        /* \"#utility.yul\":11477:11479   */\n      0x0f\n        /* \"#utility.yul\":11472:11475   */\n      dup4\n        /* \"#utility.yul\":11413:11480   */\n      tag_141\n      jump\t// in\n    tag_267:\n        /* \"#utility.yul\":11406:11480   */\n      swap2\n      pop\n        /* \"#utility.yul\":11489:11582   */\n      tag_268\n        /* \"#utility.yul\":11578:11581   */\n      dup3\n        /* \"#utility.yul\":11489:11582   */\n      tag_144\n      jump\t// in\n    tag_268:\n        /* \"#utility.yul\":11607:11609   */\n      0x20\n        /* \"#utility.yul\":11602:11605   */\n      dup3\n        /* \"#utility.yul\":11598:11610   */\n      add\n        /* \"#utility.yul\":11591:11610   */\n      swap1\n      pop\n        /* \"#utility.yul\":11250:11616   */\n      swap2\n      swap1\n      pop\n      jump\t// out\n        /* \"#utility.yul\":11622:12041   */\n    tag_69:\n        /* \"#utility.yul\":11788:11792   */\n      0x00\n        /* \"#utility.yul\":11826:11828   */\n      0x20\n        /* \"#utility.yul\":11815:11824   */\n      dup3\n        /* \"#utility.yul\":11811:11829   */\n      add\n        /* \"#utility.yul\":11803:11829   */\n      swap1\n      pop\n        /* \"#utility.yul\":11875:11884   */\n      dup2\n        /* \"#utility.yul\":11869:11873   */\n      dup2\n        /* \"#utility.yul\":11865:11885   */\n      sub\n        /* \"#utility.yul\":11861:11862   */\n      0x00\n        /* \"#utility.yul\":11850:11859   */\n      dup4\n        /* \"#utility.yul\":11846:11863   */\n      add\n        /* \"#utility.yul\":11839:11886   */\n      mstore\n        /* \"#utility.yul\":11903:12034   */\n      tag_270\n        /* \"#utility.yul\":12029:12033   */\n      dup2\n        /* \"#utility.yul\":11903:12034   */\n      tag_145\n      jump\t// in\n    tag_270:\n        /* \"#utility.yul\":11895:12034   */\n      swap1\n      pop\n        /* \"#utility.yul\":11622:12041   */\n      swap2\n      swap1\n      pop\n      jump\t// out\n        /* \"#utility.yul\":12047:12392   */\n    tag_95:\n        /* \"#utility.yul\":12114:12120   */\n      0x00\n        /* \"#utility.yul\":12163:12165   */\n      0x20\n        /* \"#utility.yul\":12151:12160   */\n      dup3\n        /* \"#utility.yul\":12142:12149   */\n      dup5\n        /* \"#utility.yul\":12138:12161   */\n      sub\n        /* \"#utility.yul\":12134:12166   */\n      slt\n        /* \"#utility.yul\":12131:12250   */\n      iszero\n      tag_272\n      jumpi\n        /* \"#utility.yul\":12169:12248   */\n      tag_273\n      tag_103\n      jump\t// in\n    tag_273:\n        /* \"#utility.yul\":12131:12250   */\n    tag_272:\n        /* \"#utility.yul\":12289:12290   */\n      0x00\n        /* \"#utility.yul\":12314:12375   */\n      tag_274\n        /* \"#utility.yul\":12367:12374   */\n      dup5\n        /* \"#utility.yul\":12358:12364   */\n      dup3\n        /* \"#utility.yul\":12347:12356   */\n      dup6\n        /* \"#utility.yul\":12343:12365   */\n      add\n        /* \"#utility.yul\":12314:12375   */\n      tag_108\n      jump\t// in\n    tag_274:\n        /* \"#utility.yul\":12304:12375   */\n      swap2\n      pop\n        /* \"#utility.yul\":12260:12385   */\n      pop\n        /* \"#utility.yul\":12047:12392   */\n      swap3\n      swap2\n      pop\n      pop\n      jump\t// out\n        /* \"#utility.yul\":12398:12730   */\n    tag_97:\n        /* \"#utility.yul\":12519:12523   */\n      0x00\n        /* \"#utility.yul\":12557:12559   */\n      0x40\n        /* \"#utility.yul\":12546:12555   */\n      dup3\n        /* \"#utility.yul\":12542:12560   */\n      add\n        /* \"#utility.yul\":12534:12560   */\n      swap1\n      pop\n        /* \"#utility.yul\":12570:12641   */\n      tag_276\n        /* \"#utility.yul\":12638:12639   */\n      0x00\n        /* \"#utility.yul\":12627:12636   */\n      dup4\n        /* \"#utility.yul\":12623:12640   */\n      add\n        /* \"#utility.yul\":12614:12620   */\n      dup6\n        /* \"#utility.yul\":12570:12641   */\n      tag_137\n      jump\t// in\n    tag_276:\n        /* \"#utility.yul\":12651:12723   */\n      tag_277\n        /* \"#utility.yul\":12719:12721   */\n      0x20\n        /* \"#utility.yul\":12708:12717   */\n      dup4\n        /* \"#utility.yul\":12704:12722   */\n      add\n        /* \"#utility.yul\":12695:12701   */\n      dup5\n        /* \"#utility.yul\":12651:12723   */\n      tag_137\n      jump\t// in\n    tag_277:\n        /* \"#utility.yul\":12398:12730   */\n      swap4\n      swap3\n      pop\n      pop\n      pop\n      jump\t// out\n\n    auxdata: 0xa2646970667358221220090be4f67c5c30358066fbeb4cb4e14caa879b058987ff14ad1f13fd54f65b9164736f6c634300081c0033\n}\n",
				"bytecode": {
					"linkReferences": {},
					"object": "60a060405234801561000f575f5ffd5b50604051610f2c380380610f2c83398181016040528101906100319190610249565b80828073ffffffffffffffffffffffffffffffffffffffff1660808173ffffffffffffffffffffffffffffffffffffffff1681525050505f73ffffffffffffffffffffffffffffffffffffffff168173ffffffffffffffffffffffffffffffffffffffff16036100d8575f6040517f1e4fbdf70000000000000000000000000000000000000000000000000000000081526004016100cf9190610296565b60405180910390fd5b6100e7816100ef60201b60201c565b5050506102af565b5f5f5f9054906101000a900473ffffffffffffffffffffffffffffffffffffffff169050815f5f6101000a81548173ffffffffffffffffffffffffffffffffffffffff021916908373ffffffffffffffffffffffffffffffffffffffff1602179055508173ffffffffffffffffffffffffffffffffffffffff168173ffffffffffffffffffffffffffffffffffffffff167f8be0079c531659141344cd1fd0a4f28419497f9722a3daafe3b4186f6b6457e060405160405180910390a35050565b5f5ffd5b5f73ffffffffffffffffffffffffffffffffffffffff82169050919050565b5f6101dd826101b4565b9050919050565b5f6101ee826101d3565b9050919050565b6101fe816101e4565b8114610208575f5ffd5b50565b5f81519050610219816101f5565b92915050565b610228816101d3565b8114610232575f5ffd5b50565b5f815190506102438161021f565b92915050565b5f5f6040838503121561025f5761025e6101b0565b5b5f61026c8582860161020b565b925050602061027d85828601610235565b9150509250929050565b610290816101d3565b82525050565b5f6020820190506102a95f830184610287565b92915050565b608051610c576102d55f395f818161028e0152818161032e01526103d90152610c575ff3fe608060405260043610610073575f3560e01c8063a9a234091161004d578063a9a23409146100e6578063b0d691fe1461010e578063f2fde38b14610138578063f465c77e146101605761007a565b8063205c28781461007e578063715018a6146100a65780638da5cb5b146100bc5761007a565b3661007a57005b5f5ffd5b348015610089575f5ffd5b506100a4600480360381019061009f919061070a565b61019d565b005b3480156100b1575f5ffd5b506100ba610252565b005b3480156100c7575f5ffd5b506100d0610265565b6040516100dd9190610768565b60405180910390f35b3480156100f1575f5ffd5b5061010c60048036038101906101079190610805565b61028c565b005b348015610119575f5ffd5b5061012261032c565b60405161012f91906108d1565b60405180910390f35b348015610143575f5ffd5b5061015e60048036038101906101599190610914565b610350565b005b34801561016b575f5ffd5b5061018660048036038101906101819190610995565b6103d4565b604051610194929190610a80565b60405180910390f35b6101a561047c565b5f8273ffffffffffffffffffffffffffffffffffffffff16826040516101ca90610adb565b5f6040518083038185875af1925050503d805f8114610204576040519150601f19603f3d011682016040523d82523d5f602084013e610209565b606091505b505090508061024d576040517f08c379a000000000000000000000000000000000000000000000000000000000815260040161024490610b49565b60405180910390fd5b505050565b61025a61047c565b6102635f610503565b565b5f5f5f9054906101000a900473ffffffffffffffffffffffffffffffffffffffff16905090565b7f000000000000000000000000000000000000000000000000000000000000000073ffffffffffffffffffffffffffffffffffffffff163373ffffffffffffffffffffffffffffffffffffffff161461031a576040517f08c379a000000000000000000000000000000000000000000000000000000000815260040161031190610bb1565b60405180910390fd5b610326848484846105c4565b50505050565b7f000000000000000000000000000000000000000000000000000000000000000081565b61035861047c565b5f73ffffffffffffffffffffffffffffffffffffffff168173ffffffffffffffffffffffffffffffffffffffff16036103c8575f6040517f1e4fbdf70000000000000000000000000000000000000000000000000000000081526004016103bf9190610768565b60405180910390fd5b6103d181610503565b50565b60605f7f000000000000000000000000000000000000000000000000000000000000000073ffffffffffffffffffffffffffffffffffffffff163373ffffffffffffffffffffffffffffffffffffffff1614610465576040517f08c379a000000000000000000000000000000000000000000000000000000000815260040161045c90610bb1565b60405180910390fd5b61047085858561062d565b91509150935093915050565b61048461066e565b73ffffffffffffffffffffffffffffffffffffffff166104a2610265565b73ffffffffffffffffffffffffffffffffffffffff1614610501576104c561066e565b6040517f118cdaa70000000000000000000000000000000000000000000000000000000081526004016104f89190610768565b60405180910390fd5b565b5f5f5f9054906101000a900473ffffffffffffffffffffffffffffffffffffffff169050815f5f6101000a81548173ffffffffffffffffffffffffffffffffffffffff021916908373ffffffffffffffffffffffffffffffffffffffff1602179055508173ffffffffffffffffffffffffffffffffffffffff168173ffffffffffffffffffffffffffffffffffffffff167f8be0079c531659141344cd1fd0a4f28419497f9722a3daafe3b4186f6b6457e060405160405180910390a35050565b5f83838101906105d49190610bcf565b90508073ffffffffffffffffffffffffffffffffffffffff167fb3d8da13e2eec10930982ae94cc39cd56a1e686b864a50f632765647bdfe622b834260405161061e929190610bfa565b60405180910390a25050505050565b60605f845f0160208101906106429190610914565b6040516020016106529190610768565b6040516020818303038152906040525f91509150935093915050565b5f33905090565b5f5ffd5b5f5ffd5b5f73ffffffffffffffffffffffffffffffffffffffff82169050919050565b5f6106a68261067d565b9050919050565b6106b68161069c565b81146106c0575f5ffd5b50565b5f813590506106d1816106ad565b92915050565b5f819050919050565b6106e9816106d7565b81146106f3575f5ffd5b50565b5f81359050610704816106e0565b92915050565b5f5f604083850312156107205761071f610675565b5b5f61072d858286016106c3565b925050602061073e858286016106f6565b9150509250929050565b5f6107528261067d565b9050919050565b61076281610748565b82525050565b5f60208201905061077b5f830184610759565b92915050565b6003811061078d575f5ffd5b50565b5f8135905061079e81610781565b92915050565b5f5ffd5b5f5ffd5b5f5ffd5b5f5f83601f8401126107c5576107c46107a4565b5b8235905067ffffffffffffffff8111156107e2576107e16107a8565b5b6020830191508360018202830111156107fe576107fd6107ac565b5b9250929050565b5f5f5f5f6060858703121561081d5761081c610675565b5b5f61082a87828801610790565b945050602085013567ffffffffffffffff81111561084b5761084a610679565b5b610857878288016107b0565b9350935050604061086a878288016106f6565b91505092959194509250565b5f819050919050565b5f61089961089461088f8461067d565b610876565b61067d565b9050919050565b5f6108aa8261087f565b9050919050565b5f6108bb826108a0565b9050919050565b6108cb816108b1565b82525050565b5f6020820190506108e45f8301846108c2565b92915050565b6108f381610748565b81146108fd575f5ffd5b50565b5f8135905061090e816108ea565b92915050565b5f6020828403121561092957610928610675565b5b5f61093684828501610900565b91505092915050565b5f5ffd5b5f61016082840312156109595761095861093f565b5b81905092915050565b5f819050919050565b61097481610962565b811461097e575f5ffd5b50565b5f8135905061098f8161096b565b92915050565b5f5f5f606084860312156109ac576109ab610675565b5b5f84013567ffffffffffffffff8111156109c9576109c8610679565b5b6109d586828701610943565b93505060206109e686828701610981565b92505060406109f7868287016106f6565b9150509250925092565b5f81519050919050565b5f82825260208201905092915050565b8281835e5f83830152505050565b5f601f19601f8301169050919050565b5f610a4382610a01565b610a4d8185610a0b565b9350610a5d818560208601610a1b565b610a6681610a29565b840191505092915050565b610a7a816106d7565b82525050565b5f6040820190508181035f830152610a988185610a39565b9050610aa76020830184610a71565b9392505050565b5f81905092915050565b50565b5f610ac65f83610aae565b9150610ad182610ab8565b5f82019050919050565b5f610ae582610abb565b9150819050919050565b5f82825260208201905092915050565b7f5769746864726177206661696c656400000000000000000000000000000000005f82015250565b5f610b33600f83610aef565b9150610b3e82610aff565b602082019050919050565b5f6020820190508181035f830152610b6081610b27565b9050919050565b7f4f6e6c7920456e747279506f696e7400000000000000000000000000000000005f82015250565b5f610b9b600f83610aef565b9150610ba682610b67565b602082019050919050565b5f6020820190508181035f830152610bc881610b8f565b9050919050565b5f60208284031215610be457610be3610675565b5b5f610bf1848285016106c3565b91505092915050565b5f604082019050610c0d5f830185610a71565b610c1a6020830184610a71565b939250505056fea2646970667358221220090be4f67c5c30358066fbeb4cb4e14caa879b058987ff14ad1f13fd54f65b9164736f6c634300081c0033",
					"opcodes": "PUSH1 0xA0 PUSH1 0x40 MSTORE CALLVALUE DUP1 ISZERO PUSH2 0xF JUMPI PUSH0 PUSH0 REVERT JUMPDEST POP PUSH1 0x40 MLOAD PUSH2 0xF2C CODESIZE SUB DUP1 PUSH2 0xF2C DUP4 CODECOPY DUP2 DUP2 ADD PUSH1 0x40 MSTORE DUP2 ADD SWAP1 PUSH2 0x31 SWAP2 SWAP1 PUSH2 0x249 JUMP JUMPDEST DUP1 DUP3 DUP1 PUSH20 0xFFFFFFFFFFFFFFFFFFFFFFFFFFFFFFFFFFFFFFFF AND PUSH1 0x80 DUP2 PUSH20 0xFFFFFFFFFFFFFFFFFFFFFFFFFFFFFFFFFFFFFFFF AND DUP2 MSTORE POP POP POP PUSH0 PUSH20 0xFFFFFFFFFFFFFFFFFFFFFFFFFFFFFFFFFFFFFFFF AND DUP2 PUSH20 0xFFFFFFFFFFFFFFFFFFFFFFFFFFFFFFFFFFFFFFFF AND SUB PUSH2 0xD8 JUMPI PUSH0 PUSH1 0x40 MLOAD PUSH32 0x1E4FBDF700000000000000000000000000000000000000000000000000000000 DUP2 MSTORE PUSH1 0x4 ADD PUSH2 0xCF SWAP2 SWAP1 PUSH2 0x296 JUMP JUMPDEST PUSH1 0x40 MLOAD DUP1 SWAP2 SUB SWAP1 REVERT JUMPDEST PUSH2 0xE7 DUP2 PUSH2 0xEF PUSH1 0x20 SHL PUSH1 0x20 SHR JUMP JUMPDEST POP POP POP PUSH2 0x2AF JUMP JUMPDEST PUSH0 PUSH0 PUSH0 SWAP1 SLOAD SWAP1 PUSH2 0x100 EXP SWAP1 DIV PUSH20 0xFFFFFFFFFFFFFFFFFFFFFFFFFFFFFFFFFFFFFFFF AND SWAP1 POP DUP2 PUSH0 PUSH0 PUSH2 0x100 EXP DUP2 SLOAD DUP2 PUSH20 0xFFFFFFFFFFFFFFFFFFFFFFFFFFFFFFFFFFFFFFFF MUL NOT AND SWAP1 DUP4 PUSH20 0xFFFFFFFFFFFFFFFFFFFFFFFFFFFFFFFFFFFFFFFF AND MUL OR SWAP1 SSTORE POP DUP2 PUSH20 0xFFFFFFFFFFFFFFFFFFFFFFFFFFFFFFFFFFFFFFFF AND DUP2 PUSH20 0xFFFFFFFFFFFFFFFFFFFFFFFFFFFFFFFFFFFFFFFF AND PUSH32 0x8BE0079C531659141344CD1FD0A4F28419497F9722A3DAAFE3B4186F6B6457E0 PUSH1 0x40 MLOAD PUSH1 0x40 MLOAD DUP1 SWAP2 SUB SWAP1 LOG3 POP POP JUMP JUMPDEST PUSH0 PUSH0 REVERT JUMPDEST PUSH0 PUSH20 0xFFFFFFFFFFFFFFFFFFFFFFFFFFFFFFFFFFFFFFFF DUP3 AND SWAP1 POP SWAP2 SWAP1 POP JUMP JUMPDEST PUSH0 PUSH2 0x1DD DUP3 PUSH2 0x1B4 JUMP JUMPDEST SWAP1 POP SWAP2 SWAP1 POP JUMP JUMPDEST PUSH0 PUSH2 0x1EE DUP3 PUSH2 0x1D3 JUMP JUMPDEST SWAP1 POP SWAP2 SWAP1 POP JUMP JUMPDEST PUSH2 0x1FE DUP2 PUSH2 0x1E4 JUMP JUMPDEST DUP2 EQ PUSH2 0x208 JUMPI PUSH0 PUSH0 REVERT JUMPDEST POP JUMP JUMPDEST PUSH0 DUP2 MLOAD SWAP1 POP PUSH2 0x219 DUP2 PUSH2 0x1F5 JUMP JUMPDEST SWAP3 SWAP2 POP POP JUMP JUMPDEST PUSH2 0x228 DUP2 PUSH2 0x1D3 JUMP JUMPDEST DUP2 EQ PUSH2 0x232 JUMPI PUSH0 PUSH0 REVERT JUMPDEST POP JUMP JUMPDEST PUSH0 DUP2 MLOAD SWAP1 POP PUSH2 0x243 DUP2 PUSH2 0x21F JUMP JUMPDEST SWAP3 SWAP2 POP POP JUMP JUMPDEST PUSH0 PUSH0 PUSH1 0x40 DUP4 DUP6 SUB SLT ISZERO PUSH2 0x25F JUMPI PUSH2 0x25E PUSH2 0x1B0 JUMP JUMPDEST JUMPDEST PUSH0 PUSH2 0x26C DUP6 DUP3 DUP7 ADD PUSH2 0x20B JUMP JUMPDEST SWAP3 POP POP PUSH1 0x20 PUSH2 0x27D DUP6 DUP3 DUP7 ADD PUSH2 0x235 JUMP JUMPDEST SWAP2 POP POP SWAP3 POP SWAP3 SWAP1 POP JUMP JUMPDEST PUSH2 0x290 DUP2 PUSH2 0x1D3 JUMP JUMPDEST DUP3 MSTORE POP POP JUMP JUMPDEST PUSH0 PUSH1 0x20 DUP3 ADD SWAP1 POP PUSH2 0x2A9 PUSH0 DUP4 ADD DUP5 PUSH2 0x287 JUMP JUMPDEST SWAP3 SWAP2 POP POP JUMP JUMPDEST PUSH1 0x80 MLOAD PUSH2 0xC57 PUSH2 0x2D5 PUSH0 CODECOPY PUSH0 DUP2 DUP2 PUSH2 0x28E ADD MSTORE DUP2 DUP2 PUSH2 0x32E ADD MSTORE PUSH2 0x3D9 ADD MSTORE PUSH2 0xC57 PUSH0 RETURN INVALID PUSH1 0x80 PUSH1 0x40 MSTORE PUSH1 0x4 CALLDATASIZE LT PUSH2 0x73 JUMPI PUSH0 CALLDATALOAD PUSH1 0xE0 SHR DUP1 PUSH4 0xA9A23409 GT PUSH2 0x4D JUMPI DUP1 PUSH4 0xA9A23409 EQ PUSH2 0xE6 JUMPI DUP1 PUSH4 0xB0D691FE EQ PUSH2 0x10E JUMPI DUP1 PUSH4 0xF2FDE38B EQ PUSH2 0x138 JUMPI DUP1 PUSH4 0xF465C77E EQ PUSH2 0x160 JUMPI PUSH2 0x7A JUMP JUMPDEST DUP1 PUSH4 0x205C2878 EQ PUSH2 0x7E JUMPI DUP1 PUSH4 0x715018A6 EQ PUSH2 0xA6 JUMPI DUP1 PUSH4 0x8DA5CB5B EQ PUSH2 0xBC JUMPI PUSH2 0x7A JUMP JUMPDEST CALLDATASIZE PUSH2 0x7A JUMPI STOP JUMPDEST PUSH0 PUSH0 REVERT JUMPDEST CALLVALUE DUP1 ISZERO PUSH2 0x89 JUMPI PUSH0 PUSH0 REVERT JUMPDEST POP PUSH2 0xA4 PUSH1 0x4 DUP1 CALLDATASIZE SUB DUP2 ADD SWAP1 PUSH2 0x9F SWAP2 SWAP1 PUSH2 0x70A JUMP JUMPDEST PUSH2 0x19D JUMP JUMPDEST STOP JUMPDEST CALLVALUE DUP1 ISZERO PUSH2 0xB1 JUMPI PUSH0 PUSH0 REVERT JUMPDEST POP PUSH2 0xBA PUSH2 0x252 JUMP JUMPDEST STOP JUMPDEST CALLVALUE DUP1 ISZERO PUSH2 0xC7 JUMPI PUSH0 PUSH0 REVERT JUMPDEST POP PUSH2 0xD0 PUSH2 0x265 JUMP JUMPDEST PUSH1 0x40 MLOAD PUSH2 0xDD SWAP2 SWAP1 PUSH2 0x768 JUMP JUMPDEST PUSH1 0x40 MLOAD DUP1 SWAP2 SUB SWAP1 RETURN JUMPDEST CALLVALUE DUP1 ISZERO PUSH2 0xF1 JUMPI PUSH0 PUSH0 REVERT JUMPDEST POP PUSH2 0x10C PUSH1 0x4 DUP1 CALLDATASIZE SUB DUP2 ADD SWAP1 PUSH2 0x107 SWAP2 SWAP1 PUSH2 0x805 JUMP JUMPDEST PUSH2 0x28C JUMP JUMPDEST STOP JUMPDEST CALLVALUE DUP1 ISZERO PUSH2 0x119 JUMPI PUSH0 PUSH0 REVERT JUMPDEST POP PUSH2 0x122 PUSH2 0x32C JUMP JUMPDEST PUSH1 0x40 MLOAD PUSH2 0x12F SWAP2 SWAP1 PUSH2 0x8D1 JUMP JUMPDEST PUSH1 0x40 MLOAD DUP1 SWAP2 SUB SWAP1 RETURN JUMPDEST CALLVALUE DUP1 ISZERO PUSH2 0x143 JUMPI PUSH0 PUSH0 REVERT JUMPDEST POP PUSH2 0x15E PUSH1 0x4 DUP1 CALLDATASIZE SUB DUP2 ADD SWAP1 PUSH2 0x159 SWAP2 SWAP1 PUSH2 0x914 JUMP JUMPDEST PUSH2 0x350 JUMP JUMPDEST STOP JUMPDEST CALLVALUE DUP1 ISZERO PUSH2 0x16B JUMPI PUSH0 PUSH0 REVERT JUMPDEST POP PUSH2 0x186 PUSH1 0x4 DUP1 CALLDATASIZE SUB DUP2 ADD SWAP1 PUSH2 0x181 SWAP2 SWAP1 PUSH2 0x995 JUMP JUMPDEST PUSH2 0x3D4 JUMP JUMPDEST PUSH1 0x40 MLOAD PUSH2 0x194 SWAP3 SWAP2 SWAP1 PUSH2 0xA80 JUMP JUMPDEST PUSH1 0x40 MLOAD DUP1 SWAP2 SUB SWAP1 RETURN JUMPDEST PUSH2 0x1A5 PUSH2 0x47C JUMP JUMPDEST PUSH0 DUP3 PUSH20 0xFFFFFFFFFFFFFFFFFFFFFFFFFFFFFFFFFFFFFFFF AND DUP3 PUSH1 0x40 MLOAD PUSH2 0x1CA SWAP1 PUSH2 0xADB JUMP JUMPDEST PUSH0 PUSH1 0x40 MLOAD DUP1 DUP4 SUB DUP2 DUP6 DUP8 GAS CALL SWAP3 POP POP POP RETURNDATASIZE DUP1 PUSH0 DUP2 EQ PUSH2 0x204 JUMPI PUSH1 0x40 MLOAD SWAP2 POP PUSH1 0x1F NOT PUSH1 0x3F RETURNDATASIZE ADD AND DUP3 ADD PUSH1 0x40 MSTORE RETURNDATASIZE DUP3 MSTORE RETURNDATASIZE PUSH0 PUSH1 0x20 DUP5 ADD RETURNDATACOPY PUSH2 0x209 JUMP JUMPDEST PUSH1 0x60 SWAP2 POP JUMPDEST POP POP SWAP1 POP DUP1 PUSH2 0x24D JUMPI PUSH1 0x40 MLOAD PUSH32 0x8C379A000000000000000000000000000000000000000000000000000000000 DUP2 MSTORE PUSH1 0x4 ADD PUSH2 0x244 SWAP1 PUSH2 0xB49 JUMP JUMPDEST PUSH1 0x40 MLOAD DUP1 SWAP2 SUB SWAP1 REVERT JUMPDEST POP POP POP JUMP JUMPDEST PUSH2 0x25A PUSH2 0x47C JUMP JUMPDEST PUSH2 0x263 PUSH0 PUSH2 0x503 JUMP JUMPDEST JUMP JUMPDEST PUSH0 PUSH0 PUSH0 SWAP1 SLOAD SWAP1 PUSH2 0x100 EXP SWAP1 DIV PUSH20 0xFFFFFFFFFFFFFFFFFFFFFFFFFFFFFFFFFFFFFFFF AND SWAP1 POP SWAP1 JUMP JUMPDEST PUSH32 0x0 PUSH20 0xFFFFFFFFFFFFFFFFFFFFFFFFFFFFFFFFFFFFFFFF AND CALLER PUSH20 0xFFFFFFFFFFFFFFFFFFFFFFFFFFFFFFFFFFFFFFFF AND EQ PUSH2 0x31A JUMPI PUSH1 0x40 MLOAD PUSH32 0x8C379A000000000000000000000000000000000000000000000000000000000 DUP2 MSTORE PUSH1 0x4 ADD PUSH2 0x311 SWAP1 PUSH2 0xBB1 JUMP JUMPDEST PUSH1 0x40 MLOAD DUP1 SWAP2 SUB SWAP1 REVERT JUMPDEST PUSH2 0x326 DUP5 DUP5 DUP5 DUP5 PUSH2 0x5C4 JUMP JUMPDEST POP POP POP POP JUMP JUMPDEST PUSH32 0x0 DUP2 JUMP JUMPDEST PUSH2 0x358 PUSH2 0x47C JUMP JUMPDEST PUSH0 PUSH20 0xFFFFFFFFFFFFFFFFFFFFFFFFFFFFFFFFFFFFFFFF AND DUP2 PUSH20 0xFFFFFFFFFFFFFFFFFFFFFFFFFFFFFFFFFFFFFFFF AND SUB PUSH2 0x3C8 JUMPI PUSH0 PUSH1 0x40 MLOAD PUSH32 0x1E4FBDF700000000000000000000000000000000000000000000000000000000 DUP2 MSTORE PUSH1 0x4 ADD PUSH2 0x3BF SWAP2 SWAP1 PUSH2 0x768 JUMP JUMPDEST PUSH1 0x40 MLOAD DUP1 SWAP2 SUB SWAP1 REVERT JUMPDEST PUSH2 0x3D1 DUP2 PUSH2 0x503 JUMP JUMPDEST POP JUMP JUMPDEST PUSH1 0x60 PUSH0 PUSH32 0x0 PUSH20 0xFFFFFFFFFFFFFFFFFFFFFFFFFFFFFFFFFFFFFFFF AND CALLER PUSH20 0xFFFFFFFFFFFFFFFFFFFFFFFFFFFFFFFFFFFFFFFF AND EQ PUSH2 0x465 JUMPI PUSH1 0x40 MLOAD PUSH32 0x8C379A000000000000000000000000000000000000000000000000000000000 DUP2 MSTORE PUSH1 0x4 ADD PUSH2 0x45C SWAP1 PUSH2 0xBB1 JUMP JUMPDEST PUSH1 0x40 MLOAD DUP1 SWAP2 SUB SWAP1 REVERT JUMPDEST PUSH2 0x470 DUP6 DUP6 DUP6 PUSH2 0x62D JUMP JUMPDEST SWAP2 POP SWAP2 POP SWAP4 POP SWAP4 SWAP2 POP POP JUMP JUMPDEST PUSH2 0x484 PUSH2 0x66E JUMP JUMPDEST PUSH20 0xFFFFFFFFFFFFFFFFFFFFFFFFFFFFFFFFFFFFFFFF AND PUSH2 0x4A2 PUSH2 0x265 JUMP JUMPDEST PUSH20 0xFFFFFFFFFFFFFFFFFFFFFFFFFFFFFFFFFFFFFFFF AND EQ PUSH2 0x501 JUMPI PUSH2 0x4C5 PUSH2 0x66E JUMP JUMPDEST PUSH1 0x40 MLOAD PUSH32 0x118CDAA700000000000000000000000000000000000000000000000000000000 DUP2 MSTORE PUSH1 0x4 ADD PUSH2 0x4F8 SWAP2 SWAP1 PUSH2 0x768 JUMP JUMPDEST PUSH1 0x40 MLOAD DUP1 SWAP2 SUB SWAP1 REVERT JUMPDEST JUMP JUMPDEST PUSH0 PUSH0 PUSH0 SWAP1 SLOAD SWAP1 PUSH2 0x100 EXP SWAP1 DIV PUSH20 0xFFFFFFFFFFFFFFFFFFFFFFFFFFFFFFFFFFFFFFFF AND SWAP1 POP DUP2 PUSH0 PUSH0 PUSH2 0x100 EXP DUP2 SLOAD DUP2 PUSH20 0xFFFFFFFFFFFFFFFFFFFFFFFFFFFFFFFFFFFFFFFF MUL NOT AND SWAP1 DUP4 PUSH20 0xFFFFFFFFFFFFFFFFFFFFFFFFFFFFFFFFFFFFFFFF AND MUL OR SWAP1 SSTORE POP DUP2 PUSH20 0xFFFFFFFFFFFFFFFFFFFFFFFFFFFFFFFFFFFFFFFF AND DUP2 PUSH20 0xFFFFFFFFFFFFFFFFFFFFFFFFFFFFFFFFFFFFFFFF AND PUSH32 0x8BE0079C531659141344CD1FD0A4F28419497F9722A3DAAFE3B4186F6B6457E0 PUSH1 0x40 MLOAD PUSH1 0x40 MLOAD DUP1 SWAP2 SUB SWAP1 LOG3 POP POP JUMP JUMPDEST PUSH0 DUP4 DUP4 DUP2 ADD SWAP1 PUSH2 0x5D4 SWAP2 SWAP1 PUSH2 0xBCF JUMP JUMPDEST SWAP1 POP DUP1 PUSH20 0xFFFFFFFFFFFFFFFFFFFFFFFFFFFFFFFFFFFFFFFF AND PUSH32 0xB3D8DA13E2EEC10930982AE94CC39CD56A1E686B864A50F632765647BDFE622B DUP4 TIMESTAMP PUSH1 0x40 MLOAD PUSH2 0x61E SWAP3 SWAP2 SWAP1 PUSH2 0xBFA JUMP JUMPDEST PUSH1 0x40 MLOAD DUP1 SWAP2 SUB SWAP1 LOG2 POP POP POP POP POP JUMP JUMPDEST PUSH1 0x60 PUSH0 DUP5 PUSH0 ADD PUSH1 0x20 DUP2 ADD SWAP1 PUSH2 0x642 SWAP2 SWAP1 PUSH2 0x914 JUMP JUMPDEST PUSH1 0x40 MLOAD PUSH1 0x20 ADD PUSH2 0x652 SWAP2 SWAP1 PUSH2 0x768 JUMP JUMPDEST PUSH1 0x40 MLOAD PUSH1 0x20 DUP2 DUP4 SUB SUB DUP2 MSTORE SWAP1 PUSH1 0x40 MSTORE PUSH0 SWAP2 POP SWAP2 POP SWAP4 POP SWAP4 SWAP2 POP POP JUMP JUMPDEST PUSH0 CALLER SWAP1 POP SWAP1 JUMP JUMPDEST PUSH0 PUSH0 REVERT JUMPDEST PUSH0 PUSH0 REVERT JUMPDEST PUSH0 PUSH20 0xFFFFFFFFFFFFFFFFFFFFFFFFFFFFFFFFFFFFFFFF DUP3 AND SWAP1 POP SWAP2 SWAP1 POP JUMP JUMPDEST PUSH0 PUSH2 0x6A6 DUP3 PUSH2 0x67D JUMP JUMPDEST SWAP1 POP SWAP2 SWAP1 POP JUMP JUMPDEST PUSH2 0x6B6 DUP2 PUSH2 0x69C JUMP JUMPDEST DUP2 EQ PUSH2 0x6C0 JUMPI PUSH0 PUSH0 REVERT JUMPDEST POP JUMP JUMPDEST PUSH0 DUP2 CALLDATALOAD SWAP1 POP PUSH2 0x6D1 DUP2 PUSH2 0x6AD JUMP JUMPDEST SWAP3 SWAP2 POP POP JUMP JUMPDEST PUSH0 DUP2 SWAP1 POP SWAP2 SWAP1 POP JUMP JUMPDEST PUSH2 0x6E9 DUP2 PUSH2 0x6D7 JUMP JUMPDEST DUP2 EQ PUSH2 0x6F3 JUMPI PUSH0 PUSH0 REVERT JUMPDEST POP JUMP JUMPDEST PUSH0 DUP2 CALLDATALOAD SWAP1 POP PUSH2 0x704 DUP2 PUSH2 0x6E0 JUMP JUMPDEST SWAP3 SWAP2 POP POP JUMP JUMPDEST PUSH0 PUSH0 PUSH1 0x40 DUP4 DUP6 SUB SLT ISZERO PUSH2 0x720 JUMPI PUSH2 0x71F PUSH2 0x675 JUMP JUMPDEST JUMPDEST PUSH0 PUSH2 0x72D DUP6 DUP3 DUP7 ADD PUSH2 0x6C3 JUMP JUMPDEST SWAP3 POP POP PUSH1 0x20 PUSH2 0x73E DUP6 DUP3 DUP7 ADD PUSH2 0x6F6 JUMP JUMPDEST SWAP2 POP POP SWAP3 POP SWAP3 SWAP1 POP JUMP JUMPDEST PUSH0 PUSH2 0x752 DUP3 PUSH2 0x67D JUMP JUMPDEST SWAP1 POP SWAP2 SWAP1 POP JUMP JUMPDEST PUSH2 0x762 DUP2 PUSH2 0x748 JUMP JUMPDEST DUP3 MSTORE POP POP JUMP JUMPDEST PUSH0 PUSH1 0x20 DUP3 ADD SWAP1 POP PUSH2 0x77B PUSH0 DUP4 ADD DUP5 PUSH2 0x759 JUMP JUMPDEST SWAP3 SWAP2 POP POP JUMP JUMPDEST PUSH1 0x3 DUP2 LT PUSH2 0x78D JUMPI PUSH0 PUSH0 REVERT JUMPDEST POP JUMP JUMPDEST PUSH0 DUP2 CALLDATALOAD SWAP1 POP PUSH2 0x79E DUP2 PUSH2 0x781 JUMP JUMPDEST SWAP3 SWAP2 POP POP JUMP JUMPDEST PUSH0 PUSH0 REVERT JUMPDEST PUSH0 PUSH0 REVERT JUMPDEST PUSH0 PUSH0 REVERT JUMPDEST PUSH0 PUSH0 DUP4 PUSH1 0x1F DUP5 ADD SLT PUSH2 0x7C5 JUMPI PUSH2 0x7C4 PUSH2 0x7A4 JUMP JUMPDEST JUMPDEST DUP3 CALLDATALOAD SWAP1 POP PUSH8 0xFFFFFFFFFFFFFFFF DUP2 GT ISZERO PUSH2 0x7E2 JUMPI PUSH2 0x7E1 PUSH2 0x7A8 JUMP JUMPDEST JUMPDEST PUSH1 0x20 DUP4 ADD SWAP2 POP DUP4 PUSH1 0x1 DUP3 MUL DUP4 ADD GT ISZERO PUSH2 0x7FE JUMPI PUSH2 0x7FD PUSH2 0x7AC JUMP JUMPDEST JUMPDEST SWAP3 POP SWAP3 SWAP1 POP JUMP JUMPDEST PUSH0 PUSH0 PUSH0 PUSH0 PUSH1 0x60 DUP6 DUP8 SUB SLT ISZERO PUSH2 0x81D JUMPI PUSH2 0x81C PUSH2 0x675 JUMP JUMPDEST JUMPDEST PUSH0 PUSH2 0x82A DUP8 DUP3 DUP9 ADD PUSH2 0x790 JUMP JUMPDEST SWAP5 POP POP PUSH1 0x20 DUP6 ADD CALLDATALOAD PUSH8 0xFFFFFFFFFFFFFFFF DUP2 GT ISZERO PUSH2 0x84B JUMPI PUSH2 0x84A PUSH2 0x679 JUMP JUMPDEST JUMPDEST PUSH2 0x857 DUP8 DUP3 DUP9 ADD PUSH2 0x7B0 JUMP JUMPDEST SWAP4 POP SWAP4 POP POP PUSH1 0x40 PUSH2 0x86A DUP8 DUP3 DUP9 ADD PUSH2 0x6F6 JUMP JUMPDEST SWAP2 POP POP SWAP3 SWAP6 SWAP2 SWAP5 POP SWAP3 POP JUMP JUMPDEST PUSH0 DUP2 SWAP1 POP SWAP2 SWAP1 POP JUMP JUMPDEST PUSH0 PUSH2 0x899 PUSH2 0x894 PUSH2 0x88F DUP5 PUSH2 0x67D JUMP JUMPDEST PUSH2 0x876 JUMP JUMPDEST PUSH2 0x67D JUMP JUMPDEST SWAP1 POP SWAP2 SWAP1 POP JUMP JUMPDEST PUSH0 PUSH2 0x8AA DUP3 PUSH2 0x87F JUMP JUMPDEST SWAP1 POP SWAP2 SWAP1 POP JUMP JUMPDEST PUSH0 PUSH2 0x8BB DUP3 PUSH2 0x8A0 JUMP JUMPDEST SWAP1 POP SWAP2 SWAP1 POP JUMP JUMPDEST PUSH2 0x8CB DUP2 PUSH2 0x8B1 JUMP JUMPDEST DUP3 MSTORE POP POP JUMP JUMPDEST PUSH0 PUSH1 0x20 DUP3 ADD SWAP1 POP PUSH2 0x8E4 PUSH0 DUP4 ADD DUP5 PUSH2 0x8C2 JUMP JUMPDEST SWAP3 SWAP2 POP POP JUMP JUMPDEST PUSH2 0x8F3 DUP2 PUSH2 0x748 JUMP JUMPDEST DUP2 EQ PUSH2 0x8FD JUMPI PUSH0 PUSH0 REVERT JUMPDEST POP JUMP JUMPDEST PUSH0 DUP2 CALLDATALOAD SWAP1 POP PUSH2 0x90E DUP2 PUSH2 0x8EA JUMP JUMPDEST SWAP3 SWAP2 POP POP JUMP JUMPDEST PUSH0 PUSH1 0x20 DUP3 DUP5 SUB SLT ISZERO PUSH2 0x929 JUMPI PUSH2 0x928 PUSH2 0x675 JUMP JUMPDEST JUMPDEST PUSH0 PUSH2 0x936 DUP5 DUP3 DUP6 ADD PUSH2 0x900 JUMP JUMPDEST SWAP2 POP POP SWAP3 SWAP2 POP POP JUMP JUMPDEST PUSH0 PUSH0 REVERT JUMPDEST PUSH0 PUSH2 0x160 DUP3 DUP5 SUB SLT ISZERO PUSH2 0x959 JUMPI PUSH2 0x958 PUSH2 0x93F JUMP JUMPDEST JUMPDEST DUP2 SWAP1 POP SWAP3 SWAP2 POP POP JUMP JUMPDEST PUSH0 DUP2 SWAP1 POP SWAP2 SWAP1 POP JUMP JUMPDEST PUSH2 0x974 DUP2 PUSH2 0x962 JUMP JUMPDEST DUP2 EQ PUSH2 0x97E JUMPI PUSH0 PUSH0 REVERT JUMPDEST POP JUMP JUMPDEST PUSH0 DUP2 CALLDATALOAD SWAP1 POP PUSH2 0x98F DUP2 PUSH2 0x96B JUMP JUMPDEST SWAP3 SWAP2 POP POP JUMP JUMPDEST PUSH0 PUSH0 PUSH0 PUSH1 0x60 DUP5 DUP7 SUB SLT ISZERO PUSH2 0x9AC JUMPI PUSH2 0x9AB PUSH2 0x675 JUMP JUMPDEST JUMPDEST PUSH0 DUP5 ADD CALLDATALOAD PUSH8 0xFFFFFFFFFFFFFFFF DUP2 GT ISZERO PUSH2 0x9C9 JUMPI PUSH2 0x9C8 PUSH2 0x679 JUMP JUMPDEST JUMPDEST PUSH2 0x9D5 DUP7 DUP3 DUP8 ADD PUSH2 0x943 JUMP JUMPDEST SWAP4 POP POP PUSH1 0x20 PUSH2 0x9E6 DUP7 DUP3 DUP8 ADD PUSH2 0x981 JUMP JUMPDEST SWAP3 POP POP PUSH1 0x40 PUSH2 0x9F7 DUP7 DUP3 DUP8 ADD PUSH2 0x6F6 JUMP JUMPDEST SWAP2 POP POP SWAP3 POP SWAP3 POP SWAP3 JUMP JUMPDEST PUSH0 DUP2 MLOAD SWAP1 POP SWAP2 SWAP1 POP JUMP JUMPDEST PUSH0 DUP3 DUP3 MSTORE PUSH1 0x20 DUP3 ADD SWAP1 POP SWAP3 SWAP2 POP POP JUMP JUMPDEST DUP3 DUP2 DUP4 MCOPY PUSH0 DUP4 DUP4 ADD MSTORE POP POP POP JUMP JUMPDEST PUSH0 PUSH1 0x1F NOT PUSH1 0x1F DUP4 ADD AND SWAP1 POP SWAP2 SWAP1 POP JUMP JUMPDEST PUSH0 PUSH2 0xA43 DUP3 PUSH2 0xA01 JUMP JUMPDEST PUSH2 0xA4D DUP2 DUP6 PUSH2 0xA0B JUMP JUMPDEST SWAP4 POP PUSH2 0xA5D DUP2 DUP6 PUSH1 0x20 DUP7 ADD PUSH2 0xA1B JUMP JUMPDEST PUSH2 0xA66 DUP2 PUSH2 0xA29 JUMP JUMPDEST DUP5 ADD SWAP2 POP POP SWAP3 SWAP2 POP POP JUMP JUMPDEST PUSH2 0xA7A DUP2 PUSH2 0x6D7 JUMP JUMPDEST DUP3 MSTORE POP POP JUMP JUMPDEST PUSH0 PUSH1 0x40 DUP3 ADD SWAP1 POP DUP2 DUP2 SUB PUSH0 DUP4 ADD MSTORE PUSH2 0xA98 DUP2 DUP6 PUSH2 0xA39 JUMP JUMPDEST SWAP1 POP PUSH2 0xAA7 PUSH1 0x20 DUP4 ADD DUP5 PUSH2 0xA71 JUMP JUMPDEST SWAP4 SWAP3 POP POP POP JUMP JUMPDEST PUSH0 DUP2 SWAP1 POP SWAP3 SWAP2 POP POP JUMP JUMPDEST POP JUMP JUMPDEST PUSH0 PUSH2 0xAC6 PUSH0 DUP4 PUSH2 0xAAE JUMP JUMPDEST SWAP2 POP PUSH2 0xAD1 DUP3 PUSH2 0xAB8 JUMP JUMPDEST PUSH0 DUP3 ADD SWAP1 POP SWAP2 SWAP1 POP JUMP JUMPDEST PUSH0 PUSH2 0xAE5 DUP3 PUSH2 0xABB JUMP JUMPDEST SWAP2 POP DUP2 SWAP1 POP SWAP2 SWAP1 POP JUMP JUMPDEST PUSH0 DUP3 DUP3 MSTORE PUSH1 0x20 DUP3 ADD SWAP1 POP SWAP3 SWAP2 POP POP JUMP JUMPDEST PUSH32 0x5769746864726177206661696C65640000000000000000000000000000000000 PUSH0 DUP3 ADD MSTORE POP JUMP JUMPDEST PUSH0 PUSH2 0xB33 PUSH1 0xF DUP4 PUSH2 0xAEF JUMP JUMPDEST SWAP2 POP PUSH2 0xB3E DUP3 PUSH2 0xAFF JUMP JUMPDEST PUSH1 0x20 DUP3 ADD SWAP1 POP SWAP2 SWAP1 POP JUMP JUMPDEST PUSH0 PUSH1 0x20 DUP3 ADD SWAP1 POP DUP2 DUP2 SUB PUSH0 DUP4 ADD MSTORE PUSH2 0xB60 DUP2 PUSH2 0xB27 JUMP JUMPDEST SWAP1 POP SWAP2 SWAP1 POP JUMP JUMPDEST PUSH32 0x4F6E6C7920456E747279506F696E740000000000000000000000000000000000 PUSH0 DUP3 ADD MSTORE POP JUMP JUMPDEST PUSH0 PUSH2 0xB9B PUSH1 0xF DUP4 PUSH2 0xAEF JUMP JUMPDEST SWAP2 POP PUSH2 0xBA6 DUP3 PUSH2 0xB67 JUMP JUMPDEST PUSH1 0x20 DUP3 ADD SWAP1 POP SWAP2 SWAP1 POP JUMP JUMPDEST PUSH0 PUSH1 0x20 DUP3 ADD SWAP1 POP DUP2 DUP2 SUB PUSH0 DUP4 ADD MSTORE PUSH2 0xBC8 DUP2 PUSH2 0xB8F JUMP JUMPDEST SWAP1 POP SWAP2 SWAP1 POP JUMP JUMPDEST PUSH0 PUSH1 0x20 DUP3 DUP5 SUB SLT ISZERO PUSH2 0xBE4 JUMPI PUSH2 0xBE3 PUSH2 0x675 JUMP JUMPDEST JUMPDEST PUSH0 PUSH2 0xBF1 DUP5 DUP3 DUP6 ADD PUSH2 0x6C3 JUMP JUMPDEST SWAP2 POP POP SWAP3 SWAP2 POP POP JUMP JUMPDEST PUSH0 PUSH1 0x40 DUP3 ADD SWAP1 POP PUSH2 0xC0D PUSH0 DUP4 ADD DUP6 PUSH2 0xA71 JUMP JUMPDEST PUSH2 0xC1A PUSH1 0x20 DUP4 ADD DUP5 PUSH2 0xA71 JUMP JUMPDEST SWAP4 SWAP3 POP POP POP JUMP INVALID LOG2 PUSH5 0x6970667358 0x22 SLT KECCAK256 MULMOD SIGNEXTEND 0xE4 0xF6 PUSH29 0x5C30358066FBEB4CB4E14CAA879B058987FF14AD1F13FD54F65B916473 PUSH16 0x6C634300081C00330000000000000000 "
				},
				"gasEstimates": {
					"creation": {
						"codeDepositCost": "631800",
						"executionCost": "infinite",
						"totalCost": "infinite"
					},
					"external": {
						"entryPoint()": "infinite",
						"owner()": "2559",
						"postOp(uint8,bytes,uint256)": "infinite",
						"renounceOwnership()": "infinite",
						"transferOwnership(address)": "infinite",
						"validatePaymasterUserOp((address,uint256,bytes,bytes,uint256,uint256,uint256,uint256,uint256,bytes,bytes),bytes32,uint256)": "infinite",
						"withdrawTo(address,uint256)": "infinite"
					},
					"internal": {
						"_postOp(enum IPaymaster.PostOpMode,bytes calldata,uint256)": "infinite",
						"_validatePaymasterUserOp(struct UserOperation calldata,bytes32,uint256)": "infinite"
					}
				},
				"methodIdentifiers": {
					"entryPoint()": "b0d691fe",
					"owner()": "8da5cb5b",
					"postOp(uint8,bytes,uint256)": "a9a23409",
					"renounceOwnership()": "715018a6",
					"transferOwnership(address)": "f2fde38b",
					"validatePaymasterUserOp((address,uint256,bytes,bytes,uint256,uint256,uint256,uint256,uint256,bytes,bytes),bytes32,uint256)": "f465c77e",
					"withdrawTo(address,uint256)": "205c2878"
				}
			},
			"storageLayout": {
				"storage": [
					{
						"astId": 845,
						"contract": "contracts/SmartPayPaymaster.sol:SmartPayPaymaster",
						"label": "_owner",
						"offset": 0,
						"slot": "0",
						"type": "t_address"
					}
				],
				"types": {
					"t_address": {
						"encoding": "inplace",
						"label": "address",
						"numberOfBytes": "20"
					}
				}
			},
			"userdoc": {
				"kind": "user",
				"methods": {
					"postOp(uint8,bytes,uint256)": {
						"notice": "post-operation handler. Must verify sender is the entryPoint"
					},
					"validatePaymasterUserOp((address,uint256,bytes,bytes,uint256,uint256,uint256,uint256,uint256,bytes,bytes),bytes32,uint256)": {
						"notice": "payment validation: check if paymaster agrees to pay. Must verify sender is the entryPoint. Revert to reject this request. Note that bundlers will reject this method if it changes the state, unless the paymaster is trusted (whitelisted) The paymaster pre-pays using its deposit, and receive back a refund after the postOp method returns."
					}
				},
				"version": 1
			}
		}
	}
}