{
  "_format": "hh-sol-artifact-1",
  "contractName": "SmartPayPaymaster",
  "sourceName": "contracts/SmartPayPaymaster.sol",
  "abi": [
    {
      "inputs": [
        {
          "internalType": "contract IEntryPoint",
          "name": "_entryPoint",
          "type": "address"
        },
        {
          "internalType": "address",
          "name": "initialOwner",
          "type": "address"
        }
      ],
      "stateMutability": "nonpayable",
      "type": "constructor"
    },
    {
      "inputs": [
        {
          "internalType": "address",
          "name": "owner",
          "type": "address"
        }
      ],
      "name": "OwnableInvalidOwner",
      "type": "error"
    },
    {
      "inputs": [
        {
          "internalType": "address",
          "name": "account",
          "type": "address"
        }
      ],
      "name": "OwnableUnauthorizedAccount",
      "type": "error"
    },
    {
      "anonymous": false,
      "inputs": [
        {
          "indexed": true,
          "internalType": "address",
          "name": "sender",
          "type": "address"
        },
        {
          "indexed": false,
          "internalType": "uint256",
          "name": "gasUsed",
          "type": "uint256"
        },
        {
          "indexed": false,
          "internalType": "uint256",
          "name": "timestamp",
          "type": "uint256"
        }
      ],
      "name": "GasSponsored",
      "type": "event"
    },
    {
      "anonymous": false,
      "inputs": [
        {
          "indexed": true,
          "internalType": "address",
          "name": "previousOwner",
          "type": "address"
        },
        {
          "indexed": true,
          "internalType": "address",
          "name": "newOwner",
          "type": "address"
        }
      ],
      "name": "OwnershipTransferred",
      "type": "event"
    },
    {
      "inputs": [],
      "name": "entryPoint",
      "outputs": [
        {
          "internalType": "contract IEntryPoint",
          "name": "",
          "type": "address"
        }
      ],
      "stateMutability": "view",
      "type": "function"
    },
    {
      "inputs": [],
      "name": "owner",
      "outputs": [
        {
          "internalType": "address",
          "name": "",
          "type": "address"
        }
      ],
      "stateMutability": "view",
      "type": "function"
    },
    {
      "inputs": [
        {
          "internalType": "enum IPaymaster.PostOpMode",
          "name": "mode",
          "type": "uint8"
        },
        {
          "internalType": "bytes",
          "name": "context",
          "type": "bytes"
        },
        {
          "internalType": "uint256",
          "name": "actualGasCost",
          "type": "uint256"
        }
      ],
      "name": "postOp",
      "outputs": [],
      "stateMutability": "nonpayable",
      "type": "function"
    },
    {
      "inputs": [],
      "name": "renounceOwnership",
      "outputs": [],
      "stateMutability": "nonpayable",
      "type": "function"
    },
    {
      "inputs": [
        {
          "internalType": "address",
          "name": "newOwner",
          "type": "address"
        }
      ],
      "name": "transferOwnership",
      "outputs": [],
      "stateMutability": "nonpayable",
      "type": "function"
    },
    {
      "inputs": [
        {
          "components": [
            {
              "internalType": "address",
              "name": "sender",
              "type": "address"
            },
            {
              "internalType": "uint256",
              "name": "nonce",
              "type": "uint256"
            },
            {
              "internalType": "bytes",
              "name": "initCode",
              "type": "bytes"
            },
            {
              "internalType": "bytes",
              "name": "callData",
              "type": "bytes"
            },
            {
              "internalType": "uint256",
              "name": "callGasLimit",
              "type": "uint256"
            },
            {
              "internalType": "uint256",
              "name": "verificationGasLimit",
              "type": "uint256"
            },
            {
              "internalType": "uint256",
              "name": "preVerificationGas",
              "type": "uint256"
            },
            {
              "internalType": "uint256",
              "name": "maxFeePerGas",
              "type": "uint256"
            },
            {
              "internalType": "uint256",
              "name": "maxPriorityFeePerGas",
              "type": "uint256"
            },
            {
              "internalType": "bytes",
              "name": "paymasterAndData",
              "type": "bytes"
            },
            {
              "internalType": "bytes",
              "name": "signature",
              "type": "bytes"
            }
          ],
          "internalType": "struct UserOperation",
          "name": "userOp",
          "type": "tuple"
        },
        {
          "internalType": "bytes32",
          "name": "userOpHash",
          "type": "bytes32"
        },
        {
          "internalType": "uint256",
          "name": "maxCost",
          "type": "uint256"
        }
      ],
      "name": "validatePaymasterUserOp",
      "outputs": [
        {
          "internalType": "bytes",
          "name": "context",
          "type": "bytes"
        },
        {
          "internalType": "uint256",
          "name": "validationData",
          "type": "uint256"
        }
      ],
      "stateMutability": "nonpayable",
      "type": "function"
    },
    {
      "inputs": [
        {
          "internalType": "address payable",
          "name": "to",
          "type": "address"
        },
        {
          "internalType": "uint256",
          "name": "amount",
          "type": "uint256"
        }
      ],
      "name": "withdrawTo",
      "outputs": [],
      "stateMutability": "nonpayable",
      "type": "function"
    },
    {
      "stateMutability": "payable",
      "type": "receive"
    }
  ],
  "bytecode": "0x60a060405234801561001057600080fd5b50604051610fb9380380610fb983398181016040528101906100329190610257565b80828073ffffffffffffffffffffffffffffffffffffffff1660808173ffffffffffffffffffffffffffffffffffffffff168152505050600073ffffffffffffffffffffffffffffffffffffffff168173ffffffffffffffffffffffffffffffffffffffff16036100db5760006040517f1e4fbdf70000000000000000000000000000000000000000000000000000000081526004016100d291906102a6565b60405180910390fd5b6100ea816100f260201b60201c565b5050506102c1565b60008060009054906101000a900473ffffffffffffffffffffffffffffffffffffffff169050816000806101000a81548173ffffffffffffffffffffffffffffffffffffffff021916908373ffffffffffffffffffffffffffffffffffffffff1602179055508173ffffffffffffffffffffffffffffffffffffffff168173ffffffffffffffffffffffffffffffffffffffff167f8be0079c531659141344cd1fd0a4f28419497f9722a3daafe3b4186f6b6457e060405160405180910390a35050565b600080fd5b600073ffffffffffffffffffffffffffffffffffffffff82169050919050565b60006101e6826101bb565b9050919050565b60006101f8826101db565b9050919050565b610208816101ed565b811461021357600080fd5b50565b600081519050610225816101ff565b92915050565b610234816101db565b811461023f57600080fd5b50565b6000815190506102518161022b565b92915050565b6000806040838503121561026e5761026d6101b6565b5b600061027c85828601610216565b925050602061028d85828601610242565b9150509250929050565b6102a0816101db565b82525050565b60006020820190506102bb6000830184610297565b92915050565b608051610ccf6102ea6000396000818161029e0152818161033e01526103ec0152610ccf6000f3fe6080604052600436106100745760003560e01c8063a9a234091161004e578063a9a23409146100eb578063b0d691fe14610114578063f2fde38b1461013f578063f465c77e146101685761007b565b8063205c287814610080578063715018a6146100a95780638da5cb5b146100c05761007b565b3661007b57005b600080fd5b34801561008c57600080fd5b506100a760048036038101906100a2919061072e565b6101a6565b005b3480156100b557600080fd5b506100be61025f565b005b3480156100cc57600080fd5b506100d5610273565b6040516100e2919061078f565b60405180910390f35b3480156100f757600080fd5b50610112600480360381019061010d9190610834565b61029c565b005b34801561012057600080fd5b5061012961033c565b6040516101369190610907565b60405180910390f35b34801561014b57600080fd5b506101666004803603810190610161919061094e565b610360565b005b34801561017457600080fd5b5061018f600480360381019061018a91906109d6565b6103e6565b60405161019d929190610ae4565b60405180910390f35b6101ae61048f565b60008273ffffffffffffffffffffffffffffffffffffffff16826040516101d490610b45565b60006040518083038185875af1925050503d8060008114610211576040519150601f19603f3d011682016040523d82523d6000602084013e610216565b606091505b505090508061025a576040517f08c379a000000000000000000000000000000000000000000000000000000000815260040161025190610bb7565b60405180910390fd5b505050565b61026761048f565b6102716000610516565b565b60008060009054906101000a900473ffffffffffffffffffffffffffffffffffffffff16905090565b7f000000000000000000000000000000000000000000000000000000000000000073ffffffffffffffffffffffffffffffffffffffff163373ffffffffffffffffffffffffffffffffffffffff161461032a576040517f08c379a000000000000000000000000000000000000000000000000000000000815260040161032190610c23565b60405180910390fd5b610336848484846105da565b50505050565b7f000000000000000000000000000000000000000000000000000000000000000081565b61036861048f565b600073ffffffffffffffffffffffffffffffffffffffff168173ffffffffffffffffffffffffffffffffffffffff16036103da5760006040517f1e4fbdf70000000000000000000000000000000000000000000000000000000081526004016103d1919061078f565b60405180910390fd5b6103e381610516565b50565b606060007f000000000000000000000000000000000000000000000000000000000000000073ffffffffffffffffffffffffffffffffffffffff163373ffffffffffffffffffffffffffffffffffffffff1614610478576040517f08c379a000000000000000000000000000000000000000000000000000000000815260040161046f90610c23565b60405180910390fd5b610483858585610644565b91509150935093915050565b610497610688565b73ffffffffffffffffffffffffffffffffffffffff166104b5610273565b73ffffffffffffffffffffffffffffffffffffffff1614610514576104d8610688565b6040517f118cdaa700000000000000000000000000000000000000000000000000000000815260040161050b919061078f565b60405180910390fd5b565b60008060009054906101000a900473ffffffffffffffffffffffffffffffffffffffff169050816000806101000a81548173ffffffffffffffffffffffffffffffffffffffff021916908373ffffffffffffffffffffffffffffffffffffffff1602179055508173ffffffffffffffffffffffffffffffffffffffff168173ffffffffffffffffffffffffffffffffffffffff167f8be0079c531659141344cd1fd0a4f28419497f9722a3daafe3b4186f6b6457e060405160405180910390a35050565b600083838101906105eb9190610c43565b90508073ffffffffffffffffffffffffffffffffffffffff167fb3d8da13e2eec10930982ae94cc39cd56a1e686b864a50f632765647bdfe622b8342604051610635929190610c70565b60405180910390a25050505050565b6060600084600001602081019061065b919061094e565b60405160200161066b919061078f565b604051602081830303815290604052600091509150935093915050565b600033905090565b600080fd5b600080fd5b600073ffffffffffffffffffffffffffffffffffffffff82169050919050565b60006106c58261069a565b9050919050565b6106d5816106ba565b81146106e057600080fd5b50565b6000813590506106f2816106cc565b92915050565b6000819050919050565b61070b816106f8565b811461071657600080fd5b50565b60008135905061072881610702565b92915050565b6000806040838503121561074557610744610690565b5b6000610753858286016106e3565b925050602061076485828601610719565b9150509250929050565b60006107798261069a565b9050919050565b6107898161076e565b82525050565b60006020820190506107a46000830184610780565b92915050565b600381106107b757600080fd5b50565b6000813590506107c9816107aa565b92915050565b600080fd5b600080fd5b600080fd5b60008083601f8401126107f4576107f36107cf565b5b8235905067ffffffffffffffff811115610811576108106107d4565b5b60208301915083600182028301111561082d5761082c6107d9565b5b9250929050565b6000806000806060858703121561084e5761084d610690565b5b600061085c878288016107ba565b945050602085013567ffffffffffffffff81111561087d5761087c610695565b5b610889878288016107de565b9350935050604061089c87828801610719565b91505092959194509250565b6000819050919050565b60006108cd6108c86108c38461069a565b6108a8565b61069a565b9050919050565b60006108df826108b2565b9050919050565b60006108f1826108d4565b9050919050565b610901816108e6565b82525050565b600060208201905061091c60008301846108f8565b92915050565b61092b8161076e565b811461093657600080fd5b50565b60008135905061094881610922565b92915050565b60006020828403121561096457610963610690565b5b600061097284828501610939565b91505092915050565b600080fd5b600061016082840312156109975761099661097b565b5b81905092915050565b6000819050919050565b6109b3816109a0565b81146109be57600080fd5b50565b6000813590506109d0816109aa565b92915050565b6000806000606084860312156109ef576109ee610690565b5b600084013567ffffffffffffffff811115610a0d57610a0c610695565b5b610a1986828701610980565b9350506020610a2a868287016109c1565b9250506040610a3b86828701610719565b9150509250925092565b600081519050919050565b600082825260208201905092915050565b60005b83811015610a7f578082015181840152602081019050610a64565b60008484015250505050565b6000601f19601f8301169050919050565b6000610aa782610a45565b610ab18185610a50565b9350610ac1818560208601610a61565b610aca81610a8b565b840191505092915050565b610ade816106f8565b82525050565b60006040820190508181036000830152610afe8185610a9c565b9050610b0d6020830184610ad5565b9392505050565b600081905092915050565b50565b6000610b2f600083610b14565b9150610b3a82610b1f565b600082019050919050565b6000610b5082610b22565b9150819050919050565b600082825260208201905092915050565b7f5769746864726177206661696c65640000000000000000000000000000000000600082015250565b6000610ba1600f83610b5a565b9150610bac82610b6b565b602082019050919050565b60006020820190508181036000830152610bd081610b94565b9050919050565b7f4f6e6c7920456e747279506f696e740000000000000000000000000000000000600082015250565b6000610c0d600f83610b5a565b9150610c1882610bd7565b602082019050919050565b60006020820190508181036000830152610c3c81610c00565b9050919050565b600060208284031215610c5957610c58610690565b5b6000610c67848285016106e3565b91505092915050565b6000604082019050610c856000830185610ad5565b610c926020830184610ad5565b939250505056fea26469706673582212205e077ec2a1df553b2bab3130dc349a73e01d2b63fdd99751d6e7e6994e15db9764736f6c634300081c0033",
  "linkReferences": {},
  "deployedLinkReferences": {}
}