{
  "_format": "hh-sol-artifact-1",
  "contractName": "SmartPayWallet",
  "sourceName": "contracts/SmartPayWallet.sol",
  "abi": [
    {
      "inputs": [
        {
          "internalType": "contract IEntryPoint",
          "name": "_ep",
          "type": "address"
        },
        {
          "internalType": "address",
          "name": "initialOwner",
          "type": "address"
        }
      ],
      "stateMutability": "nonpayable",
      "type": "constructor"
    },
    {
      "inputs": [],
      "name": "ECDSAInvalidSignature",
      "type": "error"
    },
    {
      "inputs": [
        {
          "internalType": "uint256",
          "name": "length",
          "type": "uint256"
        }
      ],
      "name": "ECDSAInvalidSignatureLength",
      "type": "error"
    },
    {
      "inputs": [
        {
          "internalType": "bytes32",
          "name": "s",
          "type": "bytes32"
        }
      ],
      "name": "ECDSAInvalidSignatureS",
      "type": "error"
    },
    {
      "anonymous": false,
      "inputs": [
        {
          "indexed": true,
          "internalType": "address",
          "name": "to",
          "type": "address"
        },
        {
          "indexed": true,
          "internalType": "address",
          "name": "feeReceiver",
          "type": "address"
        },
        {
          "indexed": false,
          "internalType": "uint256",
          "name": "feeAmount",
          "type": "uint256"
        }
      ],
      "name": "FeeTransfered",
      "type": "event"
    },
    {
      "anonymous": false,
      "inputs": [
        {
          "indexed": false,
          "internalType": "address",
          "name": "guardian",
          "type": "address"
        }
      ],
      "name": "GuardianAdded",
      "type": "event"
    },
    {
      "anonymous": false,
      "inputs": [
        {
          "indexed": false,
          "internalType": "address",
          "name": "guardian",
          "type": "address"
        }
      ],
      "name": "GuardianApproved",
      "type": "event"
    },
    {
      "anonymous": false,
      "inputs": [
        {
          "indexed": false,
          "internalType": "address",
          "name": "guardian",
          "type": "address"
        }
      ],
      "name": "GuardianRemoved",
      "type": "event"
    },
    {
      "anonymous": false,
      "inputs": [
        {
          "indexed": true,
          "internalType": "address",
          "name": "oldOwner",
          "type": "address"
        },
        {
          "indexed": true,
          "internalType": "address",
          "name": "newOwner",
          "type": "address"
        }
      ],
      "name": "OwnerChanged",
      "type": "event"
    },
    {
      "anonymous": false,
      "inputs": [
        {
          "indexed": true,
          "internalType": "address",
          "name": "newRecovery",
          "type": "address"
        }
      ],
      "name": "RecoveryAddressSet",
      "type": "event"
    },
    {
      "anonymous": false,
      "inputs": [],
      "name": "RecoveryCancelled",
      "type": "event"
    },
    {
      "anonymous": false,
      "inputs": [
        {
          "indexed": true,
          "internalType": "address",
          "name": "newOwner",
          "type": "address"
        }
      ],
      "name": "RecoveryFinalized",
      "type": "event"
    },
    {
      "anonymous": false,
      "inputs": [
        {
          "indexed": true,
          "internalType": "address",
          "name": "by",
          "type": "address"
        },
        {
          "indexed": true,
          "internalType": "address",
          "name": "newOwner",
          "type": "address"
        },
        {
          "indexed": false,
          "internalType": "uint256",
          "name": "timestamp",
          "type": "uint256"
        }
      ],
      "name": "RecoveryInitiated",
      "type": "event"
    },
    {
      "inputs": [],
      "name": "RECOVERY_DELAY",
      "outputs": [
        {
          "internalType": "uint256",
          "name": "",
          "type": "uint256"
        }
      ],
      "stateMutability": "view",
      "type": "function"
    },
    {
      "inputs": [],
      "name": "REQUIRED_GUARDIAN_APPROVALS",
      "outputs": [
        {
          "internalType": "uint256",
          "name": "",
          "type": "uint256"
        }
      ],
      "stateMutability": "view",
      "type": "function"
    },
    {
      "inputs": [
        {
          "internalType": "address",
          "name": "guardian",
          "type": "address"
        }
      ],
      "name": "addGuardian",
      "outputs": [],
      "stateMutability": "nonpayable",
      "type": "function"
    },
    {
      "inputs": [
        {
          "internalType": "address",
          "name": "newOwner",
          "type": "address"
        }
      ],
      "name": "approveRecovery",
      "outputs": [],
      "stateMutability": "nonpayable",
      "type": "function"
    },
    {
      "inputs": [],
      "name": "cancelRecovery",
      "outputs": [],
      "stateMutability": "nonpayable",
      "type": "function"
    },
    {
      "inputs": [
        {
          "internalType": "address",
          "name": "newOwner",
          "type": "address"
        }
      ],
      "name": "changeOwner",
      "outputs": [],
      "stateMutability": "nonpayable",
      "type": "function"
    },
    {
      "inputs": [],
      "name": "entryPoint",
      "outputs": [
        {
          "internalType": "contract IEntryPoint",
          "name": "",
          "type": "address"
        }
      ],
      "stateMutability": "view",
      "type": "function"
    },
    {
      "inputs": [
        {
          "internalType": "address",
          "name": "dest",
          "type": "address"
        },
        {
          "internalType": "uint256",
          "name": "value",
          "type": "uint256"
        },
        {
          "internalType": "bytes",
          "name": "func",
          "type": "bytes"
        }
      ],
      "name": "execute",
      "outputs": [],
      "stateMutability": "nonpayable",
      "type": "function"
    },
    {
      "inputs": [
        {
          "internalType": "address[]",
          "name": "dests",
          "type": "address[]"
        },
        {
          "internalType": "bytes[]",
          "name": "funcs",
          "type": "bytes[]"
        }
      ],
      "name": "executeBatch",
      "outputs": [],
      "stateMutability": "nonpayable",
      "type": "function"
    },
    {
      "inputs": [],
      "name": "finalizeRecovery",
      "outputs": [],
      "stateMutability": "nonpayable",
      "type": "function"
    },
    {
      "inputs": [],
      "name": "getNonce",
      "outputs": [
        {
          "internalType": "uint256",
          "name": "",
          "type": "uint256"
        }
      ],
      "stateMutability": "view",
      "type": "function"
    },
    {
      "inputs": [],
      "name": "guardianApprovalCount",
      "outputs": [
        {
          "internalType": "uint256",
          "name": "",
          "type": "uint256"
        }
      ],
      "stateMutability": "view",
      "type": "function"
    },
    {
      "inputs": [
        {
          "internalType": "address",
          "name": "",
          "type": "address"
        }
      ],
      "name": "guardianApprovals",
      "outputs": [
        {
          "internalType": "bool",
          "name": "",
          "type": "bool"
        }
      ],
      "stateMutability": "view",
      "type": "function"
    },
    {
      "inputs": [
        {
          "internalType": "uint256",
          "name": "",
          "type": "uint256"
        }
      ],
      "name": "guardians",
      "outputs": [
        {
          "internalType": "address",
          "name": "",
          "type": "address"
        }
      ],
      "stateMutability": "view",
      "type": "function"
    },
    {
      "inputs": [
        {
          "internalType": "address",
          "name": "",
          "type": "address"
        }
      ],
      "name": "isGuardian",
      "outputs": [
        {
          "internalType": "bool",
          "name": "",
          "type": "bool"
        }
      ],
      "stateMutability": "view",
      "type": "function"
    },
    {
      "inputs": [],
      "name": "owner",
      "outputs": [
        {
          "internalType": "address",
          "name": "",
          "type": "address"
        }
      ],
      "stateMutability": "view",
      "type": "function"
    },
    {
      "inputs": [],
      "name": "pendingRecoveryOwner",
      "outputs": [
        {
          "internalType": "address",
          "name": "",
          "type": "address"
        }
      ],
      "stateMutability": "view",
      "type": "function"
    },
    {
      "inputs": [],
      "name": "recoveryAddress",
      "outputs": [
        {
          "internalType": "address",
          "name": "",
          "type": "address"
        }
      ],
      "stateMutability": "view",
      "type": "function"
    },
    {
      "inputs": [],
      "name": "recoveryInitiatedAt",
      "outputs": [
        {
          "internalType": "uint256",
          "name": "",
          "type": "uint256"
        }
      ],
      "stateMutability": "view",
      "type": "function"
    },
    {
      "inputs": [
        {
          "internalType": "address",
          "name": "guardian",
          "type": "address"
        }
      ],
      "name": "removeGuardian",
      "outputs": [],
      "stateMutability": "nonpayable",
      "type": "function"
    },
    {
      "inputs": [
        {
          "internalType": "address",
          "name": "newRecovery",
          "type": "address"
        }
      ],
      "name": "setRecoveryAddress",
      "outputs": [],
      "stateMutability": "nonpayable",
      "type": "function"
    },
    {
      "inputs": [
        {
          "components": [
            {
              "internalType": "address",
              "name": "sender",
              "type": "address"
            },
            {
              "internalType": "uint256",
              "name": "nonce",
              "type": "uint256"
            },
            {
              "internalType": "bytes",
              "name": "initCode",
              "type": "bytes"
            },
            {
              "internalType": "bytes",
              "name": "callData",
              "type": "bytes"
            },
            {
              "internalType": "uint256",
              "name": "callGasLimit",
              "type": "uint256"
            },
            {
              "internalType": "uint256",
              "name": "verificationGasLimit",
              "type": "uint256"
            },
            {
              "internalType": "uint256",
              "name": "preVerificationGas",
              "type": "uint256"
            },
            {
              "internalType": "uint256",
              "name": "maxFeePerGas",
              "type": "uint256"
            },
            {
              "internalType": "uint256",
              "name": "maxPriorityFeePerGas",
              "type": "uint256"
            },
            {
              "internalType": "bytes",
              "name": "paymasterAndData",
              "type": "bytes"
            },
            {
              "internalType": "bytes",
              "name": "signature",
              "type": "bytes"
            }
          ],
          "internalType": "struct UserOperation",
          "name": "userOp",
          "type": "tuple"
        },
        {
          "internalType": "bytes32",
          "name": "userOpHash",
          "type": "bytes32"
        },
        {
          "internalType": "uint256",
          "name": "",
          "type": "uint256"
        }
      ],
      "name": "validateUserOp",
      "outputs": [
        {
          "internalType": "uint256",
          "name": "validationData",
          "type": "uint256"
        }
      ],
      "stateMutability": "view",
      "type": "function"
    },
    {
      "stateMutability": "payable",
      "type": "receive"
    }
  ],
  "bytecode": "0x60a060405234801561001057600080fd5b506040516131ba3803806131ba8339818101604052810190610032919061014e565b8173ffffffffffffffffffffffffffffffffffffffff1660808173ffffffffffffffffffffffffffffffffffffffff1681525050806000806101000a81548173ffffffffffffffffffffffffffffffffffffffff021916908373ffffffffffffffffffffffffffffffffffffffff160217905550505061018e565b600080fd5b600073ffffffffffffffffffffffffffffffffffffffff82169050919050565b60006100dd826100b2565b9050919050565b60006100ef826100d2565b9050919050565b6100ff816100e4565b811461010a57600080fd5b50565b60008151905061011c816100f6565b92915050565b61012b816100d2565b811461013657600080fd5b50565b60008151905061014881610122565b92915050565b60008060408385031215610165576101646100ad565b5b60006101738582860161010d565b925050602061018485828601610139565b9150509250929050565b608051612ffc6101be600039600081816106ed015281816108e70152818161129901526112bf0152612ffc6000f3fe6080604052600436106101395760003560e01c80638da5cb5b116100ab578063b61d27f61161006f578063b61d27f61461040d578063cbc3b3c214610436578063d087d2881461045f578063e2ccb3051461048a578063e5f1af38146104a1578063f560c734146104cc57610140565b80638da5cb5b1461033a578063923958ab14610365578063a526d83b14610390578063a6f9dae1146103b9578063b0d691fe146103e257610140565b806347b45652116100fd57806347b456521461022a57806349efe5ae146102555780635565bbb21461027e578063710eb26c146102bb57806371404156146102e657806378d9088a1461030f57610140565b80630ba234d6146101455780630c68ba211461015c57806318dfb3c71461019957806320727381146101c25780633a871cdd146101ed57610140565b3661014057005b600080fd5b34801561015157600080fd5b5061015a610509565b005b34801561016857600080fd5b50610183600480360381019061017e9190611fd9565b6106cb565b6040516101909190612021565b60405180910390f35b3480156101a557600080fd5b506101c060048036038101906101bb91906120f7565b6106eb565b005b3480156101ce57600080fd5b506101d76108dd565b6040516101e49190612191565b60405180910390f35b3480156101f957600080fd5b50610214600480360381019061020f9190612233565b6108e3565b6040516102219190612191565b60405180910390f35b34801561023657600080fd5b5061023f610a76565b60405161024c9190612191565b60405180910390f35b34801561026157600080fd5b5061027c60048036038101906102779190611fd9565b610a7d565b005b34801561028a57600080fd5b506102a560048036038101906102a09190611fd9565b610b92565b6040516102b29190612021565b60405180910390f35b3480156102c757600080fd5b506102d0610bb2565b6040516102dd91906122b1565b60405180910390f35b3480156102f257600080fd5b5061030d60048036038101906103089190611fd9565b610bd8565b005b34801561031b57600080fd5b50610324610f0b565b6040516103319190612191565b60405180910390f35b34801561034657600080fd5b5061034f610f10565b60405161035c91906122b1565b60405180910390f35b34801561037157600080fd5b5061037a610f34565b6040516103879190612191565b60405180910390f35b34801561039c57600080fd5b506103b760048036038101906103b29190611fd9565b610f3a565b005b3480156103c557600080fd5b506103e060048036038101906103db9190611fd9565b61114a565b005b3480156103ee57600080fd5b506103f7611295565b604051610404919061232b565b60405180910390f35b34801561041957600080fd5b50610434600480360381019061042f919061239c565b6112bd565b005b34801561044257600080fd5b5061045d60048036038101906104589190611fd9565b6115a1565b005b34801561046b57600080fd5b506104746118d8565b6040516104819190612191565b60405180910390f35b34801561049657600080fd5b5061049f611963565b005b3480156104ad57600080fd5b506104b6611bf6565b6040516104c391906122b1565b60405180910390f35b3480156104d857600080fd5b506104f360048036038101906104ee9190612410565b611c1c565b60405161050091906122b1565b60405180910390f35b60008054906101000a900473ffffffffffffffffffffffffffffffffffffffff1673ffffffffffffffffffffffffffffffffffffffff163373ffffffffffffffffffffffffffffffffffffffff1614610597576040517f08c379a000000000000000000000000000000000000000000000000000000000815260040161058e9061249a565b60405180910390fd5b6000600360006101000a81548173ffffffffffffffffffffffffffffffffffffffff021916908373ffffffffffffffffffffffffffffffffffffffff1602179055506000600281905550600060078190555060005b60048054905081101561069c5760006006600060048481548110610613576106126124ba565b5b9060005260206000200160009054906101000a900473ffffffffffffffffffffffffffffffffffffffff1673ffffffffffffffffffffffffffffffffffffffff1673ffffffffffffffffffffffffffffffffffffffff16815260200190815260200160002060006101000a81548160ff02191690831515021790555080806001019150506105ec565b507fedd770ee01b7c0ef4f503125eafdc2725536cbf32342dffcaa300d95a7cafce360405160405180910390a1565b60056020528060005260406000206000915054906101000a900460ff1681565b7f000000000000000000000000000000000000000000000000000000000000000073ffffffffffffffffffffffffffffffffffffffff163373ffffffffffffffffffffffffffffffffffffffff1614610779576040517f08c379a000000000000000000000000000000000000000000000000000000000815260040161077090612535565b60405180910390fd5b8181905084849050146107c1576040517f08c379a00000000000000000000000000000000000000000000000000000000081526004016107b8906125a1565b60405180910390fd5b60005b848490508110156108d65760008585838181106107e4576107e36124ba565b5b90506020020160208101906107f99190611fd9565b73ffffffffffffffffffffffffffffffffffffffff16848484818110610822576108216124ba565b5b905060200281019061083491906125d0565b604051610842929190612672565b6000604051808303816000865af19150503d806000811461087f576040519150601f19603f3d011682016040523d82523d6000602084013e610884565b606091505b50509050806108c8576040517f08c379a00000000000000000000000000000000000000000000000000000000081526004016108bf906126d7565b60405180910390fd5b5080806001019150506107c4565b5050505050565b60025481565b60007f000000000000000000000000000000000000000000000000000000000000000073ffffffffffffffffffffffffffffffffffffffff163373ffffffffffffffffffffffffffffffffffffffff1614610973576040517f08c379a000000000000000000000000000000000000000000000000000000000815260040161096a90612535565b60405180910390fd5b60006109da61098185611c5b565b8680610140019061099291906125d0565b8080601f016020809104026020016040519081016040528093929190818152602001838380828437600081840152601f19601f82011690508083019250505050505050611c91565b905060008054906101000a900473ffffffffffffffffffffffffffffffffffffffff1673ffffffffffffffffffffffffffffffffffffffff168173ffffffffffffffffffffffffffffffffffffffff1614610a6a576040517f08c379a0000000000000000000000000000000000000000000000000000000008152600401610a6190612743565b60405180910390fd5b60009150509392505050565b6202a30081565b60008054906101000a900473ffffffffffffffffffffffffffffffffffffffff1673ffffffffffffffffffffffffffffffffffffffff163373ffffffffffffffffffffffffffffffffffffffff1614610b0b576040517f08c379a0000000000000000000000000000000000000000000000000000000008152600401610b02906127af565b60405180910390fd5b80600160006101000a81548173ffffffffffffffffffffffffffffffffffffffff021916908373ffffffffffffffffffffffffffffffffffffffff1602179055508073ffffffffffffffffffffffffffffffffffffffff167f909fb73ec42bf9fd77afdeca0dbd5e76128d99c26093b6e93a566e1d183906ee60405160405180910390a250565b60066020528060005260406000206000915054906101000a900460ff1681565b600160009054906101000a900473ffffffffffffffffffffffffffffffffffffffff1681565b60008054906101000a900473ffffffffffffffffffffffffffffffffffffffff1673ffffffffffffffffffffffffffffffffffffffff163373ffffffffffffffffffffffffffffffffffffffff1614610c66576040517f08c379a0000000000000000000000000000000000000000000000000000000008152600401610c5d9061281b565b60405180910390fd5b600560008273ffffffffffffffffffffffffffffffffffffffff1673ffffffffffffffffffffffffffffffffffffffff16815260200190815260200160002060009054906101000a900460ff16610cf2576040517f08c379a0000000000000000000000000000000000000000000000000000000008152600401610ce990612887565b60405180910390fd5b6000600560008373ffffffffffffffffffffffffffffffffffffffff1673ffffffffffffffffffffffffffffffffffffffff16815260200190815260200160002060006101000a81548160ff02191690831515021790555060005b600480549050811015610ed0578173ffffffffffffffffffffffffffffffffffffffff1660048281548110610d8557610d846124ba565b5b9060005260206000200160009054906101000a900473ffffffffffffffffffffffffffffffffffffffff1673ffffffffffffffffffffffffffffffffffffffff1603610ec35760046001600480549050610ddf91906128d6565b81548110610df057610def6124ba565b5b9060005260206000200160009054906101000a900473ffffffffffffffffffffffffffffffffffffffff1660048281548110610e2f57610e2e6124ba565b5b9060005260206000200160006101000a81548173ffffffffffffffffffffffffffffffffffffffff021916908373ffffffffffffffffffffffffffffffffffffffff1602179055506004805480610e8957610e8861290a565b5b6001900381819060005260206000200160006101000a81549073ffffffffffffffffffffffffffffffffffffffff02191690559055610ed0565b8080600101915050610d4d565b507fb8107d0c6b40be480ce3172ee66ba6d64b71f6b1685a851340036e6e2e3e3c5281604051610f0091906122b1565b60405180910390a150565b600281565b60008054906101000a900473ffffffffffffffffffffffffffffffffffffffff1681565b60075481565b60008054906101000a900473ffffffffffffffffffffffffffffffffffffffff1673ffffffffffffffffffffffffffffffffffffffff163373ffffffffffffffffffffffffffffffffffffffff1614610fc8576040517f08c379a0000000000000000000000000000000000000000000000000000000008152600401610fbf90612985565b60405180910390fd5b600560008273ffffffffffffffffffffffffffffffffffffffff1673ffffffffffffffffffffffffffffffffffffffff16815260200190815260200160002060009054906101000a900460ff1615611055576040517f08c379a000000000000000000000000000000000000000000000000000000000815260040161104c906129f1565b60405180910390fd5b6004819080600181540180825580915050600190039060005260206000200160009091909190916101000a81548173ffffffffffffffffffffffffffffffffffffffff021916908373ffffffffffffffffffffffffffffffffffffffff1602179055506001600560008373ffffffffffffffffffffffffffffffffffffffff1673ffffffffffffffffffffffffffffffffffffffff16815260200190815260200160002060006101000a81548160ff0219169083151502179055507f038596bb31e2e7d3d9f184d4c98b310103f6d7f5830e5eec32bffe6f1728f9698160405161113f91906122b1565b60405180910390a150565b60008054906101000a900473ffffffffffffffffffffffffffffffffffffffff1673ffffffffffffffffffffffffffffffffffffffff163373ffffffffffffffffffffffffffffffffffffffff16146111d8576040517f08c379a00000000000000000000000000000000000000000000000000000000081526004016111cf906127af565b60405180910390fd5b8073ffffffffffffffffffffffffffffffffffffffff1660008054906101000a900473ffffffffffffffffffffffffffffffffffffffff1673ffffffffffffffffffffffffffffffffffffffff167fb532073b38c83145e3e5135377a08bf9aab55bc0fd7c1179cd4fb995d2a5159c60405160405180910390a3806000806101000a81548173ffffffffffffffffffffffffffffffffffffffff021916908373ffffffffffffffffffffffffffffffffffffffff16021790555050565b60007f0000000000000000000000000000000000000000000000000000000000000000905090565b7f000000000000000000000000000000000000000000000000000000000000000073ffffffffffffffffffffffffffffffffffffffff163373ffffffffffffffffffffffffffffffffffffffff161461134b576040517f08c379a000000000000000000000000000000000000000000000000000000000815260040161134290612535565b60405180910390fd5b600060648461135a9190612a40565b90506000818561136a9190612a71565b9050804710156113af576040517f08c379a00000000000000000000000000000000000000000000000000000000081526004016113a690612b17565b60405180910390fd5b60008673ffffffffffffffffffffffffffffffffffffffff168686866040516113d9929190612672565b60006040518083038185875af1925050503d8060008114611416576040519150601f19603f3d011682016040523d82523d6000602084013e61141b565b606091505b505090508061145f576040517f08c379a000000000000000000000000000000000000000000000000000000000815260040161145690612b83565b60405180910390fd5b60008060009054906101000a900473ffffffffffffffffffffffffffffffffffffffff16905060008173ffffffffffffffffffffffffffffffffffffffff16856040516114ab90612bc9565b60006040518083038185875af1925050503d80600081146114e8576040519150601f19603f3d011682016040523d82523d6000602084013e6114ed565b606091505b5050905080611531576040517f08c379a000000000000000000000000000000000000000000000000000000000815260040161152890612c2a565b60405180910390fd5b8173ffffffffffffffffffffffffffffffffffffffff168973ffffffffffffffffffffffffffffffffffffffff167f20c2041c6f01ce2632a5defa729a53f5258976bcc53f4eeaca8a59c2319f81a78760405161158e9190612191565b60405180910390a3505050505050505050565b600560003373ffffffffffffffffffffffffffffffffffffffff1673ffffffffffffffffffffffffffffffffffffffff16815260200190815260200160002060009054906101000a900460ff1661162d576040517f08c379a000000000000000000000000000000000000000000000000000000000815260040161162490612c96565b60405180910390fd5b600660003373ffffffffffffffffffffffffffffffffffffffff1673ffffffffffffffffffffffffffffffffffffffff16815260200190815260200160002060009054906101000a900460ff16156116ba576040517f08c379a00000000000000000000000000000000000000000000000000000000081526004016116b190612d02565b60405180910390fd5b6001600660003373ffffffffffffffffffffffffffffffffffffffff1673ffffffffffffffffffffffffffffffffffffffff16815260200190815260200160002060006101000a81548160ff0219169083151502179055506007600081548092919061172590612d22565b91905055507f51f83a767fad01921e5c37482bc11c69f60078e95758aecc70fd28186f286dc13360405161175991906122b1565b60405180910390a16002600754106118d5574260028190555080600360006101000a81548173ffffffffffffffffffffffffffffffffffffffff021916908373ffffffffffffffffffffffffffffffffffffffff160217905550600060078190555060005b60048054905081101561186e57600060066000600484815481106117e5576117e46124ba565b5b9060005260206000200160009054906101000a900473ffffffffffffffffffffffffffffffffffffffff1673ffffffffffffffffffffffffffffffffffffffff1673ffffffffffffffffffffffffffffffffffffffff16815260200190815260200160002060006101000a81548160ff02191690831515021790555080806001019150506117be565b508073ffffffffffffffffffffffffffffffffffffffff163373ffffffffffffffffffffffffffffffffffffffff167fe290ea2cc3cfeb5114f992dc8be9e503de30042c13b9298644a2679b09e17a04426040516118cc9190612191565b60405180910390a35b50565b60006118e2611295565b73ffffffffffffffffffffffffffffffffffffffff166335567e1a3060006040518363ffffffff1660e01b815260040161191d929190612dc9565b602060405180830381865afa15801561193a573d6000803e3d6000fd5b505050506040513d601f19601f8201168201806040525081019061195e9190612e07565b905090565b600073ffffffffffffffffffffffffffffffffffffffff16600360009054906101000a900473ffffffffffffffffffffffffffffffffffffffff1673ffffffffffffffffffffffffffffffffffffffff16036119f4576040517f08c379a00000000000000000000000000000000000000000000000000000000081526004016119eb90612e80565b60405180910390fd5b6202a300600254611a059190612a71565b421015611a47576040517f08c379a0000000000000000000000000000000000000000000000000000000008152600401611a3e90612eec565b60405180910390fd5b600360009054906101000a900473ffffffffffffffffffffffffffffffffffffffff1673ffffffffffffffffffffffffffffffffffffffff1660008054906101000a900473ffffffffffffffffffffffffffffffffffffffff1673ffffffffffffffffffffffffffffffffffffffff167fb532073b38c83145e3e5135377a08bf9aab55bc0fd7c1179cd4fb995d2a5159c60405160405180910390a3600360009054906101000a900473ffffffffffffffffffffffffffffffffffffffff1673ffffffffffffffffffffffffffffffffffffffff167f9504e318c48c2d15540e6faaea014f2855c06fc4df211f5e26a8fb99a6be7fdf60405160405180910390a2600360009054906101000a900473ffffffffffffffffffffffffffffffffffffffff166000806101000a81548173ffffffffffffffffffffffffffffffffffffffff021916908373ffffffffffffffffffffffffffffffffffffffff1602179055506000600360006101000a81548173ffffffffffffffffffffffffffffffffffffffff021916908373ffffffffffffffffffffffffffffffffffffffff1602179055506000600281905550565b600360009054906101000a900473ffffffffffffffffffffffffffffffffffffffff1681565b60048181548110611c2c57600080fd5b906000526020600020016000915054906101000a900473ffffffffffffffffffffffffffffffffffffffff1681565b60007f19457468657265756d205369676e6564204d6573736167653a0a33320000000060005281601c52603c6000209050919050565b600080600080611ca18686611cbd565b925092509250611cb18282611d19565b82935050505092915050565b60008060006041845103611d025760008060006020870151925060408701519150606087015160001a9050611cf488828585611e7d565b955095509550505050611d12565b60006002855160001b9250925092505b9250925092565b60006003811115611d2d57611d2c612f0c565b5b826003811115611d4057611d3f612f0c565b5b0315611e795760016003811115611d5a57611d59612f0c565b5b826003811115611d6d57611d6c612f0c565b5b03611da4576040517ff645eedf00000000000000000000000000000000000000000000000000000000815260040160405180910390fd5b60026003811115611db857611db7612f0c565b5b826003811115611dcb57611dca612f0c565b5b03611e10578060001c6040517ffce698f7000000000000000000000000000000000000000000000000000000008152600401611e079190612191565b60405180910390fd5b600380811115611e2357611e22612f0c565b5b826003811115611e3657611e35612f0c565b5b03611e7857806040517fd78bce0c000000000000000000000000000000000000000000000000000000008152600401611e6f9190612f4a565b60405180910390fd5b5b5050565b60008060007f7fffffffffffffffffffffffffffffff5d576e7357a4501ddfe92f46681b20a08460001c1115611ebd576000600385925092509250611f67565b600060018888888860405160008152602001604052604051611ee29493929190612f81565b6020604051602081039080840390855afa158015611f04573d6000803e3d6000fd5b505050602060405103519050600073ffffffffffffffffffffffffffffffffffffffff168173ffffffffffffffffffffffffffffffffffffffff1603611f5857600060016000801b93509350935050611f67565b8060008060001b935093509350505b9450945094915050565b600080fd5b600080fd5b600073ffffffffffffffffffffffffffffffffffffffff82169050919050565b6000611fa682611f7b565b9050919050565b611fb681611f9b565b8114611fc157600080fd5b50565b600081359050611fd381611fad565b92915050565b600060208284031215611fef57611fee611f71565b5b6000611ffd84828501611fc4565b91505092915050565b60008115159050919050565b61201b81612006565b82525050565b60006020820190506120366000830184612012565b92915050565b600080fd5b600080fd5b600080fd5b60008083601f8401126120615761206061203c565b5b8235905067ffffffffffffffff81111561207e5761207d612041565b5b60208301915083602082028301111561209a57612099612046565b5b9250929050565b60008083601f8401126120b7576120b661203c565b5b8235905067ffffffffffffffff8111156120d4576120d3612041565b5b6020830191508360208202830111156120f0576120ef612046565b5b9250929050565b6000806000806040858703121561211157612110611f71565b5b600085013567ffffffffffffffff81111561212f5761212e611f76565b5b61213b8782880161204b565b9450945050602085013567ffffffffffffffff81111561215e5761215d611f76565b5b61216a878288016120a1565b925092505092959194509250565b6000819050919050565b61218b81612178565b82525050565b60006020820190506121a66000830184612182565b92915050565b600080fd5b600061016082840312156121c8576121c76121ac565b5b81905092915050565b6000819050919050565b6121e4816121d1565b81146121ef57600080fd5b50565b600081359050612201816121db565b92915050565b61221081612178565b811461221b57600080fd5b50565b60008135905061222d81612207565b92915050565b60008060006060848603121561224c5761224b611f71565b5b600084013567ffffffffffffffff81111561226a57612269611f76565b5b612276868287016121b1565b9350506020612287868287016121f2565b92505060406122988682870161221e565b9150509250925092565b6122ab81611f9b565b82525050565b60006020820190506122c660008301846122a2565b92915050565b6000819050919050565b60006122f16122ec6122e784611f7b565b6122cc565b611f7b565b9050919050565b6000612303826122d6565b9050919050565b6000612315826122f8565b9050919050565b6123258161230a565b82525050565b6000602082019050612340600083018461231c565b92915050565b60008083601f84011261235c5761235b61203c565b5b8235905067ffffffffffffffff81111561237957612378612041565b5b60208301915083600182028301111561239557612394612046565b5b9250929050565b600080600080606085870312156123b6576123b5611f71565b5b60006123c487828801611fc4565b94505060206123d58782880161221e565b935050604085013567ffffffffffffffff8111156123f6576123f5611f76565b5b61240287828801612346565b925092505092959194509250565b60006020828403121561242657612425611f71565b5b60006124348482850161221e565b91505092915050565b600082825260208201905092915050565b7f4f6e6c79206f776e65722063616e2063616e63656c0000000000000000000000600082015250565b600061248460158361243d565b915061248f8261244e565b602082019050919050565b600060208201905081810360008301526124b381612477565b9050919050565b7f4e487b7100000000000000000000000000000000000000000000000000000000600052603260045260246000fd5b7f4e6f742066726f6d20456e747279506f696e7400000000000000000000000000600082015250565b600061251f60138361243d565b915061252a826124e9565b602082019050919050565b6000602082019050818103600083015261254e81612512565b9050919050565b7f4d69736d61746368656420696e70757473000000000000000000000000000000600082015250565b600061258b60118361243d565b915061259682612555565b602082019050919050565b600060208201905081810360008301526125ba8161257e565b9050919050565b600080fd5b600080fd5b600080fd5b600080833560016020038436030381126125ed576125ec6125c1565b5b80840192508235915067ffffffffffffffff82111561260f5761260e6125c6565b5b60208301925060018202360383131561262b5761262a6125cb565b5b509250929050565b600081905092915050565b82818337600083830152505050565b60006126598385612633565b935061266683858461263e565b82840190509392505050565b600061267f82848661264d565b91508190509392505050565b7f426174636820657865637574696f6e206661696c656400000000000000000000600082015250565b60006126c160168361243d565b91506126cc8261268b565b602082019050919050565b600060208201905081810360008301526126f0816126b4565b9050919050565b7f496e76616c6964207369676e6174757265000000000000000000000000000000600082015250565b600061272d60118361243d565b9150612738826126f7565b602082019050919050565b6000602082019050818103600083015261275c81612720565b9050919050565b7f4e6f74206f776e65720000000000000000000000000000000000000000000000600082015250565b600061279960098361243d565b91506127a482612763565b602082019050919050565b600060208201905081810360008301526127c88161278c565b9050919050565b7f4f6e6c79206f776e65722063616e2072656d6f766520677561726469616e0000600082015250565b6000612805601e8361243d565b9150612810826127cf565b602082019050919050565b60006020820190508181036000830152612834816127f8565b9050919050565b7f4e6f74206120677561726469616e000000000000000000000000000000000000600082015250565b6000612871600e8361243d565b915061287c8261283b565b602082019050919050565b600060208201905081810360008301526128a081612864565b9050919050565b7f4e487b7100000000000000000000000000000000000000000000000000000000600052601160045260246000fd5b60006128e182612178565b91506128ec83612178565b9250828203905081811115612904576129036128a7565b5b92915050565b7f4e487b7100000000000000000000000000000000000000000000000000000000600052603160045260246000fd5b7f4f6e6c79206f776e65722063616e2061646420677561726469616e0000000000600082015250565b600061296f601b8361243d565b915061297a82612939565b602082019050919050565b6000602082019050818103600083015261299e81612962565b9050919050565b7f416c726561647920677561726469616e00000000000000000000000000000000600082015250565b60006129db60108361243d565b91506129e6826129a5565b602082019050919050565b60006020820190508181036000830152612a0a816129ce565b9050919050565b7f4e487b7100000000000000000000000000000000000000000000000000000000600052601260045260246000fd5b6000612a4b82612178565b9150612a5683612178565b925082612a6657612a65612a11565b5b828204905092915050565b6000612a7c82612178565b9150612a8783612178565b9250828201905080821115612a9f57612a9e6128a7565b5b92915050565b7f496e73756666696369656e742062616c616e636520666f72207472616e73666560008201527f72202b2066656500000000000000000000000000000000000000000000000000602082015250565b6000612b0160278361243d565b9150612b0c82612aa5565b604082019050919050565b60006020820190508181036000830152612b3081612af4565b9050919050565b7f4d61696e207472616e73666572206661696c6564000000000000000000000000600082015250565b6000612b6d60148361243d565b9150612b7882612b37565b602082019050919050565b60006020820190508181036000830152612b9c81612b60565b9050919050565b50565b6000612bb3600083612633565b9150612bbe82612ba3565b600082019050919050565b6000612bd482612ba6565b9150819050919050565b7f466565207472616e73666572206661696c656400000000000000000000000000600082015250565b6000612c1460138361243d565b9150612c1f82612bde565b602082019050919050565b60006020820190508181036000830152612c4381612c07565b9050919050565b7f4e6f7420677561726469616e0000000000000000000000000000000000000000600082015250565b6000612c80600c8361243d565b9150612c8b82612c4a565b602082019050919050565b60006020820190508181036000830152612caf81612c73565b9050919050565b7f416c726561647920617070726f76656400000000000000000000000000000000600082015250565b6000612cec60108361243d565b9150612cf782612cb6565b602082019050919050565b60006020820190508181036000830152612d1b81612cdf565b9050919050565b6000612d2d82612178565b91507fffffffffffffffffffffffffffffffffffffffffffffffffffffffffffffffff8203612d5f57612d5e6128a7565b5b600182019050919050565b6000819050919050565b600077ffffffffffffffffffffffffffffffffffffffffffffffff82169050919050565b6000612db3612dae612da984612d6a565b6122cc565b612d74565b9050919050565b612dc381612d98565b82525050565b6000604082019050612dde60008301856122a2565b612deb6020830184612dba565b9392505050565b600081519050612e0181612207565b92915050565b600060208284031215612e1d57612e1c611f71565b5b6000612e2b84828501612df2565b91505092915050565b7f4e6f2070656e64696e67207265636f7665727900000000000000000000000000600082015250565b6000612e6a60138361243d565b9150612e7582612e34565b602082019050919050565b60006020820190508181036000830152612e9981612e5d565b9050919050565b7f5265636f766572792064656c6179206e6f742070617373656400000000000000600082015250565b6000612ed660198361243d565b9150612ee182612ea0565b602082019050919050565b60006020820190508181036000830152612f0581612ec9565b9050919050565b7f4e487b7100000000000000000000000000000000000000000000000000000000600052602160045260246000fd5b612f44816121d1565b82525050565b6000602082019050612f5f6000830184612f3b565b92915050565b600060ff82169050919050565b612f7b81612f65565b82525050565b6000608082019050612f966000830187612f3b565b612fa36020830186612f72565b612fb06040830185612f3b565b612fbd6060830184612f3b565b9594505050505056fea26469706673582212205b15e617e3d3b4010cee6f3b52a66fe1e9b20db0742a6efea9e9cdbdd120a4be64736f6c634300081c0033",
  "linkReferences": {},
  "deployedLinkReferences": {}
}