{
  "_format": "hh-sol-artifact-1",
  "contractName": "SmartPayWallet",
  "sourceName": "contracts/SmartPayWallet.sol",
  "abi": [
    {
      "inputs": [
        {
          "internalType": "contract IEntryPoint",
          "name": "_ep",
          "type": "address"
        },
        {
          "internalType": "address",
          "name": "initialOwner",
          "type": "address"
        }
      ],
      "stateMutability": "nonpayable",
      "type": "constructor"
    },
    {
      "inputs": [],
      "name": "ECDSAInvalidSignature",
      "type": "error"
    },
    {
      "inputs": [
        {
          "internalType": "uint256",
          "name": "length",
          "type": "uint256"
        }
      ],
      "name": "ECDSAInvalidSignatureLength",
      "type": "error"
    },
    {
      "inputs": [
        {
          "internalType": "bytes32",
          "name": "s",
          "type": "bytes32"
        }
      ],
      "name": "ECDSAInvalidSignatureS",
      "type": "error"
    },
    {
      "anonymous": false,
      "inputs": [
        {
          "indexed": true,
          "internalType": "address",
          "name": "to",
          "type": "address"
        },
        {
          "indexed": true,
          "internalType": "address",
          "name": "feeReceiver",
          "type": "address"
        },
        {
          "indexed": false,
          "internalType": "uint256",
          "name": "feeAmount",
          "type": "uint256"
        }
      ],
      "name": "FeeTransfered",
      "type": "event"
    },
    {
      "anonymous": false,
      "inputs": [
        {
          "indexed": false,
          "internalType": "address",
          "name": "guardian",
          "type": "address"
        }
      ],
      "name": "GuardianAdded",
      "type": "event"
    },
    {
      "anonymous": false,
      "inputs": [
        {
          "indexed": false,
          "internalType": "address",
          "name": "guardian",
          "type": "address"
        }
      ],
      "name": "GuardianApproved",
      "type": "event"
    },
    {
      "anonymous": false,
      "inputs": [
        {
          "indexed": false,
          "internalType": "address",
          "name": "guardian",
          "type": "address"
        }
      ],
      "name": "GuardianRemoved",
      "type": "event"
    },
    {
      "anonymous": false,
      "inputs": [
        {
          "indexed": true,
          "internalType": "address",
          "name": "oldOwner",
          "type": "address"
        },
        {
          "indexed": true,
          "internalType": "address",
          "name": "newOwner",
          "type": "address"
        }
      ],
      "name": "OwnerChanged",
      "type": "event"
    },
    {
      "anonymous": false,
      "inputs": [
        {
          "indexed": true,
          "internalType": "address",
          "name": "newRecovery",
          "type": "address"
        }
      ],
      "name": "RecoveryAddressSet",
      "type": "event"
    },
    {
      "anonymous": false,
      "inputs": [],
      "name": "RecoveryCancelled",
      "type": "event"
    },
    {
      "anonymous": false,
      "inputs": [
        {
          "indexed": true,
          "internalType": "address",
          "name": "newOwner",
          "type": "address"
        }
      ],
      "name": "RecoveryFinalized",
      "type": "event"
    },
    {
      "anonymous": false,
      "inputs": [
        {
          "indexed": true,
          "internalType": "address",
          "name": "by",
          "type": "address"
        },
        {
          "indexed": true,
          "internalType": "address",
          "name": "newOwner",
          "type": "address"
        },
        {
          "indexed": false,
          "internalType": "uint256",
          "name": "timestamp",
          "type": "uint256"
        }
      ],
      "name": "RecoveryInitiated",
      "type": "event"
    },
    {
      "inputs": [],
      "name": "RECOVERY_DELAY",
      "outputs": [
        {
          "internalType": "uint256",
          "name": "",
          "type": "uint256"
        }
      ],
      "stateMutability": "view",
      "type": "function"
    },
    {
      "inputs": [],
      "name": "REQUIRED_GUARDIAN_APPROVALS",
      "outputs": [
        {
          "internalType": "uint256",
          "name": "",
          "type": "uint256"
        }
      ],
      "stateMutability": "view",
      "type": "function"
    },
    {
      "inputs": [
        {
          "internalType": "address",
          "name": "guardian",
          "type": "address"
        }
      ],
      "name": "addGuardian",
      "outputs": [],
      "stateMutability": "nonpayable",
      "type": "function"
    },
    {
      "inputs": [
        {
          "internalType": "address",
          "name": "newOwner",
          "type": "address"
        }
      ],
      "name": "approveRecovery",
      "outputs": [],
      "stateMutability": "nonpayable",
      "type": "function"
    },
    {
      "inputs": [],
      "name": "cancelRecovery",
      "outputs": [],
      "stateMutability": "nonpayable",
      "type": "function"
    },
    {
      "inputs": [
        {
          "internalType": "address",
          "name": "newOwner",
          "type": "address"
        }
      ],
      "name": "changeOwner",
      "outputs": [],
      "stateMutability": "nonpayable",
      "type": "function"
    },
    {
      "inputs": [],
      "name": "entryPoint",
      "outputs": [
        {
          "internalType": "contract IEntryPoint",
          "name": "",
          "type": "address"
        }
      ],
      "stateMutability": "view",
      "type": "function"
    },
    {
      "inputs": [
        {
          "internalType": "address",
          "name": "dest",
          "type": "address"
        },
        {
          "internalType": "uint256",
          "name": "value",
          "type": "uint256"
        },
        {
          "internalType": "bytes",
          "name": "func",
          "type": "bytes"
        }
      ],
      "name": "execute",
      "outputs": [],
      "stateMutability": "nonpayable",
      "type": "function"
    },
    {
      "inputs": [
        {
          "internalType": "address[]",
          "name": "dests",
          "type": "address[]"
        },
        {
          "internalType": "bytes[]",
          "name": "funcs",
          "type": "bytes[]"
        }
      ],
      "name": "executeBatch",
      "outputs": [],
      "stateMutability": "nonpayable",
      "type": "function"
    },
    {
      "inputs": [],
      "name": "finalizeRecovery",
      "outputs": [],
      "stateMutability": "nonpayable",
      "type": "function"
    },
    {
      "inputs": [],
      "name": "getNonce",
      "outputs": [
        {
          "internalType": "uint256",
          "name": "",
          "type": "uint256"
        }
      ],
      "stateMutability": "view",
      "type": "function"
    },
    {
      "inputs": [],
      "name": "guardianApprovalCount",
      "outputs": [
        {
          "internalType": "uint256",
          "name": "",
          "type": "uint256"
        }
      ],
      "stateMutability": "view",
      "type": "function"
    },
    {
      "inputs": [
        {
          "internalType": "address",
          "name": "",
          "type": "address"
        }
      ],
      "name": "guardianApprovals",
      "outputs": [
        {
          "internalType": "bool",
          "name": "",
          "type": "bool"
        }
      ],
      "stateMutability": "view",
      "type": "function"
    },
    {
      "inputs": [
        {
          "internalType": "uint256",
          "name": "",
          "type": "uint256"
        }
      ],
      "name": "guardians",
      "outputs": [
        {
          "internalType": "address",
          "name": "",
          "type": "address"
        }
      ],
      "stateMutability": "view",
      "type": "function"
    },
    {
      "inputs": [
        {
          "internalType": "address",
          "name": "",
          "type": "address"
        }
      ],
      "name": "isGuardian",
      "outputs": [
        {
          "internalType": "bool",
          "name": "",
          "type": "bool"
        }
      ],
      "stateMutability": "view",
      "type": "function"
    },
    {
      "inputs": [],
      "name": "owner",
      "outputs": [
        {
          "internalType": "address",
          "name": "",
          "type": "address"
        }
      ],
      "stateMutability": "view",
      "type": "function"
    },
    {
      "inputs": [],
      "name": "pendingRecoveryOwner",
      "outputs": [
        {
          "internalType": "address",
          "name": "",
          "type": "address"
        }
      ],
      "stateMutability": "view",
      "type": "function"
    },
    {
      "inputs": [],
      "name": "recoveryAddress",
      "outputs": [
        {
          "internalType": "address",
          "name": "",
          "type": "address"
        }
      ],
      "stateMutability": "view",
      "type": "function"
    },
    {
      "inputs": [],
      "name": "recoveryInitiatedAt",
      "outputs": [
        {
          "internalType": "uint256",
          "name": "",
          "type": "uint256"
        }
      ],
      "stateMutability": "view",
      "type": "function"
    },
    {
      "inputs": [
        {
          "internalType": "address",
          "name": "guardian",
          "type": "address"
        }
      ],
      "name": "removeGuardian",
      "outputs": [],
      "stateMutability": "nonpayable",
      "type": "function"
    },
    {
      "inputs": [
        {
          "internalType": "address",
          "name": "newRecovery",
          "type": "address"
        }
      ],
      "name": "setRecoveryAddress",
      "outputs": [],
      "stateMutability": "nonpayable",
      "type": "function"
    },
    {
      "inputs": [
        {
          "components": [
            {
              "internalType": "address",
              "name": "sender",
              "type": "address"
            },
            {
              "internalType": "uint256",
              "name": "nonce",
              "type": "uint256"
            },
            {
              "internalType": "bytes",
              "name": "initCode",
              "type": "bytes"
            },
            {
              "internalType": "bytes",
              "name": "callData",
              "type": "bytes"
            },
            {
              "internalType": "uint256",
              "name": "callGasLimit",
              "type": "uint256"
            },
            {
              "internalType": "uint256",
              "name": "verificationGasLimit",
              "type": "uint256"
            },
            {
              "internalType": "uint256",
              "name": "preVerificationGas",
              "type": "uint256"
            },
            {
              "internalType": "uint256",
              "name": "maxFeePerGas",
              "type": "uint256"
            },
            {
              "internalType": "uint256",
              "name": "maxPriorityFeePerGas",
              "type": "uint256"
            },
            {
              "internalType": "bytes",
              "name": "paymasterAndData",
              "type": "bytes"
            },
            {
              "internalType": "bytes",
              "name": "signature",
              "type": "bytes"
            }
          ],
          "internalType": "struct UserOperation",
          "name": "userOp",
          "type": "tuple"
        },
        {
          "internalType": "bytes32",
          "name": "userOpHash",
          "type": "bytes32"
        },
        {
          "internalType": "uint256",
          "name": "",
          "type": "uint256"
        }
      ],
      "name": "validateUserOp",
      "outputs": [
        {
          "internalType": "uint256",
          "name": "validationData",
          "type": "uint256"
        }
      ],
      "stateMutability": "view",
      "type": "function"
    },
    {
      "stateMutability": "payable",
      "type": "receive"
    }
  ],
  "bytecode": "0x60a060405234801561001057600080fd5b506040516131a63803806131a68339818101604052810190610032919061014e565b8173ffffffffffffffffffffffffffffffffffffffff1660808173ffffffffffffffffffffffffffffffffffffffff1681525050806000806101000a81548173ffffffffffffffffffffffffffffffffffffffff021916908373ffffffffffffffffffffffffffffffffffffffff160217905550505061018e565b600080fd5b600073ffffffffffffffffffffffffffffffffffffffff82169050919050565b60006100dd826100b2565b9050919050565b60006100ef826100d2565b9050919050565b6100ff816100e4565b811461010a57600080fd5b50565b60008151905061011c816100f6565b92915050565b61012b816100d2565b811461013657600080fd5b50565b60008151905061014881610122565b92915050565b60008060408385031215610165576101646100ad565b5b60006101738582860161010d565b925050602061018485828601610139565b9150509250929050565b608051612fe86101be600039600081816106ed015281816108e70152818161129901526112bf0152612fe86000f3fe6080604052600436106101395760003560e01c80638da5cb5b116100ab578063b61d27f61161006f578063b61d27f61461040d578063cbc3b3c214610436578063d087d2881461045f578063e2ccb3051461048a578063e5f1af38146104a1578063f560c734146104cc57610140565b80638da5cb5b1461033a578063923958ab14610365578063a526d83b14610390578063a6f9dae1146103b9578063b0d691fe146103e257610140565b806347b45652116100fd57806347b456521461022a57806349efe5ae146102555780635565bbb21461027e578063710eb26c146102bb57806371404156146102e657806378d9088a1461030f57610140565b80630ba234d6146101455780630c68ba211461015c57806318dfb3c71461019957806320727381146101c25780633a871cdd146101ed57610140565b3661014057005b600080fd5b34801561015157600080fd5b5061015a610509565b005b34801561016857600080fd5b50610183600480360381019061017e919061200b565b6106cb565b6040516101909190612053565b60405180910390f35b3480156101a557600080fd5b506101c060048036038101906101bb9190612129565b6106eb565b005b3480156101ce57600080fd5b506101d76108dd565b6040516101e491906121c3565b60405180910390f35b3480156101f957600080fd5b50610214600480360381019061020f9190612265565b6108e3565b60405161022191906121c3565b60405180910390f35b34801561023657600080fd5b5061023f610a76565b60405161024c91906121c3565b60405180910390f35b34801561026157600080fd5b5061027c6004803603810190610277919061200b565b610a7d565b005b34801561028a57600080fd5b506102a560048036038101906102a0919061200b565b610b92565b6040516102b29190612053565b60405180910390f35b3480156102c757600080fd5b506102d0610bb2565b6040516102dd91906122e3565b60405180910390f35b3480156102f257600080fd5b5061030d6004803603810190610308919061200b565b610bd8565b005b34801561031b57600080fd5b50610324610f0b565b60405161033191906121c3565b60405180910390f35b34801561034657600080fd5b5061034f610f10565b60405161035c91906122e3565b60405180910390f35b34801561037157600080fd5b5061037a610f34565b60405161038791906121c3565b60405180910390f35b34801561039c57600080fd5b506103b760048036038101906103b2919061200b565b610f3a565b005b3480156103c557600080fd5b506103e060048036038101906103db919061200b565b61114a565b005b3480156103ee57600080fd5b506103f7611295565b604051610404919061235d565b60405180910390f35b34801561041957600080fd5b50610434600480360381019061042f91906123ce565b6112bd565b005b34801561044257600080fd5b5061045d6004803603810190610458919061200b565b6115d3565b005b34801561046b57600080fd5b5061047461190a565b60405161048191906121c3565b60405180910390f35b34801561049657600080fd5b5061049f611995565b005b3480156104ad57600080fd5b506104b6611c28565b6040516104c391906122e3565b60405180910390f35b3480156104d857600080fd5b506104f360048036038101906104ee9190612442565b611c4e565b60405161050091906122e3565b60405180910390f35b60008054906101000a900473ffffffffffffffffffffffffffffffffffffffff1673ffffffffffffffffffffffffffffffffffffffff163373ffffffffffffffffffffffffffffffffffffffff1614610597576040517f08c379a000000000000000000000000000000000000000000000000000000000815260040161058e906124cc565b60405180910390fd5b6000600360006101000a81548173ffffffffffffffffffffffffffffffffffffffff021916908373ffffffffffffffffffffffffffffffffffffffff1602179055506000600281905550600060078190555060005b60048054905081101561069c5760006006600060048481548110610613576106126124ec565b5b9060005260206000200160009054906101000a900473ffffffffffffffffffffffffffffffffffffffff1673ffffffffffffffffffffffffffffffffffffffff1673ffffffffffffffffffffffffffffffffffffffff16815260200190815260200160002060006101000a81548160ff02191690831515021790555080806001019150506105ec565b507fedd770ee01b7c0ef4f503125eafdc2725536cbf32342dffcaa300d95a7cafce360405160405180910390a1565b60056020528060005260406000206000915054906101000a900460ff1681565b7f000000000000000000000000000000000000000000000000000000000000000073ffffffffffffffffffffffffffffffffffffffff163373ffffffffffffffffffffffffffffffffffffffff1614610779576040517f08c379a000000000000000000000000000000000000000000000000000000000815260040161077090612567565b60405180910390fd5b8181905084849050146107c1576040517f08c379a00000000000000000000000000000000000000000000000000000000081526004016107b8906125d3565b60405180910390fd5b60005b848490508110156108d65760008585838181106107e4576107e36124ec565b5b90506020020160208101906107f9919061200b565b73ffffffffffffffffffffffffffffffffffffffff16848484818110610822576108216124ec565b5b90506020028101906108349190612602565b6040516108429291906126a4565b6000604051808303816000865af19150503d806000811461087f576040519150601f19603f3d011682016040523d82523d6000602084013e610884565b606091505b50509050806108c8576040517f08c379a00000000000000000000000000000000000000000000000000000000081526004016108bf90612709565b60405180910390fd5b5080806001019150506107c4565b5050505050565b60025481565b60007f000000000000000000000000000000000000000000000000000000000000000073ffffffffffffffffffffffffffffffffffffffff163373ffffffffffffffffffffffffffffffffffffffff1614610973576040517f08c379a000000000000000000000000000000000000000000000000000000000815260040161096a90612567565b60405180910390fd5b60006109da61098185611c8d565b868061014001906109929190612602565b8080601f016020809104026020016040519081016040528093929190818152602001838380828437600081840152601f19601f82011690508083019250505050505050611cc3565b905060008054906101000a900473ffffffffffffffffffffffffffffffffffffffff1673ffffffffffffffffffffffffffffffffffffffff168173ffffffffffffffffffffffffffffffffffffffff1614610a6a576040517f08c379a0000000000000000000000000000000000000000000000000000000008152600401610a6190612775565b60405180910390fd5b60009150509392505050565b6202a30081565b60008054906101000a900473ffffffffffffffffffffffffffffffffffffffff1673ffffffffffffffffffffffffffffffffffffffff163373ffffffffffffffffffffffffffffffffffffffff1614610b0b576040517f08c379a0000000000000000000000000000000000000000000000000000000008152600401610b02906127e1565b60405180910390fd5b80600160006101000a81548173ffffffffffffffffffffffffffffffffffffffff021916908373ffffffffffffffffffffffffffffffffffffffff1602179055508073ffffffffffffffffffffffffffffffffffffffff167f909fb73ec42bf9fd77afdeca0dbd5e76128d99c26093b6e93a566e1d183906ee60405160405180910390a250565b60066020528060005260406000206000915054906101000a900460ff1681565b600160009054906101000a900473ffffffffffffffffffffffffffffffffffffffff1681565b60008054906101000a900473ffffffffffffffffffffffffffffffffffffffff1673ffffffffffffffffffffffffffffffffffffffff163373ffffffffffffffffffffffffffffffffffffffff1614610c66576040517f08c379a0000000000000000000000000000000000000000000000000000000008152600401610c5d9061284d565b60405180910390fd5b600560008273ffffffffffffffffffffffffffffffffffffffff1673ffffffffffffffffffffffffffffffffffffffff16815260200190815260200160002060009054906101000a900460ff16610cf2576040517f08c379a0000000000000000000000000000000000000000000000000000000008152600401610ce9906128b9565b60405180910390fd5b6000600560008373ffffffffffffffffffffffffffffffffffffffff1673ffffffffffffffffffffffffffffffffffffffff16815260200190815260200160002060006101000a81548160ff02191690831515021790555060005b600480549050811015610ed0578173ffffffffffffffffffffffffffffffffffffffff1660048281548110610d8557610d846124ec565b5b9060005260206000200160009054906101000a900473ffffffffffffffffffffffffffffffffffffffff1673ffffffffffffffffffffffffffffffffffffffff1603610ec35760046001600480549050610ddf9190612908565b81548110610df057610def6124ec565b5b9060005260206000200160009054906101000a900473ffffffffffffffffffffffffffffffffffffffff1660048281548110610e2f57610e2e6124ec565b5b9060005260206000200160006101000a81548173ffffffffffffffffffffffffffffffffffffffff021916908373ffffffffffffffffffffffffffffffffffffffff1602179055506004805480610e8957610e8861293c565b5b6001900381819060005260206000200160006101000a81549073ffffffffffffffffffffffffffffffffffffffff02191690559055610ed0565b8080600101915050610d4d565b507fb8107d0c6b40be480ce3172ee66ba6d64b71f6b1685a851340036e6e2e3e3c5281604051610f0091906122e3565b60405180910390a150565b600281565b60008054906101000a900473ffffffffffffffffffffffffffffffffffffffff1681565b60075481565b60008054906101000a900473ffffffffffffffffffffffffffffffffffffffff1673ffffffffffffffffffffffffffffffffffffffff163373ffffffffffffffffffffffffffffffffffffffff1614610fc8576040517f08c379a0000000000000000000000000000000000000000000000000000000008152600401610fbf906129b7565b60405180910390fd5b600560008273ffffffffffffffffffffffffffffffffffffffff1673ffffffffffffffffffffffffffffffffffffffff16815260200190815260200160002060009054906101000a900460ff1615611055576040517f08c379a000000000000000000000000000000000000000000000000000000000815260040161104c90612a23565b60405180910390fd5b6004819080600181540180825580915050600190039060005260206000200160009091909190916101000a81548173ffffffffffffffffffffffffffffffffffffffff021916908373ffffffffffffffffffffffffffffffffffffffff1602179055506001600560008373ffffffffffffffffffffffffffffffffffffffff1673ffffffffffffffffffffffffffffffffffffffff16815260200190815260200160002060006101000a81548160ff0219169083151502179055507f038596bb31e2e7d3d9f184d4c98b310103f6d7f5830e5eec32bffe6f1728f9698160405161113f91906122e3565b60405180910390a150565b60008054906101000a900473ffffffffffffffffffffffffffffffffffffffff1673ffffffffffffffffffffffffffffffffffffffff163373ffffffffffffffffffffffffffffffffffffffff16146111d8576040517f08c379a00000000000000000000000000000000000000000000000000000000081526004016111cf906127e1565b60405180910390fd5b8073ffffffffffffffffffffffffffffffffffffffff1660008054906101000a900473ffffffffffffffffffffffffffffffffffffffff1673ffffffffffffffffffffffffffffffffffffffff167fb532073b38c83145e3e5135377a08bf9aab55bc0fd7c1179cd4fb995d2a5159c60405160405180910390a3806000806101000a81548173ffffffffffffffffffffffffffffffffffffffff021916908373ffffffffffffffffffffffffffffffffffffffff16021790555050565b60007f0000000000000000000000000000000000000000000000000000000000000000905090565b7f000000000000000000000000000000000000000000000000000000000000000073ffffffffffffffffffffffffffffffffffffffff163373ffffffffffffffffffffffffffffffffffffffff161461134b576040517f08c379a000000000000000000000000000000000000000000000000000000000815260040161134290612567565b60405180910390fd5b600060648461135a9190612a72565b90506000818561136a9190612aa3565b9050804710156113af576040517f08c379a00000000000000000000000000000000000000000000000000000000081526004016113a690612b23565b60405180910390fd5b60008673ffffffffffffffffffffffffffffffffffffffff168686866040516113d99291906126a4565b60006040518083038185875af1925050503d8060008114611416576040519150601f19603f3d011682016040523d82523d6000602084013e61141b565b606091505b505090508061145f576040517f08c379a000000000000000000000000000000000000000000000000000000000815260040161145690612b8f565b60405180910390fd5b60008060009054906101000a900473ffffffffffffffffffffffffffffffffffffffff16905060008173ffffffffffffffffffffffffffffffffffffffff16856040516114ab90612bd5565b60006040518083038185875af1925050503d80600081146114e8576040519150601f19603f3d011682016040523d82523d6000602084013e6114ed565b606091505b505090508061156257600073ffffffffffffffffffffffffffffffffffffffff168973ffffffffffffffffffffffffffffffffffffffff167f20c2041c6f01ce2632a5defa729a53f5258976bcc53f4eeaca8a59c2319f81a760006040516115559190612c25565b60405180910390a36115c8565b8173ffffffffffffffffffffffffffffffffffffffff168973ffffffffffffffffffffffffffffffffffffffff167f20c2041c6f01ce2632a5defa729a53f5258976bcc53f4eeaca8a59c2319f81a7876040516115bf91906121c3565b60405180910390a35b505050505050505050565b600560003373ffffffffffffffffffffffffffffffffffffffff1673ffffffffffffffffffffffffffffffffffffffff16815260200190815260200160002060009054906101000a900460ff1661165f576040517f08c379a000000000000000000000000000000000000000000000000000000000815260040161165690612c8c565b60405180910390fd5b600660003373ffffffffffffffffffffffffffffffffffffffff1673ffffffffffffffffffffffffffffffffffffffff16815260200190815260200160002060009054906101000a900460ff16156116ec576040517f08c379a00000000000000000000000000000000000000000000000000000000081526004016116e390612cf8565b60405180910390fd5b6001600660003373ffffffffffffffffffffffffffffffffffffffff1673ffffffffffffffffffffffffffffffffffffffff16815260200190815260200160002060006101000a81548160ff0219169083151502179055506007600081548092919061175790612d18565b91905055507f51f83a767fad01921e5c37482bc11c69f60078e95758aecc70fd28186f286dc13360405161178b91906122e3565b60405180910390a1600260075410611907574260028190555080600360006101000a81548173ffffffffffffffffffffffffffffffffffffffff021916908373ffffffffffffffffffffffffffffffffffffffff160217905550600060078190555060005b6004805490508110156118a05760006006600060048481548110611817576118166124ec565b5b9060005260206000200160009054906101000a900473ffffffffffffffffffffffffffffffffffffffff1673ffffffffffffffffffffffffffffffffffffffff1673ffffffffffffffffffffffffffffffffffffffff16815260200190815260200160002060006101000a81548160ff02191690831515021790555080806001019150506117f0565b508073ffffffffffffffffffffffffffffffffffffffff163373ffffffffffffffffffffffffffffffffffffffff167fe290ea2cc3cfeb5114f992dc8be9e503de30042c13b9298644a2679b09e17a04426040516118fe91906121c3565b60405180910390a35b50565b6000611914611295565b73ffffffffffffffffffffffffffffffffffffffff166335567e1a3060006040518363ffffffff1660e01b815260040161194f929190612db5565b602060405180830381865afa15801561196c573d6000803e3d6000fd5b505050506040513d601f19601f820116820180604052508101906119909190612df3565b905090565b600073ffffffffffffffffffffffffffffffffffffffff16600360009054906101000a900473ffffffffffffffffffffffffffffffffffffffff1673ffffffffffffffffffffffffffffffffffffffff1603611a26576040517f08c379a0000000000000000000000000000000000000000000000000000000008152600401611a1d90612e6c565b60405180910390fd5b6202a300600254611a379190612aa3565b421015611a79576040517f08c379a0000000000000000000000000000000000000000000000000000000008152600401611a7090612ed8565b60405180910390fd5b600360009054906101000a900473ffffffffffffffffffffffffffffffffffffffff1673ffffffffffffffffffffffffffffffffffffffff1660008054906101000a900473ffffffffffffffffffffffffffffffffffffffff1673ffffffffffffffffffffffffffffffffffffffff167fb532073b38c83145e3e5135377a08bf9aab55bc0fd7c1179cd4fb995d2a5159c60405160405180910390a3600360009054906101000a900473ffffffffffffffffffffffffffffffffffffffff1673ffffffffffffffffffffffffffffffffffffffff167f9504e318c48c2d15540e6faaea014f2855c06fc4df211f5e26a8fb99a6be7fdf60405160405180910390a2600360009054906101000a900473ffffffffffffffffffffffffffffffffffffffff166000806101000a81548173ffffffffffffffffffffffffffffffffffffffff021916908373ffffffffffffffffffffffffffffffffffffffff1602179055506000600360006101000a81548173ffffffffffffffffffffffffffffffffffffffff021916908373ffffffffffffffffffffffffffffffffffffffff1602179055506000600281905550565b600360009054906101000a900473ffffffffffffffffffffffffffffffffffffffff1681565b60048181548110611c5e57600080fd5b906000526020600020016000915054906101000a900473ffffffffffffffffffffffffffffffffffffffff1681565b60007f19457468657265756d205369676e6564204d6573736167653a0a33320000000060005281601c52603c6000209050919050565b600080600080611cd38686611cef565b925092509250611ce38282611d4b565b82935050505092915050565b60008060006041845103611d345760008060006020870151925060408701519150606087015160001a9050611d2688828585611eaf565b955095509550505050611d44565b60006002855160001b9250925092505b9250925092565b60006003811115611d5f57611d5e612ef8565b5b826003811115611d7257611d71612ef8565b5b0315611eab5760016003811115611d8c57611d8b612ef8565b5b826003811115611d9f57611d9e612ef8565b5b03611dd6576040517ff645eedf00000000000000000000000000000000000000000000000000000000815260040160405180910390fd5b60026003811115611dea57611de9612ef8565b5b826003811115611dfd57611dfc612ef8565b5b03611e42578060001c6040517ffce698f7000000000000000000000000000000000000000000000000000000008152600401611e3991906121c3565b60405180910390fd5b600380811115611e5557611e54612ef8565b5b826003811115611e6857611e67612ef8565b5b03611eaa57806040517fd78bce0c000000000000000000000000000000000000000000000000000000008152600401611ea19190612f36565b60405180910390fd5b5b5050565b60008060007f7fffffffffffffffffffffffffffffff5d576e7357a4501ddfe92f46681b20a08460001c1115611eef576000600385925092509250611f99565b600060018888888860405160008152602001604052604051611f149493929190612f6d565b6020604051602081039080840390855afa158015611f36573d6000803e3d6000fd5b505050602060405103519050600073ffffffffffffffffffffffffffffffffffffffff168173ffffffffffffffffffffffffffffffffffffffff1603611f8a57600060016000801b93509350935050611f99565b8060008060001b935093509350505b9450945094915050565b600080fd5b600080fd5b600073ffffffffffffffffffffffffffffffffffffffff82169050919050565b6000611fd882611fad565b9050919050565b611fe881611fcd565b8114611ff357600080fd5b50565b60008135905061200581611fdf565b92915050565b60006020828403121561202157612020611fa3565b5b600061202f84828501611ff6565b91505092915050565b60008115159050919050565b61204d81612038565b82525050565b60006020820190506120686000830184612044565b92915050565b600080fd5b600080fd5b600080fd5b60008083601f8401126120935761209261206e565b5b8235905067ffffffffffffffff8111156120b0576120af612073565b5b6020830191508360208202830111156120cc576120cb612078565b5b9250929050565b60008083601f8401126120e9576120e861206e565b5b8235905067ffffffffffffffff81111561210657612105612073565b5b60208301915083602082028301111561212257612121612078565b5b9250929050565b6000806000806040858703121561214357612142611fa3565b5b600085013567ffffffffffffffff81111561216157612160611fa8565b5b61216d8782880161207d565b9450945050602085013567ffffffffffffffff8111156121905761218f611fa8565b5b61219c878288016120d3565b925092505092959194509250565b6000819050919050565b6121bd816121aa565b82525050565b60006020820190506121d860008301846121b4565b92915050565b600080fd5b600061016082840312156121fa576121f96121de565b5b81905092915050565b6000819050919050565b61221681612203565b811461222157600080fd5b50565b6000813590506122338161220d565b92915050565b612242816121aa565b811461224d57600080fd5b50565b60008135905061225f81612239565b92915050565b60008060006060848603121561227e5761227d611fa3565b5b600084013567ffffffffffffffff81111561229c5761229b611fa8565b5b6122a8868287016121e3565b93505060206122b986828701612224565b92505060406122ca86828701612250565b9150509250925092565b6122dd81611fcd565b82525050565b60006020820190506122f860008301846122d4565b92915050565b6000819050919050565b600061232361231e61231984611fad565b6122fe565b611fad565b9050919050565b600061233582612308565b9050919050565b60006123478261232a565b9050919050565b6123578161233c565b82525050565b6000602082019050612372600083018461234e565b92915050565b60008083601f84011261238e5761238d61206e565b5b8235905067ffffffffffffffff8111156123ab576123aa612073565b5b6020830191508360018202830111156123c7576123c6612078565b5b9250929050565b600080600080606085870312156123e8576123e7611fa3565b5b60006123f687828801611ff6565b945050602061240787828801612250565b935050604085013567ffffffffffffffff81111561242857612427611fa8565b5b61243487828801612378565b925092505092959194509250565b60006020828403121561245857612457611fa3565b5b600061246684828501612250565b91505092915050565b600082825260208201905092915050565b7f4f6e6c79206f776e65722063616e2063616e63656c0000000000000000000000600082015250565b60006124b660158361246f565b91506124c182612480565b602082019050919050565b600060208201905081810360008301526124e5816124a9565b9050919050565b7f4e487b7100000000000000000000000000000000000000000000000000000000600052603260045260246000fd5b7f4e6f742066726f6d20456e747279506f696e7400000000000000000000000000600082015250565b600061255160138361246f565b915061255c8261251b565b602082019050919050565b6000602082019050818103600083015261258081612544565b9050919050565b7f4d69736d61746368656420696e70757473000000000000000000000000000000600082015250565b60006125bd60118361246f565b91506125c882612587565b602082019050919050565b600060208201905081810360008301526125ec816125b0565b9050919050565b600080fd5b600080fd5b600080fd5b6000808335600160200384360303811261261f5761261e6125f3565b5b80840192508235915067ffffffffffffffff821115612641576126406125f8565b5b60208301925060018202360383131561265d5761265c6125fd565b5b509250929050565b600081905092915050565b82818337600083830152505050565b600061268b8385612665565b9350612698838584612670565b82840190509392505050565b60006126b182848661267f565b91508190509392505050565b7f426174636820657865637574696f6e206661696c656400000000000000000000600082015250565b60006126f360168361246f565b91506126fe826126bd565b602082019050919050565b60006020820190508181036000830152612722816126e6565b9050919050565b7f496e76616c6964207369676e6174757265000000000000000000000000000000600082015250565b600061275f60118361246f565b915061276a82612729565b602082019050919050565b6000602082019050818103600083015261278e81612752565b9050919050565b7f4e6f74206f776e65720000000000000000000000000000000000000000000000600082015250565b60006127cb60098361246f565b91506127d682612795565b602082019050919050565b600060208201905081810360008301526127fa816127be565b9050919050565b7f4f6e6c79206f776e65722063616e2072656d6f766520677561726469616e0000600082015250565b6000612837601e8361246f565b915061284282612801565b602082019050919050565b600060208201905081810360008301526128668161282a565b9050919050565b7f4e6f74206120677561726469616e000000000000000000000000000000000000600082015250565b60006128a3600e8361246f565b91506128ae8261286d565b602082019050919050565b600060208201905081810360008301526128d281612896565b9050919050565b7f4e487b7100000000000000000000000000000000000000000000000000000000600052601160045260246000fd5b6000612913826121aa565b915061291e836121aa565b9250828203905081811115612936576129356128d9565b5b92915050565b7f4e487b7100000000000000000000000000000000000000000000000000000000600052603160045260246000fd5b7f4f6e6c79206f776e65722063616e2061646420677561726469616e0000000000600082015250565b60006129a1601b8361246f565b91506129ac8261296b565b602082019050919050565b600060208201905081810360008301526129d081612994565b9050919050565b7f416c726561647920677561726469616e00000000000000000000000000000000600082015250565b6000612a0d60108361246f565b9150612a18826129d7565b602082019050919050565b60006020820190508181036000830152612a3c81612a00565b9050919050565b7f4e487b7100000000000000000000000000000000000000000000000000000000600052601260045260246000fd5b6000612a7d826121aa565b9150612a88836121aa565b925082612a9857612a97612a43565b5b828204905092915050565b6000612aae826121aa565b9150612ab9836121aa565b9250828201905080821115612ad157612ad06128d9565b5b92915050565b7f496e73756666696369656e742062616c616e6365000000000000000000000000600082015250565b6000612b0d60148361246f565b9150612b1882612ad7565b602082019050919050565b60006020820190508181036000830152612b3c81612b00565b9050919050565b7f4d61696e207472616e73666572206661696c6564000000000000000000000000600082015250565b6000612b7960148361246f565b9150612b8482612b43565b602082019050919050565b60006020820190508181036000830152612ba881612b6c565b9050919050565b50565b6000612bbf600083612665565b9150612bca82612baf565b600082019050919050565b6000612be082612bb2565b9150819050919050565b6000819050919050565b6000612c0f612c0a612c0584612bea565b6122fe565b6121aa565b9050919050565b612c1f81612bf4565b82525050565b6000602082019050612c3a6000830184612c16565b92915050565b7f4e6f7420677561726469616e0000000000000000000000000000000000000000600082015250565b6000612c76600c8361246f565b9150612c8182612c40565b602082019050919050565b60006020820190508181036000830152612ca581612c69565b9050919050565b7f416c726561647920617070726f76656400000000000000000000000000000000600082015250565b6000612ce260108361246f565b9150612ced82612cac565b602082019050919050565b60006020820190508181036000830152612d1181612cd5565b9050919050565b6000612d23826121aa565b91507fffffffffffffffffffffffffffffffffffffffffffffffffffffffffffffffff8203612d5557612d546128d9565b5b600182019050919050565b600077ffffffffffffffffffffffffffffffffffffffffffffffff82169050919050565b6000612d9f612d9a612d9584612bea565b6122fe565b612d60565b9050919050565b612daf81612d84565b82525050565b6000604082019050612dca60008301856122d4565b612dd76020830184612da6565b9392505050565b600081519050612ded81612239565b92915050565b600060208284031215612e0957612e08611fa3565b5b6000612e1784828501612dde565b91505092915050565b7f4e6f2070656e64696e67207265636f7665727900000000000000000000000000600082015250565b6000612e5660138361246f565b9150612e6182612e20565b602082019050919050565b60006020820190508181036000830152612e8581612e49565b9050919050565b7f5265636f766572792064656c6179206e6f742070617373656400000000000000600082015250565b6000612ec260198361246f565b9150612ecd82612e8c565b602082019050919050565b60006020820190508181036000830152612ef181612eb5565b9050919050565b7f4e487b7100000000000000000000000000000000000000000000000000000000600052602160045260246000fd5b612f3081612203565b82525050565b6000602082019050612f4b6000830184612f27565b92915050565b600060ff82169050919050565b612f6781612f51565b82525050565b6000608082019050612f826000830187612f27565b612f8f6020830186612f5e565b612f9c6040830185612f27565b612fa96060830184612f27565b9594505050505056fea264697066735822122043e210df1bcb9158d2a2eb7c74fcb86ea08512132605417b2813b6b0a454e59e64736f6c634300081c0033",
  "linkReferences": {},
  "deployedLinkReferences": {}
}